:020000040000fa
:080000000002040000000000f2
:020000040000fa
:04000800c80200002a
:020000040000fa
:04000c00c802000026
:020000040000fa
:04001000c802000022
:020000040000fa
:04001400c80200001e
:020000040000fa
:04001800c80200001a
:020000040000fa
:04001c00c802000016
:020000040000fa
:04002000c802000012
:020000040000fa
:04002400c80200000e
:020000040000fa
:04002800c80200000a
:020000040000fa
:04002c00c802000006
:020000040000fa
:04003000c802000002
:020000040000fa
:04003400c8020000fe
:020000040000fa
:04003800c8020000fa
:020000040000fa
:04003c00c8020000f6
:020000040000fa
:04004000c8020000f2
:020000040000fa
:04004400c8020000ee
:020000040000fa
:04004800c8020000ea
:020000040000fa
:04004c00c8020000e6
:020000040000fa
:04005000c8020000e2
:020000040000fa
:04005400c8020000de
:020000040000fa
:04005800c8020000da
:020000040000fa
:04005c00c8020000d6
:020000040000fa
:04006000c8020000d2
:020000040000fa
:04006400c8020000ce
:020000040000fa
:04006800c8020000ca
:020000040000fa
:04006c00c8020000c6
:020000040000fa
:04007000c8020000c2
:020000040000fa
:04007400da020000ac
:020000040000fa
:04007800c8020000ba
:020000040000fa
:04007c00c8020000b6
:020000040000fa
:04008000c8020000b2
:020000040000fa
:04008400c8020000ae
:020000040000fa
:04008800c8020000aa
:020000040000fa
:04008c00c8020000a6
:020000040000fa
:04009000c8020000a2
:020000040000fa
:04009400c80200009e
:020000040000fa
:04009800c80200009a
:020000040000fa
:04009c00c802000096
:020000040000fa
:0400a000c802000092
:020000040000fa
:0400a400c80200008e
:020000040000fa
:0400a800c80200008a
:020000040000fa
:0400ac00c802000086
:020000040000fa
:0400b000c802000082
:020000040000fa
:0400b400c80200007e
:020000040000fa
:0400b800c80200007a
:020000040000fa
:0400bc00c802000076
:020000040000fa
:0400c000c802000072
:020000040000fa
:0400c400c80200006e
:020000040000fa
:0400c800c80200006a
:020000040000fa
:0400cc00c802000066
:020000040000fa
:0400d000c802000062
:020000040000fa
:0400d400c80200005e
:020000040000fa
:0400d800c80200005a
:020000040000fa
:0400dc00c802000056
:020000040000fa
:0400e000c802000052
:020000040000fa
:0400e400c80200004e
:020000040000fa
:0400e800c80200004a
:020000040000fa
:0400ec00c802000046
:020000040000fa
:0400f000c802000042
:020000040000fa
:0400f400c80200003e
:020000040000fa
:0400f800c80200003a
:020000040000fa
:0400fc00c802000036
:020000040000fa
:04010000c802000031
:020000040000fa
:04010400c80200002d
:020000040000fa
:04010800c802000029
:020000040000fa
:04010c00c802000025
:020000040000fa
:04011000c802000021
:020000040000fa
:04011400c80200001d
:020000040000fa
:04011800c802000019
:020000040000fa
:04011c00c802000015
:020000040000fa
:0401200004030000d4
:020000040000fa
:04012400c80200000d
:020000040000fa
:04012800c802000009
:020000040000fa
:04012c00c802000005
:020000040000fa
:04013000c802000001
:020000040000fa
:04013400c8020000fd
:020000040000fa
:04013800c8020000f9
:020000040000fa
:04013c00c8020000f5
:020000040000fa
:04014000c8020000f1
:020000040000fa
:04014400c8020000ed
:020000040000fa
:04014800c8020000e9
:020000040000fa
:04014c00c8020000e5
:020000040000fa
:04015000c8020000e1
:020000040000fa
:04015400c8020000dd
:020000040000fa
:04015800c8020000d9
:020000040000fa
:04015c00c8020000d5
:020000040000fa
:04020800c802000028
:020000040000fa
:04020c00c802000024
:020000040000fa
:04021000c802000020
:020000040000fa
:04021400c80200001c
:020000040000fa
:04021800c802000018
:020000040000fa
:04021c00c802000014
:020000040000fa
:04022000c802000010
:020000040000fa
:04022400c80200000c
:020000040000fa
:04022800c802000008
:020000040000fa
:04022c00c802000004
:020000040000fa
:04023000c802000000
:020000040000fa
:04023400c8020000fc
:020000040000fa
:04023800c8020000f8
:020000040000fa
:04023c00c8020000f4
:020000040000fa
:04024000c8020000f0
:020000040000fa
:04024400c8020000ec
:020000040000fa
:04024800c8020000e8
:020000040000fa
:04024c00c8020000e4
:020000040000fa
:04025000c8020000e0
:020000040000fa
:04025400c8020000dc
:020000040000fa
:04025800c8020000d8
:020000040000fa
:04025c00c8020000d4
:020000040000fa
:04026000c8020000d0
:020000040000fa
:04026400c8020000cc
:020000040000fa
:04026800c8020000c8
:020000040000fa
:04026c00c8020000c4
:020000040000fa
:04027000c8020000c0
:020000040000fa
:04027400c8020000bc
:020000040000fa
:04027800c8020000b8
:020000040000fa
:04027c00c8020000b4
:020000040000fa
:04028000c8020000b0
:020000040000fa
:04028400c8020000ac
:020000040000fa
:04028800c8020000a8
:020000040000fa
:04028c00c8020000a4
:020000040000fa
:04029000c8020000a0
:020000040000fa
:04029400c80200009c
:020000040000fa
:04029800c802000098
:020000040000fa
:04029c00c802000094
:020000040000fa
:0402a000c802000090
:020000040000fa
:0402a400c80200008c
:020000040000fa
:0402a800c802000088
:020000040000fa
:0402ac00c802000084
:020000040000fa
:0402b000c802000080
:020000040000fa
:0402b400c80200007c
:020000040000fa
:0402b800c802000078
:020000040000fa
:0402bc00c802000074
:020000040000fa
:0402c000c802000070
:020000040000fa
:0402c400c80200006c
:020000040000fa
:0402c800c802000068
:020000040000fa
:0402cc00c802000064
:020000040000fa
:0402d000c802000060
:020000040000fa
:0402d400c80200005c
:020000040000fa
:0402d800c802000058
:020000040000fa
:0402dc00c802000054
:020000040000fa
:0402e000c802000050
:020000040000fa
:0402e400c80200004c
:020000040000fa
:0402e800c802000048
:020000040000fa
:0402ec00c802000044
:020000040000fa
:0402f000c802000040
:020000040000fa
:0402f400c80200003c
:020000040000fa
:0402f800c802000038
:020000040000fa
:0402fc00c802000034
:020000040000fa
:04030000c80200002f
:020000040000fa
:04030400c80200002b
:020000040000fa
:04030800c802000027
:020000040000fa
:04030c00c802000023
:020000040000fa
:04031000c80200001f
:020000040000fa
:04031400c80200001b
:020000040000fa
:04031800c802000017
:020000040000fa
:04031c00c802000013
:020000040000fa
:04032000c80200000f
:020000040000fa
:04032400c80200000b
:020000040000fa
:04032800c802000007
:020000040000fa
:04032c00c802000003
:020000040000fa
:04033000c8020000ff
:020000040000fa
:04033400c8020000fb
:020000040000fa
:04033800c8020000f7
:020000040000fa
:04033c00c8020000f3
:020000040000fa
:04034000c8020000ef
:020000040000fa
:04034400c8020000eb
:020000040000fa
:04034800c8020000e7
:020000040000fa
:04034c00c8020000e3
:020000040000fa
:04035000c8020000df
:020000040000fa
:04035400c8020000db
:020000040000fa
:04035800c8020000d7
:020000040000fa
:04035c00c8020000d3
:020000040000fa
:100400002f8c20000edf20000e018800000000006d
:10041000000020000000e000020032000001200087
:100420002002880014000700c30007000000e0005d
:1004300003003a00809821000100200002003700ec
:100440000000200001002000810f70000100320038
:1004500014000700000020000000e000020032004d
:1004600000000200000000006c1602000000000006
:100470000040da000000fe004440a900600f2000a8
:100480000000e0000300320000002000a00188000e
:100490004440a800000006008a1f78008b1f7800e7
:1004a0000000060091018800800478000000eb0045
:1004b0001a003700e284440032a0b4009905ba0063
:1004c000e284440032a0b4009906ba00e2844400f9
:1004d00032a0b4000006eb00476fde00fd07b2005b
:1004e000636ce10003003a00ebff07000000eb0043
:1004f0000a003700606ce10004003a00005deb0088
:100500008b05e900fdff3e00040037006168e10053
:10051000010032000086eb000b00070019c7ba008b
:100520001905ba000e04e00003003a000a00e000da
:10053000e0ff3a0000000600fe07b2009e018800be
:100540008a047800f5ff3700395dba008b05e900b1
:100550000c003200295dba008b05e900080032006a
:100560000c00e00003003a00e284440032a0b40032
:10057000f5ff370019ddba008b05e900faff3a00f4
:100580008904e800e184440032a0b40000000600c1
:100590003400f800881f780008002000a8018800b7
:1005a0004f0478000000fa000080fa003400f900df
:1005b00000400600809fbe003400f80000002000cc
:1005c000a00188000000fa0030048000680060008c
:1005d0000000e00007003200111680000004200037
:1005e000008060000000e0000200320010002000e7
:1005f000e04188008660a9000080fa003400f9001c
:100600004f00be00004006003400f800881f78004c
:1006100008002000a80188004f0478000000fa00bc
:100620008bc0a9000080fa003400f90000400600e9
:100630000a00fa00e20f500034003e00004680003d
:10064000e10f500003003200e20f500011003a00a9
:100650000c003700032220000300e00001003a00f4
:100660000040da002002e200020035002822ef00fc
:1006700021e2a8002342ab000d003a002342a8006b
:100680000b003700032320000300e00001003a00c4
:100690000040da003002e200020035003822ef00ac
:1006a00031e2a8003342ab0001003a003342a80017
:1006b000820178000b0037003102fb00e10f50008f
:1006c00004003a002322ab00feff3a002411880008
:1006d000030037003322ab00feff3a00a41188006c
:1006e0008301e9000300e000f3ff3a00e10f50004e
:1006f00003003a002302ab00feff32000b0037007c
:100700003302ab00feff3200080037003300200048
:10071000b3bf9f00c0bf9f00d1bf9f00e2bf9f003b
:100720006a805700bd0407006fb997000200780087
:100730000080fa00000006000000050003f0a2009f
:10074000889fbe008a9fbe008c1f7800d5000700de
:10075000dc0033006450e1004f0032006420e1000f
:100760005200320003826c0007003b000905d000f4
:100770000306d000820f54000c065d000200390011
:100780000200320089017800030678008582550056
:1007900004003d000003fd008103fd008502ea0026
:1007a0008b854200840f720002003b006000100045
:1007b000e08018006011b8000005eb007a28e10025
:1007c0000a00390006007800c75ddd00f707b200b7
:1007d000878075002d003700828171000a01780042
:1007e000610560008180d1000080d3008502e900ae
:1007f000f9ff3b00060440008784480002003b00ec
:1008000060041400e0841c000988a3000700320083
:100810008a81710082817100610164008904d100c4
:100820000884d3008b05e800170037000978a3007f
:1008300013003a000b00e000130034008b05e900c0
:100840000804440089844c000a4474000978a30019
:100850000d003a000b00e000070034008b05e900b2
:100860000804440089844c0001003a000b00200079
:100870000978a300f7ff32000001eb000200370007
:10088000828171000a017800600007000cf0a70067
:1008900001f0a000940037006420e10002003a005b
:1008a000838f6c00940033000801be000200be007c
:1008b0008d003700889fbe008a9fbe008c1f780085
:1008c000780007007f00330003866c006450e1006d
:1008d0002e0032006420e100330032006150e1005c
:1008e0002f0032006120e100310032008585550083
:1008f000eb07b000090020000804200005003700c5
:100900000804440089844c000a00310006034300b7
:1009100087834b000001530081815b00f8ff3300a7
:100920000203be000800a0000804440089844c00b3
:10093000f6ff3900c639dd00830173000100320083
:10094000130020008904d1000884d3000998a30073
:10095000050032000800a7000300a0008904d100b0
:100960000884d3008b05e8008904d1000884d300f3
:100970000001eb000281d2002400070001f0a10079
:100980000cf0a70001f0a000570037006420e10040
:10099000590032000801be000200be00f7ff370018
:1009a0006120e100540032006000b800f3ff37001e
:1009b0000000200001f82700f0ff3700839f680047
:1009c0000100e00002003d0060001000e08018001f
:1009d0000300e00002003d0060011100e081190009
:1009e000480007004f00e00002003b0060001000dc
:1009f000e0801800000006001400200051003700bd
:100a00004f89de00820178006900370081002000f4
:100a1000618055000b003d000b00200061fe2f009f
:100a20000100e1001d003400828171006101640059
:100a30008904d1000884d3000000e800faff3a00de
:100a4000710020006100640003007000020060007b
:100a50000900320061044400e0844c000988a500cc
:100a6000050032008b05e8006808e10002003a004a
:100a70008904d1000884d300f20f20000258e1005d
:100a800005003d00c75ddd00f907b20089807500f3
:100a900008007800000006000bf827008b007800a3
:100aa000000005000004be00800007000003be0037
:100ab0000405be000200be007c000700844f7500e4
:100ac000000006000200be006450e1000500360090
:100ad0006420e100020036000968a30001003a002a
:100ae0000800be000160a0004f0678004f05be0060
:100af0004f04be0000000600f0ff2f00f1ff2700aa
:100b0000f9ff37006022b800060220000000d00084
:100b10008180d2000482d2008582d2000000a00031
:100b20000202520083825a00030031000202420096
:100b300083824a000000a1000603e900f3ff3a00a7
:100b400000000600889fbe008a9fbe00841f7800b8
:100b5000d4ff07004f00780011003300f0ff2f0092
:100b6000838f6c0006003b00040565000a00a700a7
:100b70000800370009f0a600100020000800370028
:100b8000820f5400838f5c000300390010002000a6
:100b900001003e000000200009f0a7000000ea006c
:100ba0004f05be004f04be000000e000000006003c
:100bb000881f7800030478000300e00007003d0070
:100bc00060001000e080180060011900e081190049
:100bd00002003b0001f02d00030037000400070075
:100be00008f0a70001f0a0004f0478000000060004
:100bf000889fbe008a9fbe000082700004027100c0
:100c000004827100260032000004be000200be0013
:100c10006011b8006b092000950220000182cf000e
:100c20000a0039000541b1000082cf0007003900f9
:100c30000541b1000982cf00040039000541b1002f
:100c40000882cf00010039000541b1000542520081
:100c5000120032000a003b008281710061016400d1
:100c60008100d1000080d3008984d3000884d300a0
:100c70008b05e8000442e800f7ff3a000700370060
:100c80000804440089844c0000004800818048002a
:100c90008b05e9000442e900f9ff3a005bff070019
:100ca0004f05be004f04be0000000600c70ade006c
:100cb000f107b200f50fb20008003200e1cf4200a8
:100cc000020032000170a00024000500810f7000b6
:100cd000010032000408050044000500810f700087
:100ce00002003a00140005008502e90000004000ff
:100cf00081c04800fcff3b000170a00024000500fb
:100d00000c00fa00889fbe0000047800f0ff270066
:100d1000d0bf9f008004eb0099bf9f0088bf9f0059
:100d2000a8bf9f00200c2000b0bf9f007881570013
:100d3000cfb0970070805700100007000fb89700e1
:100d4000094878008fb89700088050004f04be0013
:100d50000080fa0000000600d001900002815100de
:100d60004240a900030034001001780001497800d6
:100d70000208e8000100780000000600f68747003e
:100d8000889fbe008a9fbe008c9fbe008e1f780089
:100d900000057800a1b79f00020778008004eb00ef
:100da00090023700afb097008100e800a1b79f0024
:100db00051c2b300814f500003003a00afb097001a
:100dc0000004eb0011003700ba0090000000fb00a7
:100dd0000168a30007003200090178008000780054
:100de0000a007800dcff07000000e00005003a0080
:100df0007c0237008a00780086020700e10f40007d
:100e0000780232008904e800760237000100780099
:100e100031417800d3c2b300834f51000c0032003f
:100e200007003c00edc15100834f51000a00320021
:100e3000ebc14100834f51000d003a00080037001c
:100e400003c3b300834f510009003a000600370086
:100e50000830a000edff37000800a000ebff3700ce
:100e60000810a000e9ff37000820a000e7ff3700c6
:100e70000818a300010032000800a1000838a300f0
:100e8000010032000820a1008200fb000103b10034
:100e9000e98f50000c003e00000178008000eb005c
:100ea0006a08b900b201fb000303b1008080410071
:100eb000020078009201fb000303b100e98f5100aa
:100ec000f7ff3600060037008000eb00a3c2b30036
:100ed000834f510002003a00ce0078000000e80085
:100ee0008005eb00e2c2b300904f110009003a0008
:100ef00008e0a00064415100d04f1100030032000f
:100f0000000178000102780006003700ce05780065
:100f10000000e80000017800090037006a58b900b5
:100f20008085410002007800b201fb000303b1009c
:100f3000e98f5100f9ff360084007800f5ff370093
:100f400032407800a2b79f00c3c6b300834f500061
:100f5000250032000f003c0032c6b300824f500023
:100f60008800320004003c000004e000220232004d
:100f70006b4151000f00370042c6b300824f500052
:100f80001700320065414100824f500094003a0042
:100f90001300370032c7b300824f50001b003200ed
:100fa00007003c0064415100824f500010003200a5
:100fb0000241e800824f500089003a000f003700dc
:100fc00052c7b300824f50008a0032006341410093
:100fd000824f500082003a00e0df9f000900370096
:100fe000e0df9f00850037000840a000d4ff3700f5
:100ff000e0df9f000860a00080003700e0df9f0076
:101000000850a0000870a0007c003700e0df9f00bf
:101010004e007800000678000000e00001003a0071
:101020004c8620000c0178000000eb000100370026
:101030000000e800e24178000304e000fcff3a0011
:10104000800678000b00e000030032008d8f550011
:10105000010031008b0678008005eb008d8f500079
:10106000010036008d855000680464002a003a00b3
:10107000110037003a0090000068a300070032001a
:1010800009017800010220000a00780032ff070001
:101090000000e00006003a00060037008a007800f1
:1010a00000022000db010700e10f400001003200d8
:1010b0008904e8008b05e9000b00e000edff3a0031
:1010c0008085eb00140037003a0090000068a30010
:1010d000090032000c007800b000fb000006780028
:1010e000090178000a0078001bff07000000e000fb
:1010f00008003a00080037008c0078003100fb003f
:10110000010678008a007800c2010700e10f400064
:10111000010032008904e8000d0078008006e90033
:101120000000e000e8ff3a000800e000ad013200f6
:10113000110037003a0090000068a3000700320059
:1011400009017800010220000a00780002ff070070
:101150000000e00006003a00060037008a00780030
:1011600000022000ab010700e10f40000100320047
:101170008904e8008b05e9000b00e000edff3a0070
:10118000980137004e017800cf91de00c81ade00ca
:101190004818dd004812de0004027000e4df9f0002
:1011a0000848a300080032000404e00006003200f2
:1011b000e14f420004003200f4df9f0082e79f000d
:1011c0002d00200002003700f2df9f001d002000ec
:1011d000e2fd2f000f0141000206e80099ff3700f1
:1011e000e0df9f00ecfd2f000f0646001d002000f1
:1011f00094ff3700e0df9f00080cb300080178007f
:10120000020cb200700064000200e0000d003a0021
:101210000000e000020032004e06be00020037006f
:101220004e067800cfe6de00e00f5600e08f5e004d
:101230000a003d003800b30060061600e0861e007c
:10124000060037000000e000020032004e06be003b
:10125000020037004e0678008006eb000b00e0002d
:1012600005003a008c8576000bf0a7008b05ea009c
:101270008b05e900cf5dde0088017800030cb20029
:10128000e3b79f0000042000808f5100230032004c
:1012900003003c000300e000080032002d0037008e
:1012a000000820006fb29700800f52000d0032003e
:1012b000000c2000800f520026003a00c286200059
:1012c00010c0b30064014100b20f5600a28f5e004f
:1012d0001f0039000040e800ea4f5000f9ff3a00d3
:1012e0001b00370010c0b3000201200003002000e3
:1012f000820f5600838f5e0015003900441add000e
:10130000cc11de00830172004411dd000040e800d2
:10131000e84f5000f6ff3a000d00370010c0b30050
:101320008200200003002000820f5600838f5e00a1
:1013300007003900431add00cd11de008301720081
:101340004311dd000040e800eb4f5000f6ff3a008b
:10135000e0df9f006fd997000200fb008b0f500069
:1013600002003d00ebdf9f0003003700808f550037
:1013700001003d00800578000100e000030032001c
:1013800063006400010032008100e90008e8a30066
:10139000050032008b8f5000020034008b8050001b
:1013a000010037008000eb00efd997000300fb003d
:1013b0000002eb00d4b79f00808f50000200340081
:1013c00000805000d0b79f000828a30040003200e2
:1013d000610164000818a3000f0032003a00900079
:1013e0000068a30006003200b10220000200e00005
:1013f000010032008180e800090178000d0037000b
:10140000b00220000200e000010032000080e8008d
:101410008a0078000e0037000200e0001000320061
:101420003a0090000068a30007003200090178002c
:10143000010220000a00780047fe07000000e000db
:1014400006003a00060037008a00780000022000fb
:10145000f0000700e10f4000010032008904e800bd
:101460005fb097000000e0005a003200bcb79f0058
:10147000cdb79f00800678003a0090000068a30076
:101480000700320009017800010320000a007800fb
:1014900031fe07000000e00006003a0006003700b9
:1014a0008a00780000032000da000700e10f400006
:1014b000010032008904e8008d06e900eeff3a00e1
:1014c000ddb79f003fb69700cfb6970041003700c9
:1014d000dfb197000300e0001a0032000838a300d3
:1014e00018003a00bcb79f00cdb79f008306780074
:1014f0003a0090000068a30007003200090178005c
:10150000010220000a00780013fe07000000e0003e
:1015100006003a00060037008a007800000220002a
:10152000bc000700e10f4000010032008904e80020
:101530008d06e900eeff3a00ddb79f003fb6970049
:10154000cfb69700610164000818a3000f003200b5
:101550003a0090000068a30006003200b1022000ab
:101560000200e000010032008180e80009017800fb
:101570000d003700b00220000200e0000100320040
:101580000080e8008a0078000e0037000200e000ca
:10159000100032003a0090000068a30007003200fb
:1015a00009017800010220000a007800eafd070026
:1015b0000000e00006003a00060037008a007800cc
:1015c0000002200093000700e10f400001003200fc
:1015d0008904e8000b03e9006330b90000017800da
:1015e000b2b79f004233dd00c086200000034300f5
:1015f0008e01780093b79f000807780006047800f2
:101600005c0037008b05e900000420006fb29700f2
:10161000800f52003800320003003c000400e0005c
:10162000080032003e00370000082000efb09700ad
:10163000808f500020003200000c2000808f50006e
:1016400037003a000e48a300100032001802be0016
:101650000401be000c00be00f4b79f0085bf9f00d0
:1016600028fd0700e0df9f000000fb00cf80de00c8
:101670007fb297008fba97000401be00e90007000f
:101680000006560081865e000700370018017800ca
:10169000110009000286d800a200200011000900f4
:1016a0000280d800e1df9f006fd997000243b000ad
:1016b000e2df9f001a003700308520000e58a3009b
:1016c0000100320020842000c186200081005400e7
:1016d0000c01be008100e900030033008301d1004a
:1016e0000281d300fbff3700ef006100e0c078000b
:1016f000e1df9f000a0037000c00be00bfb1970079
:101700008301e900030033008100d1000080d30091
:10171000fbff3700674060000043b000e0df9f0040
:10172000ba0090006fda97000400fb000168a30084
:101730000700320009017800800078000a00780074
:1017400085fd07000000e00005003a0005003700b5
:101750008a0078002f000700e10f400001003200ee
:101760008904e8003fb0970063005000b0b79f00c5
:10177000640454000b00e000a2ff3a000e0478005d
:101780001fb797000838a30016003200dfb097009b
:101790000100e00013003400010478003a009000da
:1017a0000068a30007003200090178000102200050
:1017b0000a00780068fd07000000e00006003a001b
:1017c000060037008a0078000002200011000700a0
:1017d000e10f4000010032008904e8000804e9003c
:1017e000eeff3a002fb1970012407800e0df9f0033
:1017f0000004e0006bfd3a00090078004f07780014
:101800004f06be004f05be004f04be006f01b10081
:1018100000000600889fbe0001047800b800900018
:101820008084eb000118a3003a00320018019000f8
:101830000198a30002003a000200e00035003a00df
:101840000190a0003104980080047800f90fb200e4
:101850000200e00002003a0028009000000c78002e
:10186000ea8f540005003a000178a30003003a0013
:1018700088007800d0002000e6ff070018009000e4
:10188000d8009000810f50000b0032000000e800eb
:10189000100498001800780009487800000ce8004f
:1018a00011c0b300a08b200001487800ea8f5400db
:1018b00018003a00050037008800780009407800d9
:1018c00017000700800478001200370038009000ed
:1018d0000088a3000f00320018019000a8009000bb
:1018e0004800900052fb070098009000810f5000c4
:1018f00004003200380090000003b3003004980068
:101900008084eb000000eb00100498002800900099
:10191000000c7800090078004f04be0000000600ab
:101920000200fa00889fbe00a0ff9f00010478001b
:10193000380090000068a30033003a00e200600025
:1019400005003a000003b300300498001104980029
:101950000080eb002e003700d80490000900e00062
:1019600006003a0012002000e68057004800900070
:101970002ffb07001904980023003700a8009000ef
:101980000100e00008003a00d18b200021049800fb
:10199000010c7800210020005104980011049800e7
:1019a0000030a0003004980018019000a8009000ba
:1019b000480090001efb0700280090008080eb008c
:1019c00011049800aff8970001487800000ce80077
:1019d0002ff89700ea4f50000b003a0038009000b3
:1019e0000088a3000800320018019000a8009000b1
:1019f000480090000efb07000000eb001004980068
:101a0000a8009000010c7800aff897000100fb00df
:101a10004f04be000080fa000000060000c0da009b
:101a200000000600020ab900001bb9000200b8005d
:0c1a30008100420081004300000006001d
:020000040000fa
:101a3c0014000000496e0000697400006961000028
:101a4c006c6900007a610000746900006f6e000020
:101a5c00204300006f6d0000706c00006574000086
:101a6c00650d00000a00000045720000726f000056
:101a7c0072200000436100006c630000756c000074
:101a8c0061740000696e0000672000005075000052
:101a9c006d700000696e0000672000005365000047
:101aac00636f00006e640000730d00000a000000fc
:101abc00416200006f75000074200000746f00001c
:101acc002052000045530000455400002000000047
:101adc0021200000000d00000a20000052650000cb
:101aec007365000074740000696e0000670d0000df
:101afc000a0000000d0a0000204500006e74000072
:101b0c0065720000696e00006720000044650000eb
:101b1c0065700000205300006c65000065700000cb
:101b2c002044000069640000206e00006f74000007
:101b3c0020770000616b00006520000075700000cc
:101b4c0020660000726f00006d20000044650000ec
:101b5c0065700000205300006c650000657000008b
:101b6c000d0a0000000d00000a200000456e000068
:101b7c0074650000726900006e670000204400006c
:101b8c006565000070200000536c00006565000066
:101b9c007020000072650000636500006e74000028
:101bac006c790000207700006f6b0000652000004e
:101bbc007570000020660000726f00006d20000040
:101bcc004465000065700000205300006c65000047
:101bdc00657000000d0a0000000000002564000084
:101bec000056000065720000736900006f6e000003
:101bfc00203300002e3100000d0a000000440000cc
:101c0c006179000020000000203a00002000000054
:0c1c1c002e0000000d0a00000000000077
:020000040000fa
:101c28000000fa002023ef0021e3a9000119800039
:101c3800f0cf2f0000806000001988000119800093
:101c4800000e200001007000001988002043a90040
:101c58002023a9002223ef002119800000fc2f0077
:101c6800008060002019880021198000f00f2e00e4
:101c7800808060000030200001007000201988007a
:101c880028e3a9003023ef002ca3a900c062a80014
:101c98004119800000ff2f00008060005000b30051
:101ca800401988000080fa00000006000200fa00cf
:101cb800000f78001e007800e40f500007003a007b
:101cc800c842a8004119800000ff2f000080600072
:101cd8000020a000401988000000000021e3a800af
:101ce8002023a800000000000019800061006000a7
:101cf8000000e000fcff320021e3a900001880008a
:101d08000080fa00000006000600fa00881f78002c
:101d18000000eb00000f7800ca82a800a000200095
:101d2800a502070020000700000f78001e007800b9
:101d3800cf80de0030fb070002002000632d240066
:101d4800dafa070092c22500f3e023007afa0700c6
:101d58001007980021079800ca82a90018c0b3008c
:101d6800d2cc2c00c30824001e009000ae009000c6
:101d78001ffb07000000e000010035000044eb00f5
:101d88000804e000030032001000200090408800a2
:101d9800020037001228ef00c282a9004f04780021
:101da8000080fa00000006000000fa0021e3a80005
:101db8002023a800000000000019800061006000d6
:101dc8000000e000fcff320021e3a90000188000b9
:101dd8000080fa00000006000200fa00004f7800b8
:101de8001e00fb000000e00001003d006f00400005
:101df8004480de00004078006a00b90000007800e6
:101e0800804078001e01fb00f000280000006100ff
:101e18000000e00004003d000000e90002ff2f0080
:101e2800000071000000e8000040780000c0400099
:101e38000080fa00000006000200fa00004f780057
:101e48001e01fb00706626000090b900c288de0003
:101e58004f90de00008050000040780080407800fd
:101e6800400020008008dd001e00fb00726626008e
:101e78000281b900c299de004f81de000281510063
:101e88006a11b90002017800020050000040780091
:101e980000c040000080fa00000006000600fa00ba
:101ea800200798002e0090004480de006f0f60002d
:101eb8002e0090006f006000100798001e00780048
:101ec8006a00b900800078001e0090000080400081
:101ed8000080fa00000006000600fa0020079800bb
:101ee8002e0090004c00de00000f78002e009000bd
:101ef8004880de006f006000100798001e00780020
:101f08006a00b900800078001e0090000080400040
:101f18000080fa00000006000800fa00881f780018
:101f2800004f7800114798002247980033479800df
:101f38004447980055479800664798005705200081
:101f4800373b8800a70a2000373b880027a6a8004f
:101f580027a6a80031318000003020000100700061
:101f6800303188006e409000b3ff07000000fb008e
:101f7800203188004e409000afff07000004fb00ae
:101f88005e409000acff07000000fb004800dd0049
:101f980000004400203188002e409000a6ff070072
:101fa8000004fb003e409000a3ff07000000fb0078
:101fb8004800dd0000004400203188001e40780001
:101fc8009dff07000004fb001e4090009aff0700d9
:101fd8000000fb004800dd000000440020318800bc
:101fe80027e6a80027a6a9004f0478000080fa0079
:101ff800000006000600fa000041eb00024f7800de
:1020080033318000f2cf2f00028161000290a000de
:102018003231880027a6a900223180008001eb0018
:1020280012079800230798001e019000ae01900047
:10203800481add004810de0000007200c898de0073
:10204800004078007f4f60001e40780062ff070064
:102058000000fb000080fa00000006000600fa00fd
:102068000040eb00004f780031318000f0cf2f00a6
:10207800008060000090a0003031880027a6a900e9
:10208800203180008000eb0010079800210798009d
:102098001e00900000407800f1c3b300014f6000bb
:1020a8001e4078004cff07000000fb000080fa008b
:1020b800000006000600fa000040eb00004f780020
:1020c80031318000f0cf2f00008060000080a00038
:1020d8003031880027a6a900203180008000eb005d
:1020e80010079800210798001e009000004f780004
:1020f8001e40780038ff07000000fb000080fa004f
:10210800000006000600fa000041eb00024f7800cc
:1021180033318000f2cf2f00028161003231880014
:1021280027a6a900223180008001eb001207980041
:10213800230798001e019000ae019000481add00a8
:102148004810de0000007200c898de00004f7800da
:102158001e40780020ff07000000fb000080fa0006
:10216800000006000600fa000040eb00004f78006f
:1021780031318000f0cf2f000080600030318800be
:1021880027a6a900203180008000eb0010079800e6
:10219800210798001e009000004f78001e4078002c
:1021a8000dff07000000fb000080fa000000060099
:1021b8000400fa00100798000000eb00000f7800f8
:1021c800010037001e0fe8001e0078009e009000f6
:1021d80000804000104078000004e000f9ff3a0059
:1021e8001e0078000080fa00000006000600fa00d1
:1021f800200798000000eb00000f78000000eb00bb
:10220800100798002e009000e9ff070010079800bb
:102218000d00370000000000111180000020200090
:10222800008060000000e000fbff3a001e0078001c
:10223800ae00900000804000104078000000fb00d5
:10224800201188001e0fe8001e0090009e007800f4
:10225800808f5000efff35000080fa000000060074
:102268003e00fa0031408000010f78006600370018
:102278001e007800000040000000e80010079800e9
:102288001e00900087000700200798001e0090009d
:102298000000e800100798001e0090008100070069
:1022a800cf80de0030079800410798003e0090007c
:1022b800ce0090004206200003002000bdf9070070
:1022c80050079800de009000400620000088b90002
:1022d80000007800cf80de003e019000ce01900023
:1022e800000051008180590030079800410798008c
:1022f8003e009000ce009000a200200003002000c5
:10230800acf90700600798003e019000ee009000cd
:1023180060ff2f000088b90000007800000041002d
:1023280070079800e00220000e0040009e1f780011
:1023380041df2800811f78006ffa0700e487570003
:1023480070004700ae009000811f780041df280030
:10235800811f780068fa0700e487570070df2800bb
:10236800a2ff070050e02800a0ff0700e0022000bd
:102378000e0040009dff0700a0e028009bff07001b
:102388007000470099ff0700e0e0280097ff07006a
:102398007f004700de009000811f780041df2800a1
:1023a800811f780054fa0700e48757007f00470030
:1023b8008eff07007f004700ee009000811f780025
:1023c80041df2800811f78004bfa0700e487570097
:1023d8007f00470085ff07007f004700fe00900050
:1023e800811f780041df2800811f780042fa07002a
:1023f800e48757007f0047007cff070000e12800c2
:102408007aff07001e0fe9001e0078000000e000b8
:1024180097ff3d000080fa00000006000600fa0061
:10242800100798002107980040002400003b88000e
:10243800f00720000040780032e0b70001e02f00ec
:102448001e0090000000400000017800f01f2000ee
:1024580000006100008f4000ae0090001e00780070
:102468000108bb000500fc0050052000303b880037
:10247800a00a2000303b880061e7a80000000000a7
:102488000000000000000000013b80000000280060
:10249800008060000000e000fbff3a000080fa00c6
:1024a800000006000600fa0020079800f007200048
:1024b8000040780032e0b70001e02f002e009000c5
:1024c8000000400000017800f01f200000006100bb
:1024d800008f40001e0078001000ba001007980016
:1024e8001e0090000080fa00000006000800fa00b4
:1024f8002007980031079800be009000010f78006f
:102508002e0090004200dd0020079800f007200010
:102518000040780032e0b70001e02f002e01900063
:10252800f01f2000000061000080400010079800a4
:102538001e0090009000ba001e0078000108780084
:102548001e8fe8002e0090000080e8002007980009
:10255800f00720000040780032e0b70001e02f00cb
:102568002e019000f01f2000000061000080400054
:10257800100798001e0090009000ba001e00780016
:10258800010878000080fa00000006000800fa0040
:102598002007980031079800be009000010f7800ce
:1025a80040002400003b88002e0090004200dd001f
:1025b80020079800f00720000040780032e0b700bc
:1025c80001e02f002e019000f01f200000006100a4
:1025d80000804000100798001e00780090007800e6
:1025e8001e0090000108bb000500fc0050052000fb
:1025f800303b8800a00a2000303b880061e7a80033
:10260800000000000000000000000000013b800006
:1026180000002800008060000000e000fbff3a0096
:102628001e8fe8002e0090000080e8002007980028
:10263800f00720000040780032e0b70001e02f00ea
:102648002e019000f01f2000000061000080400073
:10265800100798001e007800900078001e00900077
:102668000108bb000500fc0050052000303b880035
:10267800a00a2000303b880061e7a80000000000a5
:102688000000000000000000013b8000000028005e
:10269800008060000000e000fbff3a000080fa00c4
:1026a800000006000000fa006000b8001040880032
:1026b80021408800218020000000eb00b3ff0700c4
:1026c8002180200010002000b0ff0700218020009a
:1026d80020002000adff07002180200030002000ee
:1026e800aaff07002180200040002000a7ff070064
:1026f8002180200050002000a4ff07002180200036
:1027080060002000a1ff0700218020007000200049
:102718009eff070021802000800020009bff07000b
:10272800218020009000200098ff070021802000d1
:10273800a000200095ff070021802000b0002000a5
:1027480092ff070021802000c00020008fff0700b3
:1027580021802000d00020008cff0700218020006d
:10276800e000200089ff070021802000f000200001
:1027780086ff0700218020000001200083ff07005a
:10278800218020001001200080ff07002180200008
:10279800200120007dff070021802000300120005b
:1027a8007aff0700218020004001200077ff070002
:1027b8000080fa00000006000200fa00000f78000e
:1027c800500e2000600888000d0037000621ef0039
:1027d80084e0a90011e1a8000000000021048000a5
:1027e80000082000008060000000e000fbff3200cd
:1027f80011e1a9001e0078000000e900000f780030
:102808001e0078000000e000f0ff3c000080fa00a5
:10281800000006000000fa00871f7800881f780073
:102828000500fc0057052000373b8800a80a200057
:10283800383b880027a6a8004f047800cf0378000b
:10284800002022003031880023c6a90023e6a90011
:1028580027e6a80027a6a90011068000f08f2f0000
:10286800008060000080a00010068800110680002b
:10287800f08f2f00008060000080a0001006880004
:102888008bc0a9009bc0a8000080fa0000000600c9
:102898000200fa00000f7800871f7800881f780070
:1028a8000500fc0057052000373b8800a80a2000d7
:1028b800383b880027a6a8004f047800cf0378008b
:1028c80027e6a8001e007800004078006f406000ee
:1028d8000080fb006f0060004a00dd0012318000bc
:1028e800f13f2c0081006100010070001031880068
:1028f80011318000f0cf2f00008060000090a00010
:10290800103188002026ef002026ef002026ef0057
:102918002266ef0023e6a80027a6a9000040fe00d3
:1029280000000000871f7800881f78000500fc0061
:1029380057052000373b8800a80a2000383b88004c
:1029480027a6a8004f047800cf03780027e6a9003f
:1029580031318000f0cf2f000080600030318800d6
:102968002426ef0027a6a9000080fa000000060030
:102978000000fa00013a8000000028000080600092
:102988000000e0000100320041e7a900013a8000a0
:1029980000002400008060000000e0000100320018
:1029a80041c7a900013a80000008200000806000ab
:1029b8000000e0000100320040e7a900013a800071
:1029c80000042000008060000000e00001003200e8
:1029d80040c7a900003a8000700060000000e000d5
:1029e800010032004087a900003a800068006000ba
:1029f8000000e000010032004067a900003a8000b2
:102a0800640060000000e000010032004047a900b7
:102a1800003a8000620060000000e000010032001f
:102a28004027a900003a8000610060000000e00033
:102a3800010032004007a9000080fa0000000600eb
:102a48000000fa0021058000f0ff280000806000e7
:102a580000e0a000200588000021ef00000022000f
:102a68002008880021088000f0fc2f00008060000a
:102a78000050a000200888008460a9009460a90084
:102a88000080fa00000006000000fa000621ef00ae
:102a9800000022008008880084e0a90094e0a900d2
:102aa80011e1a9000080fa00000006000000fa0009
:102ab8002222ef002062a800c000200040118800f8
:102ac80021e2a8002342a8000080fa0000000600c6
:102ad8000000fa000080eb00601988000080eb001d
:102ae800001688000080eb0040168800c8e2a900a4
:102af800c042a900c242a800c882a900ca82a9008f
:102b0800c082a900c282a9006100a8009660a8003e
:102b180043fc0700e5ff0700c9ff0700daff0700cd
:102b28008460a9000021ef0005e1a80080022000d0
:102b38001008880000000000200480006800600081
:102b48000000e000fcff320016c1b30095c0b300de
:102b580094c1b30063c0b300c2c0b3008040eb00af
:102b68000040eb00ecfc07003cfd070050408800eb
:102b780050408000404088004efd070060408800bb
:102b880060408000704088005ffc07002e28ef003e
:102b98000080fa00000006000200fa001000200081
:102ba800000f780080132000600888000621ef00dd
:102bb80084e0a90011e1a800080037002104800082
:102bc80000082000008060000000e00003003200e0
:102bd8000000eb00000f780084e0a90010168000c8
:102be800620060000000e000030032001e00780070
:102bf8000000e000f1ff3a000621ef00080037006e
:102c08002104800000082000008060000000e0002f
:102c1800030032000000eb00000f780084e0a900f8
:102c280010168000620060000000e00003003a0017
:102c38001e0078000000e000f1ff3a000621ef00d6
:102c48000800370021048000000820000080600090
:102c58000000e000030032000000eb00000f7800e5
:102c680084e0a90010168000620060000000e00007
:102c7800030032001e0078000000e000f1ff3a0077
:102c880011e1a90084e0a9001e0078000080fa0084
:102c9800000006000000fa00c242a900c282a80093
:102ca800ca82a900803b80000080eb00803b88003e
:102cb800903b80000080eb00903b880059e7a8001b
:102cc800000000000040fe000080fa00000006003e
:102cd8002800fa00889fbe008a9fbe0024ff0700d4
:102ce800213a8000f08f2f0000806000203a880091
:102cf80077ff070000d228003cfd07006000b800fd
:102d0800008fbe000000eb00200798000000eb00d9
:102d1800000f98000e089000e2fd07003040880080
:102d2800304080000000e0000300340030408000a4
:102d38000000e800304088008460a9000021ef000e
:102d480005e1a800808529001008880003003700e5
:102d5800000000000100370000000000d5fc07005b
:102d6800604088006140800070408000808f500083
:102d780003003200e4fb07006040800070408800d8
:102d8800904080000000e0000e003200a04080006b
:102d98000000e800a0408800101680007000600065
:102da8000000e00006003a00a0408000e30f500059
:102db80003003400c282a8001428ef000100370085
:102dc800c282a900a5fc070050408800514080003d
:102dd80040408000808f50001f0032002e28ef00f6
:102de8000000eb00100f9800304080008000780051
:102df8001e08900089fd0700304080000000400058
:102e08000000e800100f98002e0090008000780065
:102e18001e08900081fd07000000eb0020079800c5
:102e28001e0890000000e800100f98001e007800af
:102e3800800078001e08900078fd07006000b80048
:102e4800008fbe00304080000000e800304088005d
:102e580050408000404088004fff07000000e0001d
:102e680025003200704180000000e000c0003a00f8
:102e78008460a9000021ef0005e1a90010002000ee
:102e8800704188008bfc0700804188003131800048
:102e9800f0cf2f00008060003031880027a6a900fd
:102ea800203180008000eb00200f9800310f98003f
:102eb8002e089000005f98000e589000c6fb07008f
:102ec8000000fb00c04188002e089000be0890005a
:102ed8004809dd004804de0008047100c88cde00e3
:102ee800185f98001e589000bbfb07000000fb000d
:102ef800a04188009e00370070418000e10f50001b
:102f08009b003a0024ff07000000e00098003a0008
:102f180005e1a80067fc0700904188003131800076
:102f2800f0cf2f00008060003031880027a6a9006c
:102f3800203180008000eb00500f9800610f98004e
:102f48005e089000605f98006e589000a2fb070032
:102f58000000fb00d04188005e089000ee08900059
:102f68004809dd004805de000a057100c88dde004d
:102f78007a5f98007e58900097fb07000000fb00de
:102f8800b0418800d1418000c041800000805000dd
:102f9800300798003e0090000000e00006003d0069
:102fa8003e009000c003b00030079800b041800098
:102fb8000000e900b0418800b1418000a0418000d4
:102fc80000805000400798004e0090000000e0008c
:102fd80006003d004e009000c003b0004007980076
:102fe800904180000000e9009041880091418000f4
:102ff8008041800000805000500798005e009000db
:103008000000e00003003d005e00900078004000f2
:1030180050079800ce009000c00320000088b90037
:10302800800078003e00900000804000cf80de00e5
:1030380000179800111798009e109000803e2000fd
:103048000088b900000178000e1090006000b900f7
:1030580000007800000141008e109000803e2000a2
:103068000008b800010141008200780000179800ac
:103078001117980000179800111798000e1190006a
:103088009e11900080a92e0061032000800f51003e
:10309800818f590002003400a0d3280053fc070098
:1030a8009e00900000e120000088b900000178002f
:1030b8001e0078006000b90000007800000141009f
:1030c8009e00780000e120000008b80001014100de
:1030d8008200780060079800710798006e019000e0
:1030e800fe0190000e1090009e109000020040001b
:1030f8008380480060079800710798006e0190006f
:10310800fe01900000e82e0061032000800f5100ae
:10311800818f59000b0034005e0090000000e80029
:10312800500798006e019000fe01900000182100e1
:1031380091fc2f000200400083804800600798003f
:10314800710798006e009000fe00900002e12000d8
:103158000300200017f60700008fbe005e009000f5
:10316800ae00900000804000200798002e28ef0055
:103178003ec8bf000004e00027003200111680009e
:1031880000042000008060000000e0002000320001
:10319800004280000000e8000042880000428000f1
:1031a800e50f500002003a00e0d528000ffc0700a8
:1031b80000428000e50f500002003400e0d62800ed
:1031c8000afc070000428000ea0f50001200340099
:1031d80010d7280005fc07006000b800008fbe006b
:1031e8000000eb00200798004028ef000628ef00b9
:1031f8000000eb0020179800304080008000780025
:103208002e10900085fc07003e68ef000200370092
:103218004028ef003e68ef00e04180000000e00039
:10322800130032003c28ef003040800000004000ce
:103238000000e800301798002e0090008000780009
:103248003e10900075fc07003e1090000000e8005a
:10325800301798001e007800800078003e1090001b
:103268006efc0700fefb070010c0b3003ee8b70085
:103278007041800070418800200480006800600070
:103288000000e0000c003200704180000000e00007
:1032980009003a00013a80000040200000806000e8
:1032a8000000e00004003a0000d82800cffb070027
:1032b80078fe0700a9fe3700704180000000e0009a
:1032c800a3fe3a00013a8000004020000080600020
:1032d8000000e000a0fe32005807a900d13a8000a3
:1032e800700f200000806000d03a880000000000c5
:1032f800000000000000000090db2800bbfb070076
:0833080064fe070095fe37008a
:020000040000fa
:103310003c0800000600000000000000000800005b
:103320003c000000000000004208000052000000c5
:1033300002000000303132003334350036373800b7
:1033400039414200434445004600300031323300e9
:1033500034353600373839006162630064656600d1
:1033600000286e00756c6c00290000000100000050
:10337000000a00000000640000000000e8030000f4
:10338000001027000000a0008601000040420f004e
:103390000080960098000000e1f5050000ca9a0040
:1033a0003b0000009408000026000000020000001e
:1033b000bb08000000bb080009000000000200007c
:1033c000bd08000000bd08000e0201000000000062
:1033d00000000000000000000602020000000000e3
:1033e00094080000ba080000060000000000000079
:1033f000c008000002000000020000000100000000
:0434000000000000c8
:020000040000fa
:0200000400fffb
:04fc00000000000000
:020000040000fa
:0200000401f009
:04000000ffff0000fe
:020000040000fa
:0200000401f009
:04000800ffff0000f6
:020000040000fa
:0200000401f009
:04000c0006000000ea
:020000040000fa
:0200000401f009
:04001000bb00000031
:020000040000fa
:0200000401f009
:040014005f00000089
:020000040000fa
:0200000401f009
:04001800fb000000e9
:020000040000fa
:0200000401f009
:04001c00c30000001d
:020000040000fa
:0200000401f009
:04002000d600000006
:00000001FF
