:020000040000fa
:080000000002040000000000f2
:020000040000fa
:04000800c01900001b
:020000040000fa
:04000c00c019000017
:020000040000fa
:04001000c019000013
:020000040000fa
:04001400c01900000f
:020000040000fa
:04001800c01900000b
:020000040000fa
:04001c00c019000007
:020000040000fa
:04002000c019000003
:020000040000fa
:04002400c0190000ff
:020000040000fa
:04002800c0190000fb
:020000040000fa
:04002c00c0190000f7
:020000040000fa
:04003000c0190000f3
:020000040000fa
:04003400c0190000ef
:020000040000fa
:04003800c0190000eb
:020000040000fa
:04003c00c0190000e7
:020000040000fa
:04004000c0190000e3
:020000040000fa
:04004400c0190000df
:020000040000fa
:04004800c0190000db
:020000040000fa
:04004c00c0190000d7
:020000040000fa
:04005000c0190000d3
:020000040000fa
:04005400c0190000cf
:020000040000fa
:04005800c0190000cb
:020000040000fa
:04005c00c0190000c7
:020000040000fa
:04006000c0190000c3
:020000040000fa
:04006400c0190000bf
:020000040000fa
:04006800c0190000bb
:020000040000fa
:04006c00c0190000b7
:020000040000fa
:04007000c0190000b3
:020000040000fa
:04007400d21900009d
:020000040000fa
:04007800c0190000ab
:020000040000fa
:04007c00c0190000a7
:020000040000fa
:04008000c0190000a3
:020000040000fa
:04008400c01900009f
:020000040000fa
:04008800c01900009b
:020000040000fa
:04008c00c019000097
:020000040000fa
:04009000c019000093
:020000040000fa
:04009400c01900008f
:020000040000fa
:04009800c01900008b
:020000040000fa
:04009c00c019000087
:020000040000fa
:0400a000c019000083
:020000040000fa
:0400a400c01900007f
:020000040000fa
:0400a800c01900007b
:020000040000fa
:0400ac00c019000077
:020000040000fa
:0400b000c019000073
:020000040000fa
:0400b400c01900006f
:020000040000fa
:0400b800c01900006b
:020000040000fa
:0400bc00c019000067
:020000040000fa
:0400c000c019000063
:020000040000fa
:0400c400c01900005f
:020000040000fa
:0400c800c01900005b
:020000040000fa
:0400cc00c019000057
:020000040000fa
:0400d000c019000053
:020000040000fa
:0400d400c01900004f
:020000040000fa
:0400d800c01900004b
:020000040000fa
:0400dc00c019000047
:020000040000fa
:0400e000c019000043
:020000040000fa
:0400e400c01900003f
:020000040000fa
:0400e800c01900003b
:020000040000fa
:0400ec00c019000037
:020000040000fa
:0400f000c019000033
:020000040000fa
:0400f400c01900002f
:020000040000fa
:0400f800c01900002b
:020000040000fa
:0400fc00c019000027
:020000040000fa
:04010000c019000022
:020000040000fa
:04010400c01900001e
:020000040000fa
:04010800c01900001a
:020000040000fa
:04010c00c019000016
:020000040000fa
:04011000c019000012
:020000040000fa
:04011400c01900000e
:020000040000fa
:04011800c01900000a
:020000040000fa
:04011c00c019000006
:020000040000fa
:040120006a1700005a
:020000040000fa
:04012400c0190000fe
:020000040000fa
:04012800c0190000fa
:020000040000fa
:04012c00c0190000f6
:020000040000fa
:04013000c0190000f2
:020000040000fa
:04013400c0190000ee
:020000040000fa
:04013800c0190000ea
:020000040000fa
:04013c00c0190000e6
:020000040000fa
:04014000c0190000e2
:020000040000fa
:04014400c0190000de
:020000040000fa
:04014800c0190000da
:020000040000fa
:04014c00c0190000d6
:020000040000fa
:04015000c0190000d2
:020000040000fa
:04015400c0190000ce
:020000040000fa
:04015800c0190000ca
:020000040000fa
:04015c00c0190000c6
:020000040000fa
:04020800c019000019
:020000040000fa
:04020c00c019000015
:020000040000fa
:04021000c019000011
:020000040000fa
:04021400c01900000d
:020000040000fa
:04021800c019000009
:020000040000fa
:04021c00c019000005
:020000040000fa
:04022000c019000001
:020000040000fa
:04022400c0190000fd
:020000040000fa
:04022800c0190000f9
:020000040000fa
:04022c00c0190000f5
:020000040000fa
:04023000c0190000f1
:020000040000fa
:04023400c0190000ed
:020000040000fa
:04023800c0190000e9
:020000040000fa
:04023c00c0190000e5
:020000040000fa
:04024000c0190000e1
:020000040000fa
:04024400c0190000dd
:020000040000fa
:04024800c0190000d9
:020000040000fa
:04024c00c0190000d5
:020000040000fa
:04025000c0190000d1
:020000040000fa
:04025400c0190000cd
:020000040000fa
:04025800c0190000c9
:020000040000fa
:04025c00c0190000c5
:020000040000fa
:04026000c0190000c1
:020000040000fa
:04026400c0190000bd
:020000040000fa
:04026800c0190000b9
:020000040000fa
:04026c00c0190000b5
:020000040000fa
:04027000c0190000b1
:020000040000fa
:04027400c0190000ad
:020000040000fa
:04027800c0190000a9
:020000040000fa
:04027c00c0190000a5
:020000040000fa
:04028000c0190000a1
:020000040000fa
:04028400c01900009d
:020000040000fa
:04028800c019000099
:020000040000fa
:04028c00c019000095
:020000040000fa
:04029000c019000091
:020000040000fa
:04029400c01900008d
:020000040000fa
:04029800c019000089
:020000040000fa
:04029c00c019000085
:020000040000fa
:0402a000c019000081
:020000040000fa
:0402a400c01900007d
:020000040000fa
:0402a800c019000079
:020000040000fa
:0402ac00c019000075
:020000040000fa
:0402b000c019000071
:020000040000fa
:0402b400c01900006d
:020000040000fa
:0402b800c019000069
:020000040000fa
:0402bc00c019000065
:020000040000fa
:0402c000c019000061
:020000040000fa
:0402c400c01900005d
:020000040000fa
:0402c800c019000059
:020000040000fa
:0402cc00c019000055
:020000040000fa
:0402d000c019000051
:020000040000fa
:0402d400c01900004d
:020000040000fa
:0402d800c019000049
:020000040000fa
:0402dc00c019000045
:020000040000fa
:0402e000c019000041
:020000040000fa
:0402e400c01900003d
:020000040000fa
:0402e800c019000039
:020000040000fa
:0402ec00c019000035
:020000040000fa
:0402f000c019000031
:020000040000fa
:0402f400c01900002d
:020000040000fa
:0402f800c019000029
:020000040000fa
:0402fc00c019000025
:020000040000fa
:04030000c019000020
:020000040000fa
:04030400c01900001c
:020000040000fa
:04030800c019000018
:020000040000fa
:04030c00c019000014
:020000040000fa
:04031000c019000010
:020000040000fa
:04031400c01900000c
:020000040000fa
:04031800c019000008
:020000040000fa
:04031c00c019000004
:020000040000fa
:04032000c019000000
:020000040000fa
:04032400c0190000fc
:020000040000fa
:04032800c0190000f8
:020000040000fa
:04032c00c0190000f4
:020000040000fa
:04033000c0190000f0
:020000040000fa
:04033400c0190000ec
:020000040000fa
:04033800c0190000e8
:020000040000fa
:04033c00c0190000e4
:020000040000fa
:04034000c0190000e0
:020000040000fa
:04034400c0190000dc
:020000040000fa
:04034800c0190000d8
:020000040000fa
:04034c00c0190000d4
:020000040000fa
:04035000c0190000d0
:020000040000fa
:04035400c0190000cc
:020000040000fa
:04035800c0190000c8
:020000040000fa
:04035c00c0190000c4
:020000040000fa
:100400008f9320000edf20000e0188000000000006
:10041000000020000000e000020032000001200087
:10042000200288000c000700c0d32100010020003a
:1004300011000700000020000000e0000200320070
:100440000000020000000000fc1902000000000093
:100450000040da000000fe004440a900000820002f
:100460000000e0000300320000002000a00188002e
:100470004440a80000000600910188008000780038
:100480000000eb0015003700e280400032a0b4000d
:100490009101ba00e280400032a0b4009102ba009b
:1004a000e280400032a0b4000002eb00472bde00e7
:1004b000f507b200602ce10004003a000059eb009f
:1004c0008301e900fdff3e00040037006128e100e0
:1004d000010032000082eb000b00070011c3ba00dc
:1004e0001101ba000604e00003003a000200e00037
:1004f000e5ff3a0000000600f607b200960188000a
:1005000082007800f5ff37003159ba008301e90015
:100510000c0032002159ba008301e90008003200c2
:100520000400e00003003a00e280400032a0b40082
:10053000f5ff370011d9ba008301e900faff3a004c
:100540008100e800e180400032a0b4000000060015
:100550000a00fa00e20f500020003e00b04980007f
:10056000e10f5000060032008023200045232000c8
:1005700023232000042320000000e00004003a00b0
:100580008022200045222000232220000422200077
:10059000060028001403630003003a0006087800f0
:1005a00000002800140a700013a8a30001003a00fc
:1005b00013a0a00002007800050037001388a300f4
:1005c000feff32003102fb00840a78000000e900df
:1005d0000000e000f9ff3a00080037003300200077
:1005e000b3bf9f00c0bf9f00d1bf9f00e2bf9f006d
:1005f0006a805700870507006fb9970002007800ee
:100600000080fa000000060003f0a200889fbe00f0
:100610008a9fbe008c1f7800d5000700dc003300e5
:100620006450e1004f0032006420e10052003200cb
:1006300003826c0007003b000905d0000306d000d0
:10064000820f54000c065d000200390002003200e7
:1006500089017800030678008582550004003d007a
:100660000003fd008103fd008502ea008b85420046
:10067000840f720002003b0060001000e080180050
:100680006011b8000005eb007a28e1000a0039008b
:1006900006007800c75ddd00f707b20087807500af
:1006a0002d003700828171000a0178006105600029
:1006b0008180d1000080d3008502e900f9ff3b0072
:1006c000060440008784480002003b0060041400d8
:1006d000e0841c000988a300070032008a817100b1
:1006e00082817100610164008904d1000884d30013
:1006f0008b05e800170037000978a30013003a00c3
:100700000b00e000130034008b05e90008044400ee
:1007100089844c000a4474000978a3000d003a0053
:100720000b00e000070034008b05e90008044400da
:1007300089844c0001003a000b0020000978a300d6
:10074000f7ff32000001eb000200370082817100e8
:100750000a017800600007000cf0a70001f0a0007b
:10076000940037006420e10002003a00838f6c009f
:10077000940033000801be000200be008d00370067
:10078000889fbe008a9fbe008c1f780078000700fb
:100790007f00330003866c006450e1002e003200bd
:1007a0006420e100330032006150e1002f0032008c
:1007b0006120e1003100320085855500eb07b00073
:1007c0000900200008042000050037000804440048
:1007d00089844c000a0031000603430087834b00e4
:1007e0000001530081815b00f8ff33000203be006b
:1007f0000800a0000804440089844c00f6ff39007a
:10080000c639dd00830173000100320013002000af
:100810008904d1000884d3000998a30005003200a0
:100820000800a7000300a0008904d1000884d300b9
:100830008b05e8008904d1000884d3000001eb0097
:100840000281d2002400070001f0a1000cf0a700f3
:1008500001f0a000570037006420e1005900320089
:100860000801be000200be00f7ff37006120e10072
:10087000540032006000b800f3ff37000000200091
:1008800001f82700f0ff3700839f68000100e000b7
:1008900002003d0060001000e08018000300e0004e
:1008a00002003d0060011100e081190048000700ce
:1008b0004f00e00002003b0060001000e0801800e4
:1008c0000000060014002000510037004f89de00b0
:1008d00082017800690037008100200061805500a6
:1008e0000b003d000b00200061fe2f000100e10025
:1008f0001d00340082817100610164008904d1000f
:100900000884d3000000e800faff3a0071002000dc
:100910006100640003007000020060000900320002
:1009200061044400e0844c000988a5000500320001
:100930008b05e8006808e10002003a008904d10054
:100940000884d300f20f20000258e10005003d00aa
:10095000c75ddd00f907b2008980750008007800e6
:10096000000006000bf827008b007800000005004f
:100970000004be00800007000003be000405be00a6
:100980000200be007c000700844f750000000600d6
:100990000200be006450e100050036006420e10062
:1009a000020036000968a30001003a000800be00fa
:1009b0000160a0004f0678004f05be004f04be0046
:1009c00000000600f0ff2f00f1ff2700f9ff3700bd
:1009d0006022b800060220000000d0008180d20012
:1009e0000482d2008582d2000000a00002025200e0
:1009f00083825a00030031000202420083824a00cf
:100a00000000a1000603e900f3ff3a000000060021
:100a1000889fbe008a9fbe00841f7800d4ff070015
:100a20004f00780011003300f0ff2f00838f6c001f
:100a300006003b00040565000a00a7000800370017
:100a400009f0a6001000200008003700820f5400b3
:100a5000838f5c00030039001000200001003e007d
:100a60000000200009f0a7000000ea004f05be00ca
:100a70004f04be000000e00000000600881f780060
:100a8000030478000300e00007003d006000100050
:100a9000e080180060011900e081190002003b00ad
:100aa00001f02d00030037000400070008f0a70044
:100ab00001f0a0004f04780000000600889fbe00ef
:100ac0008a9fbe00008270000402710004827100df
:100ad000260032000004be000200be006011b80013
:100ae0006b092000950220000182cf000a00390026
:100af0000541b1000082cf00070039000541b10077
:100b00000982cf00040039000541b1000882cf00fe
:100b1000010039000541b1000542520012003200c7
:100b20000a003b0082817100610164008100d100f4
:100b30000080d3008984d3000884d3008b05e800ab
:100b40000442e800f7ff3a000700370008044400b9
:100b500089844c0000004800818048008b05e90032
:100b60000442e900f9ff3a005bff07004f05be00b1
:100b70004f04be0000000600c70ade00f107b20005
:100b8000f50fb20008003200e1cf4200020032004f
:100b90000170a00024000500810f700001003200e8
:100ba0000408050044000500810f700002003a00af
:100bb000140005008502e9000000400081c04800e3
:100bc000fcff3b000170a0002400050080017800bc
:100bd00002003700b15978000201e9000200e0008c
:100be000fcff3a0000000600000178008201780056
:100bf000030178003204e000fcff3a003141780044
:100c0000825978000204e000fcff3a000000060070
:100c1000800078003104e000feff3a000080ea0026
:100c200000804000000006000c00fa00889fbe0013
:100c300000047800f0ff2700d0bf9f008004eb0085
:100c400099bf9f0088bf9f00a8bf9f00200c200075
:100c5000b0bf9f0078815700cfb0970070805700d9
:100c6000100007000fb89700094878008fb8970068
:100c7000088050004f04be000080fa00000006000b
:100c8000d0019000028151004240a90003003400cd
:100c900010017800014978000208e800010078009e
:100ca000000006002f02b000889fbe008a9fbe0091
:100cb0008c9fbe008e1f780080067800d1af9f0009
:100cc00092b79f000007eb0044033700dfa89700ae
:100cd0008100e800d1af9f0051c2b300814f5000a6
:100ce00003003a005fa897000006eb0011003700f0
:100cf000bd0090000000fb000168a3000700320067
:100d00000e017800800078000d007800dcff0700fd
:100d10000000e00005003a00300337008d00780045
:100d20003a030700e10f40002c0332000e07e800f1
:100d30002a0337008000780030417800d3c2b30026
:100d4000834f51000c00320007003c00edc1510000
:100d5000834f51000a003200ebc14100834f510024
:100d60000d003a000800370003c3b300834f510061
:100d700009003a00060037000c30a000edff3700f4
:100d80000c00a000ebff37000c10a000e9ff3700bb
:100d90000c20a000e7ff37000c18a3000100320070
:100da0000c00a1000c38a300010032000c20a100af
:100db0000200fb000003b100e90f50000c003e00f0
:100dc000010178000000eb006a00b900b201fb00ed
:100dd0000303b10000804100820078009201fb0013
:100de0000303b100e98f5100f7ff36000800370018
:100df0000000eb00a3c2b300834f510004003a008f
:100e00001fb197004200780092b79f008100e80070
:100e10008001eb00a3b79f00e2c2b300914f110025
:100e20000c003a000ce0a00064415100d14f1100c9
:100e30000300320001017800030278000900370046
:100e40001fb29700c402780094b79f00a5b79f0017
:100e50008100e80001017800090037006a22b9002a
:100e60000482410082007800b201fb000303b1005c
:100e7000e98f5100f9ff3600a4b79f00f5ff370056
:100e8000b2407800d2af9f00c3c6b30083cf5000fa
:100e9000250032000f003c0032c6b30082cf500064
:100ea000a000320004003c000104e000d002320047
:100eb0006b4151000f00370042c6b30082cf500093
:100ec000170032006541410082cf5000b3003a0064
:100ed0001300370032c7b30082cf50001f0032002a
:100ee00007003c006441510082cf500014003200e2
:100ef0000241e80082cf5000a8003a0013003700fa
:100f000052c7b30082cf5000ab00320063414100b2
:100f100082cf5000a1003a00a1d79f000d003700fa
:100f2000a1d79f00a6003700010120000c48a300b4
:100f300001003200010028000c867000d0ff37004d
:100f4000a1d79f000c60a0009d003700a1d79f0093
:100f50000c50a0000c70a00099003700a1d79f0092
:100f60009fb39700c700780097b79f00b1b79f0065
:100f70000100e00002003a0029862000b9b79f0076
:100f80003fb197008000eb00010037008100e800ce
:100f9000e2c178000304e000fcff3a00c1b79f0003
:100fa0002fb597000a00e00005003200cfb597008a
:100fb0008b0f5500020031008a007800c1b79f00f6
:100fc000cfb097000004eb00810f50000100360005
:100fd00001045000680666002b003a00110037003b
:100fe0003d0090000068a300070032000e01780069
:100ff000010220000d00780021ff07000000e00042
:1010000006003a00060037008d007800000220003c
:101010007e020700e10f4000010032000e07e800e9
:101020000804e9000800e000edff3a000084eb004e
:10103000150037003d0090000068a3000900320051
:1010400008007800b000fb00000478000e01780072
:101050000d0078000aff07000000e00008003a00d9
:101060000f003700880078003100fb000104780091
:101070008d00780065020700e10f40000800320093
:101080000e07e80006003700acb79f00080678009e
:101090003fb49700cfb497005fb59700efb59700c6
:1010a000090078008004e9000000e000e1ff3a0058
:1010b000b8b79f00c9b79f00dab79f00ebb79f0092
:1010c0000c0478002fb697000c00e00043023200b9
:1010d000110037003d0090000068a30007003200b7
:1010e0000e017800010220000d007800e4fe0700e8
:1010f0000000e00006003a00060037008d0078008e
:101100000002200041020700e10f40000100320010
:101110000e07e8000804e9000800e000edff3a00cf
:101120002e0237009fb297004504780095b79f00c4
:10113000cfc4de00614db9000802be000a03be0044
:101140004822de00c828dd0004827000a4d79f007a
:101150000c48a300090032000404e000070032003c
:10116000e14f420005003200b4d79f00c8d79f006e
:1011700022002000c2b79f0003003700b8d79f00ad
:1011800013002000c3b79f0024fd2f000f02420070
:101190000402e800b4b79f0081ff3700a1d79f0089
:1011a00025fd2f0085824700b5b79f00160020005f
:1011b000c6b79f007aff3700a1d79f000c0cb30081
:1011c0008c007800010cb20032003a000c00e00004
:1011d00005003d009fb097004105be004104be00e0
:1011e00091b79f00080037000c48a3000b003200a5
:1011f0001fb297004401be0094b79f000204be00d6
:101200004fcdde008a057800b8b79f00c9b79f00b0
:10121000dab79f00ebb79f00090037009fb4970033
:10122000c900780099b79f00610ab900612bb90025
:10123000b4b79f00c5b79f00d6b79f00e7b79f0020
:101240003fb49700cfb497005fb59700efb5970014
:10125000e00f5400e08f5c00e00f5d00e08f5d0068
:1012600022003d003c00b3006022b8006033b800ab
:101270000804520089845a000a055b008b855b00d4
:10128000b8b79f00c9b79f00dab79f00ebb79f00c0
:10129000160037000c00e00004003d001fb497006a
:1012a0004803be004802be00050037000c48a300fa
:1012b000050032001fb497004802be006033b8003a
:1012c00098b79f00050037009fb49700c9007800c9
:1012d00099b79f00610ab8006033b800b4b79f00a7
:1012e000c5b79f00d6b79f00e7b79f00afb2970082
:1012f0000500e0000d003a0016002000a6b79f0090
:101300003fb49700cfb497005fb59700efb5970053
:10131000e00f5400e08f5c00e00f5d00e08f5d00a7
:10132000020032008004eb00a9b79f000c05780092
:101330000a0cb2008ab79f0001042000810f5500fb
:101340003400320003003c000a00e00008003200d4
:1013500048003700010820008fb59700818f5500a5
:1013600014003200010c2000818f550041003a002a
:101370002287200011c0b3003202be003203be003b
:101380003fb49700cfb497005fb59700efb59700d3
:101390000440e10005c8e10006d0e10007d8e10003
:1013a000330039008140e800f4cf5000f2ff3a00ea
:1013b0002f00370011c0b3000401200005002000f9
:1013c0006033b8003fb49700cfb497005fb5970083
:1013d000efb597000440e10005c8e10006d0e10048
:1013e00007d8e10022003900490020000402d000a3
:1013f0008582d2000683d2008783d2008904e90067
:10140000faff3a008140e800f0cf5000edff3a00cb
:101410001700370011c0b300840020000500200031
:101420006033b8003fb49700cfb497005fb5970022
:10143000efb597000440e10005c8e10006d0e100e7
:1014400007d8e1000a003900390020000402d0006a
:101450008582d2000683d2008783d2008904e90006
:10146000faff3a008140e800f5cf5000edff3a0066
:10147000a1d79f002fd597008a00fb00afb597003a
:101480008b8f500002003d00abd79f000400370057
:101490002fb19700810f510001003d00a1b79f00bf
:1014a0000000e00003003200e300660001003200ab
:1014b0000000e9000ce8a30006003200afb197007d
:1014c000830f500002003400030050000100370079
:1014d0000000eb002fd297008400fb008002eb009d
:1014e000f5af9f00810f50000200340081005000d2
:1014f000f1af9f000c28a3003c00320061016600a0
:101500000c18a3000f0032003d0090000068a300fb
:1015100006003200b10220000200e00001003200ab
:101520008180e8000e0178000d003700b002200035
:101530000200e000010032000080e8008d00780029
:101540000e0037000200e000100032003d00900065
:101550000068a300070032000e017800010220009d
:101560000d007800c6fd07000000e00006003a000c
:10157000060037008d0078000002200023010700dc
:10158000e10f4000010032000e07e8007fab97003a
:101590000600e00052003200060478003d00900092
:1015a0000068a300070032000e017800010320004c
:1015b0000d007800b2fd07000000e00006003a00d0
:1015c000060037008d007800000320000f0107009f
:1015d000e10f4000010032000e07e8000804e900b6
:1015e000eeff3a00f8af9f003d003700ffab9700d9
:1015f0000700e000160032000c38a30014003a0087
:10160000070478003d0090000068a3000700320046
:101610000e017800010220000d00780098fd0700ff
:101620000000e00006003a00060037008d00780058
:1016300000022000f5000700e10f40000100320029
:101640000e07e8000804e900eeff3a00f8af9f003b
:10165000610166000c18a3000f0032003d009000ed
:101660000068a30006003200b10220000200e00082
:10167000010032008180e8000e0178000d00370083
:10168000b00220000200e000010032000080e8000b
:101690008d0078000e0037000200e00010003200dc
:1016a0003d0090000068a300070032000e017800a2
:1016b000010220000d00780071fd07000000e0002d
:1016c00006003a00060037008d0078000002200076
:1016d000ce000700e10f4000010032000e07e800d5
:1016e0002fb497000800e900c204dd00c9af9f00d5
:1016f0006301b90002057800baaf9f004300dd0026
:10170000a186200081004000e1af9f0098003700d3
:10171000afb597008b05e900abb79f000004200030
:101720008fb09700808f50006800320003003c00ab
:101730000100e000080032007300370000082000bc
:101740000fb19700800f51004c003200000c2000b8
:10175000800f51006c003a000c00e0001e003d00bc
:10176000efa997003304be002305be000802be00a7
:101770000a03be003fb09700cfb097005fb197005b
:10178000efb19700c4010700a0d79f000000fb0045
:10179000cf80de006109b9000802be000a03be0066
:1017a000260207003fb29700cfb297005fb39700c1
:1017b000efb397000002520081825a0002035b00df
:1017c00083835b00b4b79f00c5b79f00d6b79f0067
:1017d000e7b79f00250037000c48a3001a0032002d
:1017e0003fb29700cfb297006fab97003604be00b0
:1017f0002605be000801be000400be00f4b79f002d
:1018000085bf9f0072fc0700a0d79f000000fb006f
:10181000cf80de000801be00000107007fb2970004
:101820008fba97000002520081825a000404be0061
:101830006055b800b8b79f00c9b79f00dab79f00de
:10184000ebb79f0009003700efac97001901780053
:101850003fb59700110009000285d800a2002000c2
:10186000110009000280d800a1d79f00afd59700d2
:101870000b43b000abd79f0023003700108520003a
:101880000c58a30001003200008420003fb29700f2
:10189000cfb297005fb39700efb39700cfa8970040
:1018a0008100e900050033008703d1000683d300df
:1018b0008582d3000482d300f9ff37006f026200f3
:1018c00060427a00a4d79f000f0037003fb0970016
:1018d000cfb097005fb19700efb197003faa970094
:1018e0000402e900050033008301d1000281d30026
:1018f0008180d3000080d300f9ff3700674060008b
:101900000043b000a0d79f00bd009000afd2970069
:101910000500fb000168a300070032000e017800fb
:10192000800078000d007800d5fc07000000e00082
:1019300005003a00050037008d00780033000700ed
:10194000e10f4000010032000e07e8004fab9700a6
:1019500064035300c6af9f00bfab9700e3835300ff
:10196000b7af9f006fac970068045400e8af9f00ca
:10197000afb497000900e00065ff3a000c38a300ff
:10198000160032007fad97000a00e000130034001b
:101990000a0478003d0090000068a30007003200b0
:1019a0000e017800010220000d007800b4fc070051
:1019b0000000e00006003a00060037008d007800c5
:1019c0000002200011000700e10f4000010032007a
:1019d0000e07e8000804e900eeff3a00dfad9700cb
:1019e0001b407800a0d79f000004e000b7fc3a003d
:1019f0000e0078004f0778004f06be004f05be006e
:101a00004f04be002f02b10000000600889fbe00f8
:101a100001047800b80090008084eb000118a30056
:101a20003a003200180190000198a30002003a0029
:101a30000200e00035003a000190a0003104980057
:101a400080047800f90fb2000200e00002003a00c2
:101a500028009000000c7800ea8f540005003a003e
:101a60000178a30003003a0088007800d00020002d
:101a7000e6ff070018009000d8009000810f50008a
:101a80000b0032000000e8001004980018007800f5
:101a900009487800000ce80011c0b3000093200052
:101aa00001487800ea8f540018003a00050037001a
:101ab000880078000940780017000700800478004b
:101ac00012003700380090000088a3000f00320099
:101ad00018019000a8009000480090009cfa0700b0
:101ae00098009000810f50000400320038009000f0
:101af0000003b300300498008084eb000000eb008a
:101b00001004980028009000000c7800090078006c
:101b10004f04be00000006000200fa00889fbe00cd
:101b2000a0ff9f0001047800380090000068a30027
:101b300033003a00e200600005003a000003b30001
:101b400030049800110498000080eb002e0037004c
:101b5000d80490000900e00006003a0012002000be
:101b6000e68057004800900079fa070019049800b1
:101b700023003700a80090000100e00008003a00b0
:101b80003193200021049800010c780021002000ee
:101b900051049800110498000030a000300498000f
:101ba00018019000a80090004800900068fa070013
:101bb000280090008080eb0011049800aff8970097
:101bc00001487800000ce8002ff89700ea4f500019
:101bd0000b003a00380090000088a3000800320093
:101be00018019000a80090004800900058fa0700e3
:101bf0000000eb0010049800a8009000010c780091
:101c0000aff897000100fb004f04be000080fa000f
:101c10000000060000c0da0000000600020ab90059
:101c2000001bb9000200b80081004200810043009f
:101c300000000600889fbe008a9fbe00300442005c
:101c4000b0844a0030054b0090854b006000b10025
:101c50000898be000a90be000440e10005c8e100fb
:101c600006d0e10007d8e100020031006800400022
:101c70001008e8004f05be004f04be00000006003b
:101c8000889fbe008a9fbe003004be002005be00b3
:101c90000418540005985c0006185d0007985d0064
:101ca000110020000440e10005c8e10006d0e10079
:101cb00007d8e100010039008000eb001088100017
:101cc0004f05be004f04be00000006001200fa00df
:101cd000889fbe008a9fbe008c9fbe00e0b79f0019
:101ce000f1b79f0082bf9f0093bf9f000605be0013
:101cf0000404be000000eb00d0b79f00c0b79f00f7
:101d0000b0b79f00a0b79f0090b79f000006eb0000
:101d10005fb19700cfb09700820141003fb09700bc
:101d20000200e00004003d00370007007e805700fd
:101d3000c0ff070003003700330007007e80570014
:101d4000cfff0700dfb697000d00e0000c00350064
:101d50006fb29700ffb297000fbb97009fbb970031
:101d600010002000010020006011b8000002720085
:101d70008182720002037300838373001b000700db
:101d80000c06e80001042000810f5600e0ff3a0035
:101d90000d00e00004003d000802be000a03be0082
:101da0007e805700a3ff07005fa897000000e000b7
:101db00005003a001fb29700afb297003fb39700fb
:101dc000cfb39700090007006fb09700ffb09700ee
:101dd0000fb997009fb997004f06be004f05be0090
:101de0004f04be000080fa0000000600010007005a
:101df00000000600a4b79f00b5b79f00c6b79f00bc
:101e0000d7b79f00000006004f09de0082817100f5
:101e1000b3b79f004f01de008180400082807000d8
:101e2000a1b79f008fb097004f09de00000040006f
:101e30000200700090b79f007fa897004f01de005e
:101e4000818040008280700081b79f000d000700f4
:101e50004f3ade000000400004007000f0af9f0029
:101e6000080007000402420085824a0006034b0076
:101e700087834b00dfff07000802be000a03be0095
:101e8000000006002fb29700bfb297004fb3970033
:101e9000dfb3970000000600881f780018002000bc
:101ea000881f780089ff07008f87e9004f047800ba
:101eb00000000600801feb0084ff07008f87e90009
:101ec00000000600889fbe008a9fbe00e00f500001
:101ed000e08f5800e00f5900e08f59000c003d00e2
:101ee0006044b8006055b8000000540081805c0078
:101ef00002015d0083815d001800200015000700cd
:101f000008003d00180007000004eb000500370042
:101f10000004eb000f00070002003d001200070064
:101f200018002000dcff07000800e0000600320077
:101f30006022b8006033b8000000520081805a006f
:101f400002015b0083815b004f05be004f04be00b1
:101f500000000600e00f5200e08f5a00e00f5b0027
:101f6000e08f5b00000006006044b8006055b800d8
:101f70000402540085825c0006035d0087835d00d7
:101f800000000600889fbe008a9fbe008c1f78005c
:101f9000e00f5000e08f5800e00f5900e08f59002b
:101fa0000d003d006044b8006055b80000005400ca
:101fb00081805c0002015d0083815d001c002000c7
:101fc0000820e10009a8e1000ab0e1000bb8e10037
:101fd0000d003d00080037000006eb00e00f520046
:101fe000e08f5a00e00f5b00e08f5b0006003d00d1
:101ff0006044b8006055b8000402540085825c005b
:1020000006035d0087835d00aaff07000c00e00067
:10201000060032006022b8006033b80000005200b1
:1020200081805a0002015b0083815b004f067800cb
:102030004f05be004f04be0000000600889fbe0092
:102040008a9fbe008c1f78000006eb00e00f500056
:10205000e08f5800e00f5900e08f590007003d0065
:102060006044b8006055b8000000540081805c00f6
:1020700002015d0083815d001c002000e00f520022
:10208000e08f5a00e00f5b00e08f5b0007003d002f
:102090006044b8006055b8000402540085825c00ba
:1020a00006035d0087835d000c00a2000c000700a2
:1020b0000c00e000060032006022b8006033b80077
:1020c0000000520081805a0002015b0083815b00a6
:1020d0004f0678004f05be004f04be00000006000a
:1020e000889fbe008a9fbe008c9fbe000404b8007b
:1020f0000506b8008904460060854e000606b80053
:102100000a054600e0854e000706b8008b0546002c
:10211000040eb800890446000a854e00e0854d0093
:10212000050eb8000a0546008b854e00060eb80065
:102130008b0546000416b8000a0546008b854e0044
:102140000516b8008b054600041eb8008b05460036
:102150000800be000a01be004f06be004f05be00cb
:082160004f04be000000060060
:020000040000fa
:1021680014000000496e00006974000069610000f5
:102178006c6900007a610000746900006f6e0000ed
:10218800204300006f6d0000706c00006574000053
:10219800650d00000a00000045720000726f000023
:1021a80072200000436100006c630000756c000041
:1021b80061740000696e000067200000507500001f
:1021c8006d700000696e0000672000005365000014
:1021d800636f00006e640000730d00000a000000c9
:1021e800474500005442000041540000543a0000a2
:1021f80020420000617400007465000072790000dc
:1022080020690000732000004f4b00000000000010
:10221800474500005442000041540000543a000071
:1022280020430000686100006e6700006520000020
:102238004261000074740000657200006965000066
:102248007300000000250000642e000025640000d3
:102258002564000025640000002c00000000000038
:020000040000fa
:102268000000fa002023ef0021e3a90000198000f4
:102278000080a1000090a1000019880000198000ca
:102288000050a0000060a0000070a00000198800a5
:102298002043a9002023a9002223ef002119800050
:1022a80000fc2f00008060002019880021198000a0
:1022b800f00f2e00808060000030200001007000c8
:1022c8002019880028e3a9003023ef002ca3a900d7
:1022d800c062a800401980000000a0000010a10002
:1022e8000020a0000030a100401988000080fa00fa
:1022f800000006000000fa009400a8008200a9006f
:10230800c8e2a900c482a8009400a8008200a8001e
:10231800c442a900cde2a900cc82a900803b80007c
:102328000080eb00803b8800903b80000080eb0041
:10233800903b880059e7a800000000000040fe001c
:102348000080fa00000006000200fa00000f780082
:102358001e007800e40f500008003a00c842a800a8
:10236800401980000000a1000010a1000020a0007a
:102378000030a100401988000000000021e3a800f7
:102388002023a80000000000001980006100600000
:102398000000e000fcff320021e3a90000188000e3
:1023a8000080fa00000006000600fa00881f780086
:1023b8000000eb00000f7800ca82a800a0002000ef
:1023c800ab02070020000700000f78001e0078000d
:1023d800cf80de003bf9070002002000632d2400b7
:1023e800e5f8070092c22500f3e0230085f807000e
:1023f8001007980021079800ca82a90018c0b300e6
:10240800d2cc2c00c30824001e009000ae0090001f
:102418002af907000000e000010035000044eb0045
:102428000804e000030032001000200090408800fb
:10243800020037001228ef00c282a9004f0478007a
:102448000080fa00000006000000fa0021e3a8005e
:102458002023a8000000000000198000610060002f
:102468000000e000fcff320021e3a9000018800012
:102478000080fa00000006000400fa00004f78000f
:102488009e00fb00000120000001780011000900f7
:102498008200d800004078006a00b9000000780087
:1024a80000407800204798001e01fb000001200032
:1024b80080017800110009000301d8008000fd00a8
:1024c80000407800ae40900000c040000080fa0054
:1024d800000006000400fa00004f78009e00fb0090
:1024e800a000200000017800110009008200d80037
:1024f8000040780080407800400020000008dd009f
:10250800204798001e01fb00a000200080017800f1
:10251800110009000301d8008000fd000040780088
:10252800ae40900000c040000080fa0000000600a5
:102538000600fa00200798002e0090004480de0074
:102548006f0f60002e0090006f0060001007980069
:102558001e0078006a00b900800078001e00900014
:10256800008040000080fa00000006000600fa0023
:10257800200798002e0090004c00de00000f780025
:102588002e0090004880de006f0060001007980061
:102598001e0078006a00b900800078001e009000d4
:1025a800008040000080fa00000006000800fa00e1
:1025b800881f7800004f780011479800224798003c
:1025c8003347980044479800554798006647980055
:1025d80057052000373b8800a70a2000373b8800b2
:1025e80027a6a80027a6a800303180000080a000f8
:1025f8000090a000303188006e409000b5ff0700c1
:102608000000fb00203188004e409000b1ff070019
:102618000004fb005e409000aeff07000000fb00d6
:102628004800dd0000004400203188002e40900062
:10263800a8ff07000004fb003e409000a5ff07002c
:102648000000fb004800dd00000044002031880045
:102658001e4078009fff07000004fb001e4090000a
:102668009cff07000000fb004800dd00000044005c
:102678002031880027e6a80027a6a9004f04780083
:102688000080fa00000006000600fa000040eb0097
:10269800004f7800303180000080a1000090a00039
:1026a8003031880027a6a900203180008000eb0087
:1026b80010079800210798001e009000ae009000b7
:1026c8004809dd004800de0000007100c888de000f
:1026d800004078007f4f60001e40780066ff0700ca
:1026e8000000fb000080fa00000006000600fa0067
:1026f8000040eb00004f7800303180000080a100de
:102708000090a0003031880027a6a9002031800061
:102718008000eb0010079800210798001e00900029
:1027280000407800f1c3b300014f60001e407800fc
:1027380051ff07000000fb000080fa0000000600bf
:102748000600fa000040eb00004f780030318000ae
:102758000080a0000090a1003031880027a6a900c1
:10276800203180008000eb001007980021079800b6
:102778001e009000004f78001e4078003eff0700c2
:102788000000fb000080fa00000006000600fa00c6
:102798000040eb00004f7800303180000080a1003d
:1027a8000090a1003031880027a6a90020318000c0
:1027b8008000eb0010079800210798001e00900089
:1027c800ae0090004809dd004800de0000007100fe
:1027d800c888de00004f78001e40780026ff0700fa
:1027e8000000fb000080fa00000006000600fa0066
:1027f8000040eb00004f7800303180000080a100dd
:102808000090a1003031880027a6a900203180005f
:102818008000eb0010079800210798001e00900028
:10282800004f78001e40780013ff07000000fb00ef
:102838000080fa00000006000400fa001007980063
:102848000000eb00000f7800010037001e0fe800c1
:102858001e0078009e009000008040001040780024
:102868000004e000f9ff3a001e0078000080fa003a
:10287800000006000600fa00200798000000eb00a0
:10288800000f78000000eb00100798002e00900061
:10289800e9ff0700100798000d003700000000004e
:1028a8001111800000202000008060000000e0007e
:1028b800fbff3a001e007800ae0090000080400048
:1028c800104078000000fb00201188001e0fe8006f
:1028d8001e0090009e007800808f5000efff3500aa
:1028e8000080fa00000006000200fa0070c4b3007d
:1028f800004f780070c4b3009e40780080cf50002d
:1029080001003a00030007000000eb000080fa0015
:10291800000006000e03fa007000470072542400fd
:10292800434524000288be0064004000124425008c
:1029380013a423000288be006400400002022000a5
:10294800030020000288be006400400070010900f6
:102958000018eb00202eb10093fe07009040800085
:102968000000e00003003a00400f2900c1ff070003
:1029780002003700c0102900beff07000000eb006e
:10298800000f78004b0037001e0078000000400060
:102998000000e800100798001e0090006f00070074
:1029a800200798001e0090000000e800100798001b
:1029b8001e00900069000700cf80de0030079800f5
:1029c800410798003e009000ce009000420620008b
:1029d80003002000aaf7070050079800de009000c7
:1029e800400620000088b90000007800cf80de0093
:1029f8003e019000ce0190000000510081805900f6
:102a080030079800410798003e009000ce009000e3
:102a1800a20020000300200099f707006007980033
:102a28003e019000ee00900060ff2f000088b90082
:102a3800000078000000410070079800e02f200097
:102a48000e004000fe009000811f7800ee0090000c
:102a5800811f7800de009000811f7800ae00900092
:102a6800811f780071122900811f78006cf8070017
:102a7800ea875700e12f20008e8040007000470051
:102a880057f80700304080009e007800808f500083
:102a980007003d00700047005bf80700f0004700a2
:102aa80000804000220020001113290045f807008b
:102ab8001e0fe800304080009e007800808f500094
:102ac800b1ff3400700047006aff07000080fa0079
:102ad800000006000600fa00100798002107980079
:102ae80040002400003b8800f007200000407800e8
:102af80032e0b70001e02f001e0090000000400007
:102b080000017800f01f200000006100008f4000e5
:102b1800ae0090001e0078000108bb000500fc0014
:102b280050052000303b8800a00a2000303b880078
:102b380061e7a8000000000000000000000000009d
:102b4800013b800000002800008060000000e000d9
:102b5800fbff3a000080fa00000006000600fa00b9
:102b680020079800f00720000040780032e0b70006
:102b780001e02f002e0090000000400000017800c6
:102b8800f01f200000006100008f40001e00780048
:102b98001000ba00100798001e0090000080fa008c
:102ba800000006000800fa00200798003107980086
:102bb800be009000010f78002e0090004200dd005a
:102bc80020079800f00720000040780032e0b700a6
:102bd80001e02f002e019000f01f2000000061008e
:102be80000804000100798001e0090009000ba0076
:102bf8001e007800010878001e8fe8002e00900063
:102c08000080e80020079800f007200000407800c6
:102c180032e0b70001e02f002e019000f01f2000e5
:102c28000000610000804000100798001e0090001e
:102c38009000ba001e007800010878000080fa00b1
:102c4800000006000800fa002007980031079800e5
:102c5800be009000010f780040002400003b88006f
:102c68002e0090004200dd0020079800f0072000a9
:102c78000040780032e0b70001e02f002e019000fc
:102c8800f01f20000000610000804000100798003d
:102c98001e007800900078001e0090000108bb001c
:102ca8000500fc0050052000303b8800a00a2000e9
:102cb800303b880061e7a800000000000000000029
:102cc80000000000013b8000000028000080600038
:102cd8000000e000fbff3a001e8fe8002e00900085
:102ce8000080e80020079800f007200000407800e6
:102cf80032e0b70001e02f002e019000f01f200005
:102d08000000610000804000100798001e00780055
:102d1800900078001e0090000108bb000500fc0030
:102d280050052000303b8800a00a2000303b880076
:102d380061e7a8000000000000000000000000009b
:102d4800013b800000002800008060000000e000d7
:102d5800fbff3a000080fa00000006000000fa00bd
:102d68006000b800104088002140880021802000c1
:102d78000000eb00b3ff07002180200010002000b6
:102d8800b0ff07002180200020002000adff0700d1
:102d98002180200030002000aaff070021802000a9
:102da80040002000a7ff07002180200050002000dd
:102db800a4ff07002180200060002000a1ff070079
:102dc80021802000700020009eff07002180200045
:102dd800800020009bff0700218020009000200039
:102de80098ff070021802000a000200095ff070021
:102df80021802000b000200092ff070021802000e1
:102e0800c00020008fff070021802000d000200094
:102e18008cff070021802000e000200089ff0700c8
:102e280021802000f000200086ff0700218020007c
:102e38000001200083ff07002180200010012000ee
:102e480080ff070021802000200120007dff07006f
:102e580021802000300120007aff07002180200017
:102e68004001200077ff07000080fa0000000600fc
:102e78000200fa00000f7800500e20006008880059
:102e88000d0037000621ef0084e0a90011e1a80039
:102e9800000000002104800000082000008060007d
:102ea8000000e000fbff320011e1a9001e007800dd
:102eb8000000e900000f78001e0078000000e00024
:102ec800f0ff3c000080fa00000006003400f80023
:102ed800881f780008002000a80188004f047800a7
:102ee8000000fa008bc0a9000080fa003400f90045
:102ef800004006000000fa00871f7800881f78004d
:102f08000500fc0057052000373b8800a80a200070
:102f1800383b880027a6a8004f047800cf03780024
:102f2800002022003031880023c6a90023e6a9002a
:102f380027e6a80027a6a900100680000080a000a8
:102f48000090a10000a0a1001006880010068000d3
:102f58000080a0000090a10000a0a1001006880039
:102f68008bc0a9009bc0a8000080fa0000000600e2
:102f78000200fa00000f7800871f7800881f780089
:102f88000500fc0057052000373b8800a80a2000f0
:102f9800383b880027a6a8004f047800cf037800a4
:102fa80027e6a8001e007800004078006f40600007
:102fb8000080fb006f0060004a00dd0012318000d5
:102fc800f13f2c0081006100010070001031880081
:102fd800103180000080a1000090a000103188000e
:102fe8002026ef002026ef002026ef002266ef00c3
:102ff80023e6a80027a6a9000040fe000000000064
:10300800871f7800881f78000500fc0057052000fe
:10301800373b8800a80a2000383b880027a6a8006c
:103028004f047800cf03780027e6a90030318000ec
:103038000080a1000090a100303188002426ef0014
:1030480027a6a9000080fa00000006000000fa0088
:10305800013a800000002800008060000000e000c5
:103068000100320041e7a900013a80000000240075
:10307800008060000000e0000100320041c7a900a4
:10308800013a800000082000008060000000e00095
:103098000100320040e7a900013a80000004200046
:1030a800008060000000e0000100320040c7a90075
:1030b800003a8000700060000000e000010032006b
:1030c8004087a900003a8000680060000000e00026
:1030d800010032004067a900003a800064006000e7
:1030e8000000e000010032004047a900003a8000db
:1030f800620060000000e000010032004027a900e3
:10310800003a8000610060000000e0000100320029
:103118004007a9000080fa00000006000000fa003d
:103128002005800000c0a10000d0a10000e0a000a0
:10313800200588000021ef000000220020088800f8
:10314800200880000040a1000050a000200888004e
:103158008460a9009460a9000080fa0000000600bd
:103168000000fa000621ef00000022008008880015
:1031780084e0a90094e0a90011e1a9000080fa0008
:10318800000006000000fa002222ef002062a800da
:10319800c00020004011880021e2a8002342a800b6
:1031a8000080fa00000006000000fa000080eb0032
:1031b800601988000080eb00001688000080eb0092
:1031c80040168800c842a800c8e2a900c042a90069
:1031d800c442a800c882a900ca82a900c082a80067
:1031e800c9e2a900cde2a8006100a8009660a80085
:1031f8001bfc0700e3ff0700c8ff0700d8ff070014
:10320800c442a8008460a9000021ef0005e1a800dd
:1032180080022000100888000000000020048000c0
:10322800680060000000e000fcff320016c1b30037
:1032380095c0b30094c1b30063c0b300c2c0b3006b
:103248008040eb000040eb00d8fc070027fd07009a
:1032580050408800504080004040880038fd0700fa
:103268006040880060408000704088004efc070085
:103278002e28ef000080fa00000006000200fa0085
:1032880010002000000f78008013200060088800dc
:103298000621ef0084e0a90011e1a800080037002a
:1032a8002104800000082000008060000000e00089
:1032b800030032000000eb00000f780084e0a90052
:1032c80010168000620060000000e0000300320079
:1032d8001e0078000000e000f1ff3a000621ef0030
:1032e80008003700210480000008200000806000ea
:1032f8000000e000030032000000eb00000f78003f
:1033080084e0a90010168000620060000000e00060
:1033180003003a001e0078000000e000f1ff3a00c8
:103328000621ef0008003700210480000008200073
:10333800008060000000e000030032000000eb00a5
:10334800000f780084e0a900101680006200600079
:103358000000e000030032001e0078000000e000da
:10336800f1ff3a0011e1a90084e0a9001e007800ed
:103378000080fa00000006003400f800881f78007a
:1033880008002000a80188004f0478000000fa0017
:103398000080fa003400f90000400600809fbe005b
:1033a8003400f80000002000a00188000000fa00a6
:1033b80030048000680060000000e0000700320070
:1033c8001116800000042000008060000000e0006a
:1033d8000200320010002000e04188008660a90049
:1033e8000080fa003400f9004f00be0000400600db
:1033f8003000fa0015ff0700203a80000080a10085
:103408000090a10000a0a100203a880066ff0700f4
:10341800600b290017fd07006000b800008fbe0090
:103428000000eb00200798000000eb00200f980038
:103438002e089000c9fd0700304088003040800009
:103448000000e00003003400304080000000e80085
:10345800304088008460a9000021ef0005e1a80041
:103468008085290010088800b5fc070060408800a6
:103478006140800070408000808f5000030032005f
:10348800c9fb0700604080007040880090408000c1
:103498000000e0000e003200a04080000000e800bc
:1034a800a040880010168000700060000000e00056
:1034b80006003a00a0408000e30f500003003400eb
:1034c800c282a8001428ef0001003700c282a900b8
:1034d80086fc070050408800514080004040800032
:1034e800808f50001f0032002e28ef000000eb00f4
:1034f800300f980030408000800078003e0890002f
:1035080074fd070030408000000040000000e80023
:10351800300f98002e009000800078003e08900040
:103528006cfd07000000eb00200798003e089000a3
:103538000000e800300f98001e0078008000780036
:103548003e08900063fd07006000b800008fbe00d1
:10355800304080000000e800304088005040800083
:103568004040880045ff07000000e00025003200c9
:10357800704180000000e000c0003a008460a900ab
:103588000021ef0005e1a90010002000704188002b
:103598006bfc070080418800303180000080a1006a
:1035a8000090a1003031880027a6a90020318000b2
:1035b8008000eb00400f9800510f98004e089000d3
:1035c800405f98004e589000abfb07000000fb00de
:1035d800c04188004e089000de0890004809dd00d0
:1035e8004800de0000007100c888de00505f9800c7
:1035f8005e589000a0fb07000000fb00a041880077
:103608009e00370070418000e10f50009b003a0097
:103618001aff07000000e00098003a0005e1a80042
:1036280047fc070090418800303180000080a100ed
:103638000090a1003031880027a6a9002031800021
:103648008000eb00700f9800011798007e0890002a
:10365800206798002e60900087fb07000000fb00a1
:10366800d04188007e0890008e1090004809dd0047
:103678004800de0000007100c888de00306798004e
:103688003e6090007cfb07000000fb00b041880012
:10369800d1418000c0418000008050003007980070
:1036a8003e0090000000e00006003d003e00900053
:1036b800c003b00030079800b04180000000e90066
:1036c800b0418800b1418000a041800000805000d6
:1036d800400798004e0090000000e00006003d0002
:1036e8004e009000c003b000400798009041800051
:1036f8000000e900904188009141800080418000ed
:1037080000805000500798005e0090000000e00024
:1037180003003d005e0090007800400050079800cc
:10372800ce009000c00320000088b9008000780017
:103738003e00900000804000cf80de0020179800f7
:1037480031179800be109000803e20000088b90014
:10375800000178002e1090006000b9000000780089
:1037680000014100ae109000803e20000008b80023
:103778000101410082007800201798003117980055
:1037880020179800311798002e119000be11900054
:1037980080a92e0061032000800f5100818f5900fd
:1037a80002003400000d290032fc07009e00900042
:1037b80000e120000088b900000178001e007800b0
:1037c8006000b90000007800000141009e00780008
:1037d80000e120000008b8000101410082007800e3
:1037e80060079800710798006e019000fe01900034
:1037f8002e109000be109000020040008380480008
:1038080060079800710798006e019000fe01900013
:1038180000e82e0061032000800f5100818f5900bd
:103828000b0034005e0090000000e800500798008c
:103838006e019000fe0190000018210091fc2f00fd
:1038480002004000838048006007980071079800d4
:103858006e009000fe00900002e1200003002000ae
:1038680007f40700008fbe005e009000ae009000d5
:1038780000804000200798002e28ef00e0418000db
:103888000000e000770032003c28ef003040800064
:10389800000040000000e800401798002e0090004b
:1038a800800078004e1090008afc07004e109000af
:1038b8000000e800401798001e007800800078009b
:1038c8004e10900083fc0700cde2a90010c0b300a1
:1038d800005798000040eb00105798000000eb00dc
:1038e800100f98000080eb00600888000621ef00a8
:1038f80084e0a90011e1a800250037009e08900087
:1039080070152000808f500021003c0010118000ad
:10391800610060000000e0000b0032003011800000
:10392800206f9800ae68900070c4b30080cf50003c
:103938000f003a0010c0b300005798000040eb0099
:10394800105798000a003700210480000008200062
:10395800008060000000e000050032000621ef0052
:1039680084e0a9001e0890000000e800100f9800ed
:103978009e08900070152000808f500004003400cd
:10398800cde2a80011e1a9000040eb001057980013
:103998001e5090000004e000d8ff3a000000eb0041
:1039a800100f98000621ef0084e0a90011e1a8009b
:1039b800290037009e08900080472000808f500023
:1039c80025003c000000eb0060179800d1fb0700c1
:1039d8006e109000e10f50000d003a006000b80032
:1039e800008fbe000000eb00200798003e28ef0083
:1039f8000628ef000000eb007017980030408000a8
:103a0800800078007e10900032fc07000a00370022
:103a18002104800000082000008060000000e00011
:103a2800050032000621ef0084e0a9001e0890007e
:103a38000000e800100f98009e08900080472000c2
:103a4800808f500004003400cde2a80011e1a900e5
:103a58000040eb00005798000e5090000004e00072
:103a6800d4ff3a0070418000704188007efe370024
:020000040000fa
:103a78003c080000040000000000000000080000ee
:103a88003c0000000000000040080000ca000000e0
:103a98000200000030313200333435003637380048
:103aa800394142004344450046003000313233007a
:103ab8003435360037383900616263006465660062
:103ac80000286e00756c6c002900000001000000e1
:103ad8000000000000000a000000000000000000d4
:103ae800006400000000000000000000e80300007f
:103af8000000000000001000270000000000000087
:103b080000a08600010000000000000040420f00f5
:103b180000000000000080009698000000000000ef
:103b28000000e100f50500000000000000ca9a004e
:103b38003b00000000000000e40b540002000000fd
:103b48000000e80076481700000000000010a500fb
:103b5800d4e8000000000000a0724e001809000020
:103b6800000040007a10f3005a0000000080c600f0
:103b7800a47e8d000300000000c16f00f2862300c0
:103b8800000000008a5d78004563010000006400c1
:103b9800a7b3b600e00d000000e889000423c700c1
:103ba8008a0000000a090000260000000200000048
:103bb800310900000031090009000000000200007e
:103bc80033090000003309000e0201000000000064
:103bd80000000000000000000602020000000000d3
:103be8000a0900003009000006000000000000007b
:103bf8003609000002000000020000000100000079
:043c0800061e800014
:020000040000fa
:043c0c0000000000b4
:020000040000fa
:0200000400fffb
:04fc00000000000000
:020000040000fa
:0200000401f009
:04000000ffff0000fe
:020000040000fa
:0200000401f009
:04000800ffff0000f6
:020000040000fa
:0200000401f009
:04000c0006000000ea
:020000040000fa
:0200000401f009
:04001000bb00000031
:020000040000fa
:0200000401f009
:040014005f00000089
:020000040000fa
:0200000401f009
:04001800fb000000e9
:020000040000fa
:0200000401f009
:04001c00c30000001d
:020000040000fa
:0200000401f009
:04002000df000000fd
:00000001FF
