:020000040000fa
:080000000002040000000000f2
:020000040000fa
:040008009c23000035
:020000040000fa
:04000c009c23000031
:020000040000fa
:040010009c2300002d
:020000040000fa
:040014009c23000029
:020000040000fa
:040018009c23000025
:020000040000fa
:04001c009c23000021
:020000040000fa
:040020009c2300001d
:020000040000fa
:040024009c23000019
:020000040000fa
:040028009c23000015
:020000040000fa
:04002c009c23000011
:020000040000fa
:040030009c2300000d
:020000040000fa
:040034009c23000009
:020000040000fa
:040038009c23000005
:020000040000fa
:04003c009c23000001
:020000040000fa
:040040009c230000fd
:020000040000fa
:040044009c230000f9
:020000040000fa
:040048009c230000f5
:020000040000fa
:04004c009c230000f1
:020000040000fa
:040050009c230000ed
:020000040000fa
:040054009c230000e9
:020000040000fa
:040058009c230000e5
:020000040000fa
:04005c009c230000e1
:020000040000fa
:040060009c230000dd
:020000040000fa
:040064009c230000d9
:020000040000fa
:040068009c230000d5
:020000040000fa
:04006c009c230000d1
:020000040000fa
:040070009c230000cd
:020000040000fa
:04007400ae230000b7
:020000040000fa
:040078009c230000c5
:020000040000fa
:04007c009c230000c1
:020000040000fa
:040080009c230000bd
:020000040000fa
:040084009c230000b9
:020000040000fa
:040088009c230000b5
:020000040000fa
:04008c009c230000b1
:020000040000fa
:040090009c230000ad
:020000040000fa
:040094009c230000a9
:020000040000fa
:040098009c230000a5
:020000040000fa
:04009c009c230000a1
:020000040000fa
:0400a0009c2300009d
:020000040000fa
:0400a4009c23000099
:020000040000fa
:0400a8009c23000095
:020000040000fa
:0400ac009c23000091
:020000040000fa
:0400b0009c2300008d
:020000040000fa
:0400b4009c23000089
:020000040000fa
:0400b8009c23000085
:020000040000fa
:0400bc009c23000081
:020000040000fa
:0400c0009c2300007d
:020000040000fa
:0400c4009c23000079
:020000040000fa
:0400c8009c23000075
:020000040000fa
:0400cc009c23000071
:020000040000fa
:0400d0009c2300006d
:020000040000fa
:0400d4009c23000069
:020000040000fa
:0400d8009c23000065
:020000040000fa
:0400dc009c23000061
:020000040000fa
:0400e0009c2300005d
:020000040000fa
:0400e4009c23000059
:020000040000fa
:0400e8009c23000055
:020000040000fa
:0400ec009c23000051
:020000040000fa
:0400f0009c2300004d
:020000040000fa
:0400f4009c23000049
:020000040000fa
:0400f8009c23000045
:020000040000fa
:0400fc009c23000041
:020000040000fa
:040100009c2300003c
:020000040000fa
:040104009c23000038
:020000040000fa
:040108009c23000034
:020000040000fa
:04010c009c23000030
:020000040000fa
:040110009c2300002c
:020000040000fa
:040114009c23000028
:020000040000fa
:040118009c23000024
:020000040000fa
:04011c009c23000020
:020000040000fa
:040120006c2100004e
:020000040000fa
:040124009c23000018
:020000040000fa
:040128009c23000014
:020000040000fa
:04012c009c23000010
:020000040000fa
:040130009c2300000c
:020000040000fa
:040134009c23000008
:020000040000fa
:040138009c23000004
:020000040000fa
:04013c009c23000000
:020000040000fa
:040140009c230000fc
:020000040000fa
:040144009c230000f8
:020000040000fa
:040148009c230000f4
:020000040000fa
:04014c009c230000f0
:020000040000fa
:040150009c230000ec
:020000040000fa
:040154009c230000e8
:020000040000fa
:040158009c230000e4
:020000040000fa
:04015c009c230000e0
:020000040000fa
:040208009c23000033
:020000040000fa
:04020c009c2300002f
:020000040000fa
:040210009c2300002b
:020000040000fa
:040214009c23000027
:020000040000fa
:040218009c23000023
:020000040000fa
:04021c009c2300001f
:020000040000fa
:040220009c2300001b
:020000040000fa
:040224009c23000017
:020000040000fa
:040228009c23000013
:020000040000fa
:04022c009c2300000f
:020000040000fa
:040230009c2300000b
:020000040000fa
:040234009c23000007
:020000040000fa
:040238009c23000003
:020000040000fa
:04023c009c230000ff
:020000040000fa
:040240009c230000fb
:020000040000fa
:040244009c230000f7
:020000040000fa
:040248009c230000f3
:020000040000fa
:04024c009c230000ef
:020000040000fa
:040250009c230000eb
:020000040000fa
:040254009c230000e7
:020000040000fa
:040258009c230000e3
:020000040000fa
:04025c009c230000df
:020000040000fa
:040260009c230000db
:020000040000fa
:040264009c230000d7
:020000040000fa
:040268009c230000d3
:020000040000fa
:04026c009c230000cf
:020000040000fa
:040270009c230000cb
:020000040000fa
:040274009c230000c7
:020000040000fa
:040278009c230000c3
:020000040000fa
:04027c009c230000bf
:020000040000fa
:040280009c230000bb
:020000040000fa
:040284009c230000b7
:020000040000fa
:040288009c230000b3
:020000040000fa
:04028c009c230000af
:020000040000fa
:040290009c230000ab
:020000040000fa
:040294009c230000a7
:020000040000fa
:040298009c230000a3
:020000040000fa
:04029c009c2300009f
:020000040000fa
:0402a0009c2300009b
:020000040000fa
:0402a4009c23000097
:020000040000fa
:0402a8009c23000093
:020000040000fa
:0402ac009c2300008f
:020000040000fa
:0402b0009c2300008b
:020000040000fa
:0402b4009c23000087
:020000040000fa
:0402b8009c23000083
:020000040000fa
:0402bc009c2300007f
:020000040000fa
:0402c0009c2300007b
:020000040000fa
:0402c4009c23000077
:020000040000fa
:0402c8009c23000073
:020000040000fa
:0402cc009c2300006f
:020000040000fa
:0402d0009c2300006b
:020000040000fa
:0402d4009c23000067
:020000040000fa
:0402d8009c23000063
:020000040000fa
:0402dc009c2300005f
:020000040000fa
:0402e0009c2300005b
:020000040000fa
:0402e4009c23000057
:020000040000fa
:0402e8009c23000053
:020000040000fa
:0402ec009c2300004f
:020000040000fa
:0402f0009c2300004b
:020000040000fa
:0402f4009c23000047
:020000040000fa
:0402f8009c23000043
:020000040000fa
:0402fc009c2300003f
:020000040000fa
:040300009c2300003a
:020000040000fa
:040304009c23000036
:020000040000fa
:040308009c23000032
:020000040000fa
:04030c009c2300002e
:020000040000fa
:040310009c2300002a
:020000040000fa
:040314009c23000026
:020000040000fa
:040318009c23000022
:020000040000fa
:04031c009c2300001e
:020000040000fa
:040320009c2300001a
:020000040000fa
:040324009c23000016
:020000040000fa
:040328009c23000012
:020000040000fa
:04032c009c2300000e
:020000040000fa
:040330009c2300000a
:020000040000fa
:040334009c23000006
:020000040000fa
:040338009c23000002
:020000040000fa
:04033c009c230000fe
:020000040000fa
:040340009c230000fa
:020000040000fa
:040344009c230000f6
:020000040000fa
:040348009c230000f2
:020000040000fa
:04034c009c230000ee
:020000040000fa
:040350009c230000ea
:020000040000fa
:040354009c230000e6
:020000040000fa
:040358009c230000e2
:020000040000fa
:04035c009c230000de
:020000040000fa
:10040000afa620000edf20000e01880000000000d3
:10041000000020000000e000020032000001200087
:10042000200288000c000700c053220001002000b9
:1004300011000700000020000000e0000200320070
:100440000000020000000000d823020000000000ad
:100450000040da000000fe004440a900c00820006f
:100460000000e0000300320000002000a00188002e
:100470004440a80000000600910188008000780038
:100480000000eb0015003700e280400032a0b4000d
:100490009101ba00e280400032a0b4009102ba009b
:1004a000e280400032a0b4000002eb00472bde00e7
:1004b000f507b200602ce10004003a000059eb009f
:1004c0008301e900fdff3e00040037006128e100e0
:1004d000010032000082eb000b00070011c3ba00dc
:1004e0001101ba000604e00003003a000200e00037
:1004f000e5ff3a0000000600f607b200960188000a
:1005000082007800f5ff37003159ba008301e90015
:100510000c0032002159ba008301e90008003200c2
:100520000400e00003003a00e280400032a0b40082
:10053000f5ff370011d9ba008301e900faff3a004c
:100540008100e800e180400032a0b4000000060015
:100550000a00fa00e20f500020003e0040538000e5
:10056000e10f5000060032008023200045232000c8
:1005700023232000042320000000e00004003a00b0
:100580008022200045222000232220000422200077
:10059000060028001403630003003a0006087800f0
:1005a00000002800140a700013a8a30001003a00fc
:1005b00013a0a00002007800050037001388a300f4
:1005c000feff32003102fb00840a78000000e900df
:1005d0000000e000f9ff3a00080037003300200077
:1005e000b3bf9f00c0bf9f00d1bf9f00e2bf9f006d
:1005f0006a805700510807006fb997000200780021
:100600000080fa0000000600889fbe008a9fbe009e
:100610008c1f78009f000700a600330003866c0043
:100620006450e1002e0032006420e100330032000b
:100630006150e1002f0032006120e1003100320002
:1006400085855500eb07b000090020000804200054
:10065000050037000804440089844c000a0031007a
:100660000603430087834b000001530081815b0038
:10067000f8ff33000203be000800a0000804440095
:1006800089844c00f6ff3900c639dd008301730010
:1006900001003200130020008904d1000884d30037
:1006a0000998a300050032000800a7000300a0007d
:1006b0008904d1000884d3008b05e8008904d100a7
:1006c0000884d3000001eb000281d200360007004d
:1006d00001f0a1000cf0a70001f0a0007e0037009f
:1006e0006420e100800032000801be000200be006c
:1006f000f7ff37006120e1007b0032006000b800a6
:10070000f3ff37000000200001f82700f0ff37005a
:100710000001be004a0007000470a70003f0a1001a
:100720006509b100160032000d0035006828e100af
:1007300006003500f0ff2f00f1ff27000300e00066
:1007400013003b00010028000000050000004000ed
:10075000818048008502e900fcff3a00080037006c
:10076000f88f420002003c008000eb000000050012
:100770008100d1000080d3008502e800fcff3a0030
:100780000300e00002003b0060001000e080180061
:10079000000006004f89de008201780089003700e2
:1007a0006011b8009700370081002000618055007b
:1007b0000b003d000b00200061fe2f000100e10056
:1007c0001d00340082817100610164008904d10040
:1007d0000884d3000000e800faff3a00710020000e
:1007e0006100640003007000020060000900320034
:1007f00061044400e0844c000988a5000500320033
:100800008b05e8006808e10002003a008904d10085
:100810000884d300f20f20000258e10005003d00db
:10082000c75ddd00f907b200898075000800780017
:10083000000006000bf827008b0078000000050080
:10084000c70ade00f107b200f50fb200080032005f
:10085000e1cf4200020032000170a0002400050038
:10086000810f7000010032000408050044000500fb
:10087000810f700002003a00140005008502e900b3
:100880000000400081c04800fcff3b000170a00058
:10089000240005000004be00e9ff07000003be00bd
:1008a0000405be000200be00e5ff0700844f75008e
:1008b000000006000200be006450e10005003600a2
:1008c0006420e100020036000968a30001003a003c
:1008d0000800be000160a0004f0678004f05be0072
:1008e0004f04be0000000600f0ff2f00f1ff2700bc
:1008f000f9ff3700889fbe008a9fbe008c1f7800da
:10090000e4ff0700ebff330003866c006450e10056
:10091000240032006420e100270032006150e10031
:10092000220032006120e100210032008b8542006c
:10093000eb07b1000134b800003ab80008044200e7
:1009400089844a00013ab8000030b800888040002d
:1009500009014a0004003300000040008180480083
:10096000020149008b05e900c909dd00830170001f
:100970000100320013002000c814de004814dd001e
:100980004709de001200b200c808de0008847000cb
:1009900085ff070001f0a1000cf0a70001f0a00006
:1009a000cdff37006120e100cfff32000801be001b
:1009b0000200be00f7ff37006150e100fcff3a0083
:1009c000c9ff3700881f7800030478000300e000a7
:1009d00007003d0060001000e08018006001190071
:1009e000e081190002003b0001f02d0003003700f8
:1009f0000400070008f0a70001f0a0004f047800f1
:100a000000000600889fbe008a9fbe000082700022
:100a10000402710004827100260032000004be004e
:100a20000200be006011b8006b0920009502200092
:100a30000182cf000a0039000541b1000082cf00d9
:100a4000070039000541b1000982cf0004003900d8
:100a50000541b1000882cf00010039000541b10015
:100a600005425200120032000a003b0082817100f0
:100a7000610164008100d1000080d3008984d3002b
:100a80000884d3008b05e8000442e800f7ff3a0031
:100a9000070037000804440089844c000000480027
:100aa000818048008b05e9000442e900f9ff3a0023
:100ab0003dff07004f05be004f04be0000000600ca
:100ac0000c00fa00889fbe0000047800f0ff2700a9
:100ad000d0bf9f008004eb0099bf9f0088bf9f009c
:100ae000a8bf9f00200c2000b0bf9f007881570056
:100af000cfb0970070805700cf0007000fb8970065
:100b0000094878008fb89700088050004f04be0055
:100b10000080fa00000006000800fa00889fbe006e
:100b20008a9fbe000084fb00d1c6b300814f5000f5
:100b3000340036004b062000110009000b84d80059
:100b400081057800720040004300dd00298c200000
:100b5000008044006022b8000600200007fe230049
:100b60005001be004000be00b90807000002be00f0
:100b70000203be0084bf9f0095bf9f00a6bf9f00d9
:100b8000b7bf9f00aa002000110009008a85d80085
:100b900080057800e9854500c35ddd008b85440054
:100ba0003b02be002b03be000fb897009fb8970012
:100bb0002fb99700bfb99700a50807000002be0033
:100bc0000203be0084bf9f0095bf9f00a6bf9f0089
:100bd000b7bf9f00110009000a84d8000104780003
:100be0004344dd00888444003902be002903be006e
:100bf0000fb897009fb897002fb99700bfb997001b
:100c00001d003700ea4f500013003600aa002000f4
:100c1000110009000a84d800010578006904400029
:100c20004344dd00298c2000088444006022b80081
:100c30000600200007fe23003800be002801be0089
:100c4000830807004355dd008a8444003902be0052
:100c50002903be00080037004344dd00208c20003b
:100c6000080440006022b8000600200007fe2300b0
:100c70003800be002801be00750807004f05be0001
:100c80004f04be000080fa00000006000800fa00d1
:100c9000889fbe008a9fbe00d1c6b3000004e0005a
:100ca00023003d000040ea000004fb00814f50009b
:100cb0000a00340042062000110009000204d80096
:100cc000a9002000110009008900d800e9004000b7
:100cd000c308dd002a8c200021003700ea4f5000b5
:100ce00010003400a2002000110009000204d80006
:100cf00001017800690040004300dd00218c2000e4
:100d0000008040004311dd00828040003102be00bf
:100d10002103be005001be004000be004c08070089
:100d2000380037004344dd00208c200032003700bb
:100d30000004fb00814f50002300340042062000d5
:100d4000110009000204d800a900200011000900c8
:100d50008900d800e9004000c308dd002a81200096
:100d6000810045003102be002103be008b09200036
:100d70008a8545003b00be002b01be0034080700f9
:100d80000002be000203be0084bf9f0095bf9f000b
:100d9000a6bf9f00b7bf9f00110009000904d8003b
:100da000010478004344dd00080545003a02be0016
:100db0002a03be000fb897009fb897002fb997007d
:100dc000bfb99700d5ff3700ea4f50000800340044
:100dd000a2002000110009000204d80001017800df
:100de000690040004300dd0021812000c4ff37007e
:100df0004344dd0020812000080440003800be008c
:100e00002801be004f05be004f04be000080fa005e
:100e100000000600d0019000028151004240a9006c
:100e20000300340010017800014978000208e8004e
:100e300001007800000006002f04b000889fbe006b
:100e40008a9fbe008c9fbe008e1f7800000678002f
:100e5000e19f9f0082af9f006000b8006011b80062
:100e600080a79f0091a79f00a2a79f00b3a79f0004
:100e70008006eb00a3053700ef9897008100e8009b
:100e8000e19f9f0051c2b300814f500003003a0020
:100e90006f9997000007eb0011003700bc0090002d
:100ea0000000fb000168a300070032000d0178007c
:100eb000800078000c007800d6ff07000000e000fa
:100ec00005003a008f0537008c007800990507006f
:100ed000e10f40008b0532008d06e80089053700e0
:100ee00002007800b2407800d3c2b30083cf500034
:100ef0000c00320007003c00edc1510083cf5000d0
:100f00000a003200ebc1410083cf50000d003a00cf
:100f10000800370003c3b30083cf500009003a0034
:100f2000060037000e30a000edff37000e00a000d5
:100f3000ebff37000e10a000e9ff37000e20a000e5
:100f4000e7ff37000e18a300010032000e00a100d9
:100f50000e38a300010032000e20a1000101fb00a9
:100f60000203b100e90f51000e003e00800078003e
:100f70000001eb0092b79f006a11b9003100fb003d
:100f80000003b10002014000010078009101fb0064
:100f90000303b100e98f5100f7ff360092b79f00bd
:100fa0000a0037008001eb0093b79f00a2c2b30094
:100fb00082cf500005003a000faa9700c4027800c3
:100fc00084af9f0095b79f000000e800e1c2b30026
:100fd00090cf100017003a000ee0a000e4c05000cf
:100fe000d0cf100003003200800078008001eb00b9
:100ff000090037008fab9700c700780087af9f00cc
:10100000d1af9f000000e800000178000d0037001c
:101010006a1ab90084014100010078003101fb0027
:101020000203b100e90f5100f9ff3600d3af9f0072
:10103000f5ff37000ec0a0000001eb00d2af9f000b
:10104000f1ff370082017800334078000301780017
:10105000c1c6b300814f50002b003200e39f9f00b8
:1010600014003c00e8c05000814f500024003200c2
:1010700009003c00ecc05000814f50002e003200af
:10108000ebc04000814f5000980032000004e000a7
:1010900021053200b400370061c6b300814f500013
:1010a0001f003200e3c04000814f5000ae003a0004
:1010b0001300370031c7b300814f500022003200c7
:1010c00007003c00e4c05000814f50001700320080
:1010d0008140e800814f5000a3003a00160037001d
:1010e00051c7b300814f5000a4003200e3c040005c
:1010f000814f50009c003a00a0779f0010003700fd
:10110000a0779f009f003700000120000e48a30039
:1011100001003200000028000e077000c9ff3700f0
:10112000a0779f000ea0a00096003700a0779f0038
:101130000e60a00093003700a0779f000e50a00023
:101140000e70a0008f003700a0779f008fa9970036
:101150004300780083af9f00000478000000e000a7
:1011600001003a0048992000880078000000eb0058
:10117000010037000000e800614178000204e0004f
:10118000fcff3a00800478005faa97000400e000aa
:1011900003003200890f52000100310084047800fe
:1011a0008001eb009fb29700898f5200010036004a
:1011b0008981520068036700d6af9f002c003a0077
:1011c00003077800110037003c0090000068a3007e
:1011d000070032000d017800010220000c007800a9
:1011e0000cff07000000e00006003a000600370090
:1011f0008c00780000022000ce040700e10f4000c0
:10120000010032008d06e8000e07e9000e00e00044
:10121000edff3a008081eb00150037003c009000a4
:101220000068a3000900320008007800b000fb004d
:10123000000478000d0178000c007800f5fe07002e
:101240000000e00008003a000a003700880078003b
:101250003100fb00010478008c007800b504070021
:10126000e10f4000030032008d06e8000100370066
:1012700003077800090078008004e9000000e0001e
:10128000e6ff3a008e017800dfab97000700e00030
:101290009c04320003077800110037003c009000e6
:1012a0000068a300070032000d0178000102200051
:1012b0000c007800d7fe07000000e00006003a00ae
:1012c000060037008c007800000220009904070017
:1012d000e10f4000010032008d06e8000e07e90032
:1012e0000e00e000edff3a00860437008fa897005b
:1012f0004100780081af9f006102b900612bb90005
:1013000094af9f00a5af9f00b6af9f00c7af9f00ef
:101310004822de004828dd0004027000a4779f0008
:101320000e48a300090032000404e0000700320068
:10133000e14f420005003200b4779f00afd0970024
:10134000c1779f0029002000030037002fd19700ac
:10135000b2779f001900200023fb2f008f814100ee
:101360000304e80088ff3700a0779f0028fb2f00c8
:101370000f0444001900200083ff3700a0779f006e
:101380000e0cb30000702000000067006402320001
:101390000ec8a3000200320064002000d4af9f00fa
:1013a0000e48a300090032000faa97004401be00b6
:1013b0004400be0084af9f0090af9f00a1af9f008c
:1013c000b2af9f00c3af9f000a0037008faa9700fb
:1013d0004500be0085af9f00050607000002be0065
:1013e0000203be0094af9f00a5af9f00b6af9f0061
:1013f000c7af9f006022b8006033b8001fa89700f5
:10140000afa897003fa99700cfa997004a0507000a
:101410000000e0000a003d001fa89700afa8970059
:101420003fa99700cfa9970003f0a20090af9f00bb
:10143000a1af9f00b2af9f00c3af9f003e00b300bb
:101440000000eb00b09f9f006022b8006033b8003e
:101450001fa89700afa897003fa99700cfa99700b2
:10146000990507000000e0003400320064fb2f0003
:101470000f0242001fa89700afa897003fa997004e
:10148000cfa99700550607003f9897000000e90094
:101490006302b900a2002000110009000202d80076
:1014a000b09f9f000000e00002003d000000e90046
:1014b000b09f9f003f9c97000840ea00f3fd0700a3
:1014c0001faa9700afaa97003fab9700cfab97003a
:1014d0005f0607000002be000203be0084a79f0053
:1014e00095a79f00a6a79f00b7a79f006022b800fe
:1014f0000600200007ff23000f0507000000e000a2
:1015000002003d000804e9000b0037006022b8002b
:1015100006002000470224000fa097009fa097001c
:101520002fa19700bfa19700080507000000e00069
:10153000020035000804e800b89f9f00dfaa97006a
:10154000f88f52000f003c000540780072fd070044
:101550000002be000203be001fa89700afa89700bc
:101560003fa99700cfa99700760407000002be00ac
:101570000203be0094af9f00a5af9f00b6af9f00cf
:10158000c7af9f003f9c9700e90f540015003c0037
:101590006022b8006033b8001fa89700afa897007a
:1015a0003fa99700cfa99700470507000000e0007a
:1015b000320032001fa89700afa897003fa99700fc
:1015c000cfa99700a9050700e00f5000e08f580051
:1015d000e00f5900e08f590028003a00e10f540055
:1015e000260034000400200005002e00b6e0220092
:1015f000170124000fa097009fa097002fa197002c
:10160000bfa19700cc0407000000e00002003d00ed
:10161000730454000100370072045400b89f9f0007
:101620006f70970099fd07000002be000203be0024
:1016300084a79f0095a79f00a6a79f00b7a79f001c
:101640001fa89700afa897003fa99700cfa99700c0
:10165000c3040700850507000205be000004be00a4
:101660006000b8006011b80090af9f00a1af9f006c
:10167000b2af9f00c3af9f00170037001fa89700ad
:10168000afa897003fa99700cfa99700770507005b
:101690000205be000004be00a50507000002be0052
:1016a0000203be001fa89700afa897003fa99700ac
:1016b000cfa997005b0607000002be000203be0030
:1016c00094af9f00a5af9f00b6af9f00c7af9f002c
:1016d0000000eb00b09f9f00459a200014c0b300ab
:1016e000080037003500be003501be000040e100b3
:1016f00001c8e10002d0e10003d8e1000300390095
:101700000442e800f44f5200f6ff3a00a4779f002d
:101710003f9897009fb29700008052005fab970000
:10172000860050000400fb000080500090b79f002e
:101730000600e000020032000000e90090b79f00c0
:1017400063006700030032009fb397008703e9003e
:1017500097b79f000e28a300500032006101670078
:101760000e18a3000f0032003c0090000068a30098
:1017700006003200b10220000200e0000100320049
:101780008180e8000d0178000d003700b0022000d4
:101790000200e000010032000080e8008c007800c8
:1017a0000e0037000200e000330032003c009000e1
:1017b0000068a300070032000d017800010220003c
:1017c0000c00780093fd07000000e00006003a00de
:1017d000290037008c007800000220005503070024
:1017e000e10f4000240032008d06e800220037009f
:1017f0003c0090000068a3000f0032000d0178004b
:10180000010320000c007800f4b79f0085bf9f0003
:10181000d6b79f00e7b79f007efd07007fb2970015
:101820008fba97005fb39700efb397000000e00016
:101830000e003a000e0037008c00780000032000f4
:10184000f4b79f0085bf9f00d6b79f00e7b79f0002
:10185000380307007fb297008fba97005fb39700f5
:10186000efb39700e10f4000010032008d06e80061
:101870008904e900030037000802be000a03be0025
:101880009fb497000900e000d9ff3c0099b79f0082
:101890000605be000404be00670037000e38a30032
:1018a0001e003a00c8a79f00d9a79f00eaa79f0083
:1018b000fba79f009fb49700110037003c009000e9
:1018c0000068a300070032000d017800010220002b
:1018d0000c0078004ffd07000000e00006003a0011
:1018e000060037008c00780000022000110307007a
:1018f000e10f4000010032008d06e8008904e90094
:101900000900e000edff3c0099b79f004fa497004d
:10191000dfa497006fa59700ffa5970061016700fe
:101920000e18a3000e0032003c0090000068a300d7
:1019300005003200b10220000200e0002500320064
:101940008180e80023003700b00220000200e000a0
:10195000010032000080e8008c007800320037007f
:101960000200e000340032003c0090000068a30058
:10197000030032000d01780001022000160037003c
:101980008c00780000022000270037003c01900006
:101990008100fb00c09920000268a3001300320000
:1019a000c308dd00010040003002be002003be007d
:1019b0000800be000a01be004b060700a40020007c
:1019c000050020006033b8004e0607000103200028
:1019d000808040000d0178000c0078000dfd0700ac
:1019e0000000e00013003a0013003700c308dd00d8
:1019f000010040003002be002003be000800be000f
:101a00000a01be0038060700a400200005002000df
:101a10006033b8003b0607000203200000014100cc
:101a20008c00780002007800c2020700e10f40003d
:101a3000010032008d06e8002f7097008040e90019
:101a4000a1779f000004e000d0ff3a0013003700a8
:101a50003c0090000068a300070032000d017800f0
:101a6000010320000c007800eafc07000000e00001
:101a700006003a00060037008c00780000032000c2
:101a8000ac020700e10f4000010032008d06e800c3
:101a90003f9897000000e900b09f9f003f98970093
:101aa0000000e000eaff3c00dfa89700f28f500042
:101ab0000300340020c1b300a0779f00020037006c
:101ac0002fd99700a2779f002f7097008000fb000e
:101ad000dfa9970081805100d1af9f000004e00092
:101ae000100032003c0090000068a30007003200a4
:101af0000d017800e10220000c007800c5fc070011
:101b00000000e00006003a00060037008c00780074
:101b1000e002200087020700e10f400001003200d0
:101b20008d06e8002f70970058fc07000002be00e9
:101b30000203be001fa89700afa897003fa9970017
:101b4000cfa99700c20407004804070033003700fc
:101b50003c019000c19920000000fb000268a30036
:101b6000130032004300dd00008040003002be0060
:101b70002003be000800be000a01be00da0507000f
:101b8000a4002000050020006033b800dd05070038
:101b90000003b0000d017800800078000c00780090
:101ba0009cfc07000000e00011003a001100370023
:101bb0004300dd00008040003002be002003be0074
:101bc0000800be000a01be00c7050700a4002000ef
:101bd000050020006033b800ca0507000003b0000c
:101be0008c00780053020700e10f40000100320032
:101bf0008d06e8002f7297000400fb004300dd0013
:101c0000c1992000008040003002be002003be00c9
:101c10000800be000a01be00ba0507000205be00aa
:101c20000004be00af7097000140e900a0779f005c
:101c30000104e000c6ff3a0098af9f00a9af9f00e3
:101c4000baaf9f00cbaf9f00dfac97001100370009
:101c50003c0090000068a300070032000d017800ee
:101c6000010320000c0078006afc07000000e0007f
:101c700006003a00060037008c00780000032000c0
:101c80002c020700e10f4000010032008d06e80041
:101c90008904e9000900e000edff3a001fac97005d
:101ca000afac97003fad9700cfad97000e38a300c3
:101cb000140232009fb097000100e00011023400ce
:101cc000d8af9f00e9af9f00faaf9f008bb79f008e
:101cd000810478003c0090000068a30007003200f7
:101ce0000d017800010220000c00780049fc07007b
:101cf0000000e00006003a00060037008c00780083
:101d0000000220000b020700e10f4000010032003a
:101d10008d06e8008904e900eeff3a00f90137007a
:101d20000e007800000cb20021003a000e00e00026
:101d300005003d008faa97004505be004504be0082
:101d400085af9f000d0037000e48a300060032004b
:101d50000fab97004604be0086af9f004fcdde005c
:101d60008a057800050037008fab9700470478009c
:101d700087af9f00cfc4de00614db900e00f540073
:101d8000e08f5c00e00f5d00e08f5d001b003d0018
:101d90003e00b3006000b8006011b80008045000b5
:101da000898458000a0559008b85590013003700b3
:101db0000e00e00005003d000fa897004005be00a2
:101dc0004004be0080af9f000c0037000e48a30007
:101dd000050032008fa897004104be006055b8008e
:101de00081af9f00050037000fa9970042047800db
:101df00082af9f008004eb006055b800dfa9970018
:101e00000300e00009003a0014002000d4af9f0056
:101e1000e00f5400e08f5c00e00f5d00e08f5d009c
:101e2000020032008002eb00d5af9f000e03780065
:101e3000060cb20096af9f0000042000800f5300f4
:101e40002c00320003003c000600e00008003200d5
:101e50003c003700000820009fab9700808f5300a4
:101e600010003200000c2000808f530035003a0033
:101e7000459a200014c0b3003500be003501be00f5
:101e80000040e10001c8e10002d0e10003d8e10018
:101e90002b0039000442e800f44f5200f6ff3a00ec
:101ea0002700370014c0b30000012000010020000b
:101eb0006011b8000040e10001c8e10002d0e1007b
:101ec00003d8e1001e003900450020000000d000ca
:101ed0008180d2000281d2008381d2008502e90094
:101ee000faff3a000442e800f04f5200f1ff3a00d6
:101ef0001300370014c0b300800020000100200050
:101f00006011b8000040e10001c8e10002d0e1002a
:101f100003d8e1000a003900360020000000d0009c
:101f20008180d2000281d2008381d2000603e900c1
:101f3000faff3a000442e800f54f5200f1ff3a0080
:101f4000a4779f00af7397000700fb00dfa89700fe
:101f5000810f500002003d00a1779f000400370070
:101f60005fa99700800f510001003d00d0af9f0096
:101f70009fb197000300e000040032006300670097
:101f8000020032008301e90093b79f000ee8a3002e
:101f9000090032001fb29700dfaa9700850f520098
:101fa000030034000502520094b79f00020037007e
:101fb0000003eb0096b79f00af7397000700fb008c
:101fc0008000eb00c1a79f001fb19700800f510058
:101fd0000200340000005100c0a79f000e28a3009b
:101fe00044003200610167000e18a3000f003200a8
:101ff0003c0090000068a30006003200b1022000ff
:102000000200e000010032008180e8000d0178004c
:102010000d003700b00220000200e0000100320095
:102020000080e8008c0078000e0037000200e0001d
:10203000100032003c0090000068a300070032004e
:102040000d017800010220000c00780071fb0700f0
:102050000000e00006003a00060037008c0078001f
:102060000002200033010700e10f400001003200b0
:102070008d06e800cfa197000300e0006200320067
:1020800098b79f00a9b79f00bab79f00cbb79f0032
:10209000830478003c0090000068a3000700320031
:1020a0000d017800010320000c00780059fb0700a7
:1020b0000000e00006003a00060037008c007800bf
:1020c000000320001b010700e10f40000100320067
:1020d0008d06e8008904e900eeff3a00c9a79f00d9
:1020e0001fb49700afb497003fb59700cfb59700e6
:1020f00045003700cfa297000500e0001e00320027
:102100000e38a3001c003a0098b79f00a9b79f00a3
:10211000bab79f00cbb79f00850478003c009000c1
:102120000068a300070032000d01780001022000c2
:102130000c00780037fb07000000e00006003a00c2
:10214000060037008c00780000022000f90007002c
:10215000e10f4000010032008d06e8008904e9002b
:10216000eeff3a00c9a79f001fb49700afb49700d5
:102170003fb59700cfb59700610167000e18a30027
:102180000f0032003c0090000068a30006003200ff
:10219000b10220000200e000010032008180e8006e
:1021a0000d0178000d003700b00220000200e000b1
:1021b000010032000080e8008c0078000e0037003b
:1021c0000200e000100032003c0090000068a30014
:1021d000070032000d017800010220000c00780099
:1021e0000cfb07000000e00006003a000600370084
:1021f0008c00780000022000ce000700e10f4000b4
:10220000010032008d06e800dfa897000100e90018
:102210004201dd00d29f9f006301b90002027800f5
:10222000c49f9f004300dd00c19920008100400051
:10223000f19f9f0098b79f00a9b79f00bab79f0072
:10224000cbb79f0094003700dfa897008100e9001a
:10225000d1af9f00000420001fa99700800f5100fc
:102260006400320003003c000200e000080032007d
:102270006f003700000820009fa99700808f510051
:1022800048003200000c2000808f510068003a00a6
:102290000e00e0001a003d007f9a97003404be0053
:1022a0002405be000802be000a03be001fb097004e
:1022b000afb097003fb19700cfb197000a04070075
:1022c000a0779f000000fb00cf80de006109b9000d
:1022d0000802be000a03be006c0407001fb297008c
:1022e000afb297003fb39700cfb397000002520000
:1022f00081825a0002035b0083835b001700370072
:102300000e48a3001a0032001fb29700afb2970028
:102310007f9b97003604be002605be000801be0064
:102320000400be00f4b79f0085bf9f003f03070075
:10233000a0779f000000fb00cf80de000801be00f8
:102340004a0307007fb297008fba9700000052003f
:1023500081805a000002be006033b80094b79f002d
:10236000a5b79f00b6b79f00c7b79f000900370009
:10237000ff9a9700150178001fb39700110009001c
:102380000283d800a2002000110009000280d800ba
:10239000a1779f00af7397000743b000a7779f0016
:1023a00023003700309820000e58a30001003200af
:1023b000209720001fb29700afb297003fb397005d
:1023c000cfb39700df9897008100e9000500330044
:1023d0008703d1000683d3008582d3000482d30013
:1023e000f9ff37006f02620060427a00a4779f0015
:1023f0000f0037001fb09700afb097003fb19700b4
:10240000cfb197004f9a97000402e900050033000e
:102410008301d1000281d3008180d3000080d300ea
:10242000f9ff3700674060000043b000a0779f00cd
:10243000bc009000af7297000500fb000168a3008c
:10244000070032000d017800800078000c00780051
:1024500070fa07000000e00005003a0005003700b0
:102460008c00780033000700e10f400001003200cb
:102470008d06e8005f9b970064035300d69f9f0082
:10248000cf9b9700e3835300c79f9f007f989700df
:1024900068005000f09f9f00dfa897000100e00057
:1024a00069ff3a000e38a300160032004fa19700d2
:1024b0000200e00013003400020778003c009000a6
:1024c0000068a300070032000d017800010220001f
:1024d0000c0078004ffa07000000e00006003a0008
:1024e000060037008c007800000220001100070071
:1024f000e10f4000010032008d06e8000e07e90000
:10250000eeff3a00ef99970013407800a0779f0004
:102510000004e00058fa3a000d0078004f077800f8
:102520004f06be004f05be004f04be002f04b10091
:1025300000000600889fbe0001047800b8009000eb
:102540008084eb000118a3003a00320018019000cb
:102550000198a30002003a000200e00035003a00b2
:102560000190a0003104980080047800f90fb200b7
:102570000200e00002003a0028009000000c780001
:10258000ea8f540005003a000178a30003003a00e6
:1025900088007800d0002000e6ff070018009000b7
:1025a000d8009000810f50000b0032000000e800be
:1025b000100498001800780009487800000ce80022
:1025c00011c0b30020a6200001487800ea8f540013
:1025d00018003a00050037008800780009407800ac
:1025e00017000700800478001200370038009000c0
:1025f0000088a3000f00320018019000a80090008e
:1026000048009000d2f7070098009000810f50001a
:1026100004003200380090000003b300300498003a
:102620008084eb000000eb0010049800280090006c
:10263000000c7800090078004f04be00000006007e
:102640000200fa00889fbe00a0ff9f0001047800ee
:10265000380090000068a30033003a00e2006000f8
:1026600005003a000003b3003004980011049800fc
:102670000080eb002e003700d80490000900e00035
:1026800006003a0012002000e68057004800900043
:10269000aff707001904980023003700a800900046
:1026a0000100e00008003a0051a620002104980033
:1026b000010c7800210020005104980011049800ba
:1026c0000030a0003004980018019000a80090008d
:1026d000480090009ef70700280090008080eb00e3
:1026e00011049800aff8970001487800000ce8004a
:1026f0002ff89700ea4f50000b003a003800900086
:102700000088a3000800320018019000a800900083
:10271000480090008ef707000000eb0010049800be
:10272000a8009000010c7800aff897000100fb00b2
:102730004f04be000080fa000000060000c0da006e
:10274000000006002800fa00889fbe008a9fbe0095
:102750008c9fbe0007067800878669000c003b004e
:10276000030478008704780008f0a10009f0a100b4
:10277000840f5000858f5800860f5900890f5c0028
:10278000030033000cf0a20001003a000cf0a1009d
:10279000fe0007006400e1005f003200780147009e
:1027a0006408e100610032006c0147007485570045
:1027b0003200be001201be003a04be001a05be007f
:1027c0001e039000be0a90008503530006003d00e2
:1027d0000004fd008104fd000205fd008305fd00ed
:1027e0008703ea00050378000df8a3000400320017
:1027f00060041400e0841c0060051d00e0851d00dd
:102800006022b8007d0320000d38e1008006eb0057
:102810000b0039004433dd00f300b2008301730084
:1028200039003700848272000d027800e1066400ee
:102830008b85d1000a85d3008984d3000884d30016
:102840008703e900f7ff3b0008004000898048004b
:102850000a0149008b81490004003b006000100020
:10286000e080180060011900e08119000358a300fe
:10287000090032008d827200848272006102600061
:102880008301d1000281d3008180d3000080d30076
:102890000603e8001b0037000348a30017003a00b6
:1028a0000600e000170034000603e9000d00a30055
:1028b00000004800818048000201490083814900ee
:1028c0000348a3000f003a000600e00009003400ae
:1028d0000603e90000004000818048000201490031
:1028e0008381490001003a000003eb000348a30084
:1028f000f5ff32006022b8000200370084827200c7
:10290000618266007500070003f0a1000cf0a700cb
:1029100003f0a000b1003700640147006408e10043
:1029200002003a000df8a300a9003a003200be00f0
:102930001201be00a90037008f1fd100fc02070062
:102940008f87e9000000e00000000600809feb0098
:10295000f70207008f87e9000000e0000000060092
:102960002800fa00889fbe008a9fbe008c9fbe0090
:1029700003866b00850007006400e100440032001c
:102980006408e1004a0032006100e10046003200c4
:102990006108e10049003200ec0647006000b80021
:1029a0003d02be003d03be00f48657006011b80032
:1029b0003d04be003d05be007d0320000b00370036
:1029c0000000a0008d06e90013003200040242005e
:1029d00085824a0006034b0087834b0000004000bd
:1029e00081804800020149008381490008025200a9
:1029f00089825a000a035b008b835b00f0ff3b0077
:102a00000802420089824a000a034b008b834b0074
:102a10008d06e900edff3a00848272008682720022
:102a2000f707b20087827200010032001500200013
:102a30001e0490003e0b900006035400e63fb000d9
:102a40000368a300070032000000a7000500a000f3
:102a50008301d1000281d3008180d3000080d300a4
:102a60000603e8008301d1000281d3008180d300f6
:102a70000080d3000002eb000482d20017000700a0
:102a800003f0a1000cf0a70003f0a00053003700f2
:102a9000640247006408e1004d0032003400be00cb
:102aa0003401be00f6ff37006108e1004800320043
:102ab0006011b8006000b800f1ff370003ff270085
:102ac00002002000fbff3700801feb009802070088
:102ad0008f87e9000000e0000000060018002000d9
:102ae00057002000080453000d003d0006002000a0
:102af00097fc2f000740e1001e0034008482720022
:102b0000610260008301d1000281d3008180d30083
:102b10000080d3000804e800f8ff3a0047002000d6
:102b20006104600005047400040464000d003200b8
:102b300061004000e080480060014900e0814900f8
:102b400003b8a500070032000603e8006538e1007d
:102b500004003a008301d1000281d3008180d300b8
:102b60000080d300f87f20000830e100030035002a
:102b7000080378006000b8006011b8004433dd003d
:102b8000f300b200830173000000060068044700f0
:102b90000294be000094be00fc0447008694be0070
:102ba0008494be0009007800aa020700080078009b
:102bb000a802070099007800814f70000b003b00cd
:102bc0000800be00830207004f00b1000300370079
:102bd000f3ff2700f2ff2f006110b9004f06be007f
:102be0004f05be004f04be000080fa000000060042
:102bf0008103780012f707000001be006000b800f2
:102c00000478a30013003a006220e10015003e00a2
:102c10000d0039008301d1000281d3008180d300ef
:102c20008301d1000281d3008180d3008301d100d0
:102c30000281d3008180d3000538b000c42add00b2
:102c4000f300b2008381720007f0a70003f0a00038
:102c500000000600f3ff2700f2ff2f006110b9000b
:102c6000fbff370003ff2700f7ff37001400fa00cf
:102c7000889fbe008a9fbe008c9fbe000004be00dd
:102c80000205be00680047000a90be000890be0022
:102c9000700207000070a7000bf0a1000bf8a30062
:102ca00020003a009e0990000e099000fe0090005e
:102cb0006e0090009e0290003443200084825200f7
:102cc000c6ff32000a003c00b4fc2f000428e100db
:102cd000140034008301d1000281d3008180d3002d
:102ce0000080d3008502e800faff3a00bbff3700fe
:102cf000b40020000428e10007003c000000400070
:102d00008180480002014900838149008502e90071
:102d1000faff3a00b1ff370003002800020020004c
:102d2000010037006011b8006000b800abff370049
:102d3000889fbe000082700004027100048271004e
:102d40002400320036432000c50020008383cf00da
:102d50000a0039000541b1008283cf000700390025
:102d60000541b1008183cf00040039000541b10065
:102d70008083cf00010039000541b10085c35300b5
:102d80006022b800120032000a003b008482720008
:102d9000610260008301d1000281d3008180d300f1
:102da0000080d3000603e8008743e800f7ff3a00fd
:102db0000700370000004000818048000201490000
:102dc000838149000603e9008743e900f9ff3a00df
:102dd00042ff07004f04be00000006001400fa0086
:102de000889fbe008a9fbe008c9fbe0004067800ac
:102df0000004be000205be00680047000a90be0045
:102e00000890be00130207006200e1000800be0047
:102e10000a01be00040020000b003a001e029000d0
:102e2000e43fb1006e009000fe0090000e0990009b
:102e30009e099000f300b20005fe23008581710019
:102e40000bf0a70003f0a000040e780063ff37002a
:102e50002800fa00889fbe008a9fbe008c9fbe009b
:102e600003866b0049ff07000028a30064003a00b6
:102e70000128a30067003a000008a30062003a009e
:102e80000108a30065003a001e009000be089000f3
:102e900081064000ed3fb100f4805700ee01900044
:102ea000111ab8008e099000311bb8009e099000dd
:102eb000311cb800511db800f485570046000700ca
:102ec000fe0190003a0007008b85e8003e000700f5
:102ed0008e09900040000700ee01900034000700ca
:102ee0008b85e800380007008e099000400007003d
:102ef0009e0990001b18b800890440000a8548000c
:102f0000fe019000340007008b85e80038000700c0
:102f1000ee019000300007008e0990001b18b800e9
:102f2000890440000a8548000a98a30008003a0076
:102f30000402420085824a0006034b0087834b004f
:102f400008044c0089844c000a054d008d06e900f8
:102f500084827200850273004c3add0085027200a3
:102f60000100320015002000443ade001400b200d7
:102f70004538de00cb45dd000b007000c540de00ab
:102f8000cb4ddd008b8070004549de00cb55dd0068
:102f90000b017100c551de000d037800cffe070064
:102fa00003f0a1000cf0a70003f0a0000bff370016
:102fb0001b18b8008502400006834800e0834b00e0
:102fc00060044c00070037001b18b80006034000df
:102fd00087834800faff37001b18b80087034000ba
:102fe00008844800e0844c0060054d0000000600a5
:102ff0001b18b8000804400089844800faff370015
:103000000108a300f2fe3a005800be005801be00bd
:10301000e3ff37000008a300edfe3a000904780042
:10302000f9ff370007f0a200c6fd37006022b800a4
:10303000060220000000d0008180d2000482d2006d
:103040008582d2000000a0000202520083825a0052
:10305000030031000202420083824a000000a10006
:103060000603e900f3ff3a0000000600020ab90077
:10307000001bb9000200b80081004200810043003b
:1030800000000600889fbe008a9fbe0030044200f8
:10309000b0844a0030054b0090854b006000b100c1
:1030a0000898be000a90be000440e10005c8e10097
:1030b00006d0e10007d8e1000200310068004000be
:1030c0001008e8004f05be004f04be0000000600d7
:1030d000889fbe008a9fbe003004be002005be004f
:1030e0000418540005985c0006185d0007985d0000
:1030f000110020000440e10005c8e10006d0e10015
:1031000007d8e100010039008000eb0010881000b2
:103110004f05be004f04be00000006001200fa007a
:10312000889fbe008a9fbe008c9fbe00e0b79f00b4
:10313000f1b79f0082bf9f0093bf9f000605be00ae
:103140000404be000000eb00d0b79f00c0b79f0092
:10315000b0b79f00a0b79f0090b79f000006eb009c
:103160005fb19700cfb09700820141003fb0970058
:103170000200e00004003d00370007007e80570099
:10318000c0ff070003003700330007007e805700b0
:10319000cfff0700dfb697000d00e0000c00350000
:1031a0006fb29700ffb297000fbb97009fbb9700cd
:1031b00010002000010020006011b8000002720021
:1031c0008182720002037300838373001b00070077
:1031d0000c06e80001042000810f5600e0ff3a00d1
:1031e0000d00e00004003d000802be000a03be001e
:1031f0007e805700a3ff07005fa897000000e00053
:1032000005003a001fb29700afb297003fb3970096
:10321000cfb39700090007006fb09700ffb0970089
:103220000fb997009fb997004f06be004f05be002b
:103230004f04be000080fa000000060001000700f5
:1032400000000600a4b79f00b5b79f00c6b79f0057
:10325000d7b79f00000006004f09de008281710091
:10326000b3b79f004f01de00818040008280700074
:10327000a1b79f008fb097004f09de00000040000b
:103280000200700090b79f007fa897004f01de00fa
:10329000818040008280700081b79f000d00070090
:1032a0004f3ade000000400004007000f0af9f00c5
:1032b000080007000402420085824a0006034b0012
:1032c00087834b00dfff07000802be000a03be0031
:1032d000000006002fb29700bfb297004fb39700cf
:1032e000dfb3970000000600881f78001800200058
:1032f000881f780089ff07008f87e9004f04780056
:1033000000000600801feb0084ff07008f87e900a4
:1033100000000600889fbe008a9fbe00e00f50009c
:10332000e08f5800e00f5900e08f59000c003d007d
:103330006044b8006055b8000000540081805c0013
:1033400002015d0083815d00180020001500070068
:1033500008003d00180007000004eb0005003700de
:103360000004eb000f00070002003d001200070000
:1033700018002000dcff07000800e0000600320013
:103380006022b8006033b8000000520081805a000b
:1033900002015b0083815b004f05be004f04be004d
:1033a00000000600e00f5200e08f5a00e00f5b00c3
:1033b000e08f5b00000006006044b8006055b80074
:1033c0000402540085825c0006035d0087835d0073
:1033d00000000600889fbe008a9fbe008c1f7800f8
:1033e000e00f5000e08f5800e00f5900e08f5900c7
:1033f0000d003d006044b8006055b8000000540066
:1034000081805c0002015d0083815d001c00200062
:103410000820e10009a8e1000ab0e1000bb8e100d2
:103420000d003d00080037000006eb00e00f5200e1
:10343000e08f5a00e00f5b00e08f5b0006003d006c
:103440006044b8006055b8000402540085825c00f6
:1034500006035d0087835d00aaff07000c00e00003
:10346000060032006022b8006033b800000052004d
:1034700081805a0002015b0083815b004f06780067
:103480004f05be004f04be0000000600889fbe002e
:103490008a9fbe008c1f78000006eb00e00f5000f2
:1034a000e08f5800e00f5900e08f590007003d0001
:1034b0006044b8006055b8000000540081805c0092
:1034c00002015d0083815d001c002000e00f5200be
:1034d000e08f5a00e00f5b00e08f5b0007003d00cb
:1034e0006044b8006055b8000402540085825c0056
:1034f00006035d0087835d000c00a2007c000700ce
:103500000c00e000060032006022b8006033b80012
:103510000000520081805a0002015b0083815b0041
:103520004f0678004f05be004f04be0000000600a5
:10353000889fbe008a9fbe008c9fbe000404be0010
:103540000605be00809fbe00829fbe002f000700c0
:10355000040678000800be000a01be002b00070028
:10356000840678004f03be004f02be008d4f7600e8
:103570007fb0970013003300f0ff2f008b8f6b009c
:1035800006003b000d0666000c00a7000a0037008d
:1035900007f0a600100020000a003700880f520034
:1035a000898f5a008a0f5b008b8f5b000300390004
:1035b0001000200001003e000000200007f0a700de
:1035c0000000ea004f06be004f05be004f04be00db
:1035d00000000600e48240001078a30007003200db
:1035e000640240001178a3003400be001401be0044
:1035f000040032000330a700000006003500be00c2
:103600001501be000330a0000000060005ff2700e2
:1036100005826100070032000428e1000100320049
:10362000240005000600070001003a0044000500e0
:103630000408050002000700f9ff3a001400050025
:103640006f82610081027000850271008502720044
:1036500000000600800078005002be005003be004b
:103660004439de00f700b200f37f2000030161005f
:10367000090032000218e10016003a0085017200cc
:1036800083017300838173000008200015003a0055
:103690004000200013003700850172008301730091
:1036a0008381730005003a0004a8be0006a8be008e
:1036b000100020000b0037000201e9000402420064
:1036c00085824a0006034b0087834b000748a3000e
:1036d000f9ff32000740a00004a8be0006a8be0003
:1036e0002000200080009800920098000000060052
:1036f000889fbe008a9fbe008c9fbe000404b80055
:103700000506b8008904460060854e000606b8002c
:103710000a054600e0854e000706b8008b05460006
:10372000040eb800890446000a854e00e0854d006d
:10373000050eb8000a0546008b854e00060eb8003f
:103740008b0546000416b8000a0546008b854e001e
:103750000516b8008b054600041eb8008b05460010
:103760000800be000a01be004f06be004f05be00a5
:083770004f04be00000006003a
:020000040000fa
:1037780014000000496e00006974000069610000cf
:103788006c6900007a610000746900006f6e0000c7
:10379800204300006f6d0000706c0000657400002d
:1037a800650a0000004f00006e65000020680000f8
:1037b8006f75000072200000676f00006e650000e2
:1037c80020620000790a000000200000202000008c
:1037d800204e0000455800005420000044410000dd
:1037e800592000000a000000616e00006f7400009c
:1037f8006865000072200000686f000075720000a4
:10380800206f0000662000007761000074650000ea
:10381800720a000000410000626f00007574000029
:10382800207400006f20000052450000534500003e
:10383800540a00000052000065730000657400001f
:10384800746900006e6700000a0000002566000029
:103858000042000061740000746500007279000085
:10386800203d0000200000000a0000002564000040
:10387800004400006179000020000000203a0000a8
:08388800200000002e000000ea
:020000040000fa
:103890000000fa002023ef0021e3a90000198000b6
:1038a0000080a1000090a10000198800001980008c
:1038b0000050a1000060a1000070a1000019880064
:1038c000001980000050a0000060a0000070a0005f
:1038d000001988002043a9002023a9002223ef001b
:1038e0002119800000f021000100700020198800db
:1038f0002119800000fc2f00008060000010a00053
:103900002019880028e3a9003023ef000080fa0086
:10391000000006000200fa00000f78001e00780088
:10392000e40f500008003a00c842a8004019800087
:103930000000a1000010a1000020a0000030a100a4
:10394000401988000000000021e3a8002023a800ff
:103950000000000000198000610060000000e0002d
:10396000fcff320021e3a900001880000080fa006b
:10397000000006001600fa006000b800008fbe00cc
:103980000000eb0020079800ca82a800a0002000d9
:103990003a0207001900070020079800ae009000c7
:1039a000b006200000017800110009008200d80054
:1039b000cf80de0077f30700008fbe00660147006e
:1039c0001e00be00809fbe00a0c22900801f78009c
:1039d000020078003af40700e6875700d0c22900b9
:1039e000e800070066004700e600070080c32900e2
:1039f000e40007000080fa00000006000000fa0062
:103a000021e3a8002023a800000000000019800086
:103a1000610060000000e000fcff320021e3a9002b
:103a2000001880000080fa00000006000400fa0080
:103a3000004f78009e00fb0000012000000178008c
:103a4000110009008200d800004078006a00b90027
:103a50000000780000407800204798001e01fb001d
:103a60000001200080017800110009000301d80046
:103a70008000fd0000407800ae40900000c0400093
:103a80000080fa00000006000400fa00004f7800f1
:103a90009e00fb00a000200000017800110009003a
:103aa0008200d8000040780080407800400020006c
:103ab0000008dd00204798001e01fb00a000200048
:103ac00080017800110009000301d8008000fd008a
:103ad00000407800ae40900000c040000080fa0036
:103ae000000006000600fa00200798002e00900053
:103af0004480de006f0f60002e0090006f006000b9
:103b0000100798001e0078006a00b9008000780055
:103b10001e009000008040000080fa0000000600b7
:103b20000600fa00200798002e0090004c00de00ee
:103b3000000f78002e0090004880de006f006000cb
:103b4000100798001e0078006a00b9008000780015
:103b50001e009000008040000080fa000000060077
:103b60000800fa00881f7800004f7800114798007d
:103b700022479800334798004447980055479800db
:103b80006647980057052000373b8800a70a2000a9
:103b9000373b880027a6a80027a6a8003031800060
:103ba0000080a0000090a000303188006e4090009e
:103bb000b5ff07000000fb00203188004e40900058
:103bc000b1ff07000004fb005e409000aeff07005d
:103bd0000000fb004800dd000000440020318800a8
:103be0002e409000a8ff07000004fb003e4090001c
:103bf000a5ff07000000fb004800dd0000004400b6
:103c0000203188001e4078009fff07000004fb0061
:103c10001e4090009cff07000000fb004800dd00f4
:103c2000000044002031880027e6a80027a6a9004c
:103c30004f0478000080fa00000006000600fa0039
:103c40000040eb00004f7800303180000080a10080
:103c50000090a0003031880027a6a9002031800004
:103c60008000eb0010079800210798001e009000cc
:103c7000ae0090004809dd004800de000000710041
:103c8000c888de00004078007f4f60001e4078004a
:103c900066ff07000000fb000080fa00000006003d
:103ca0000600fa000040eb00004f78003031800041
:103cb0000080a1000090a0003031880027a6a90054
:103cc000203180008000eb00100798002107980049
:103cd0001e00900000407800f1c3b300014f600067
:103ce0001e40780051ff07000000fb000080fa0032
:103cf000000006000600fa000040eb00004f7800cc
:103d0000303180000080a0000090a1003031880098
:103d100027a6a900203180008000eb001007980042
:103d2000210798001e00900000407800f1c3b30006
:103d3000014f60001e4078003cff07000000fb00c0
:103d40000080fa00000006000400fa001007980046
:103d50000000eb00000f7800010037001e0fe800a4
:103d60001e0078009e009000008040001040780007
:103d70000004e000f9ff3a001e0078000080fa001d
:103d8000000006000600fa00200798000000eb0083
:103d9000000f78000000eb00100798002e00900044
:103da000e9ff0700100798000d0037000000000031
:103db0001111800000202000008060000000e00061
:103dc000fbff3a001e007800ae009000008040002b
:103dd000104078000000fb00201188001e0fe80052
:103de0001e0090009e007800808f5000efff35008d
:103df0000080fa00000006003600fa003140800022
:103e0000010f7800310037001e00780000004000ec
:103e1000100798001e00900053000700200798002c
:103e20001e0090000000e800100798001e0090009f
:103e30004d00070030079800600220000e0040008f
:103e40009e1f7800a1c32900811f78001cf3070082
:103e5000e487570068004700ae009000811f78009b
:103e6000a1c32900811f780015f30700e4875700dc
:103e700077004700be009000811f7800a1c3290091
:103e8000811f78000ef30700e4875700d0c3290094
:103e9000bcff0700600220000e004000b9ff0700d1
:103ea00020c42900b7ff070068004700b5ff0700de
:103eb00060c42900b3ff070077004700b1ff070087
:103ec00080c32900afff07001e0fe9001e00780025
:103ed0000000e000ccff3d000080fa00000006007a
:103ee0000600fa00100798002107980040002400ff
:103ef000003b8800f00720000040780032e0b70067
:103f000001e02f001e00900000004000000178003a
:103f1000f01f200000006100008f4000ae00900004
:103f20001e0078000108bb000500fc0050052000c1
:103f3000303b8800a00a2000303b880061e7a800e1
:103f4000000000000000000000000000013b8000b5
:103f500000002800008060000000e000fbff3a0045
:103f60000080fa00000006000600fa002007980012
:103f7000f00720000040780032e0b70001e02f0099
:103f80002e0090000000400000017800f01f20008b
:103f900000006100008f40001e0078001000ba0091
:103fa000100798001e0090000080fa000000060034
:103fb0000800fa002007980031079800be00900022
:103fc000010f78002e0090004200dd0020079800cd
:103fd000f00720000040780032e0b70001e02f0039
:103fe0002e019000f01f20000000610000804000c2
:103ff000100798001e0090009000ba001e00780084
:10400000010878001e8fe8002e0090000080e80074
:1040100020079800f00720000040780032e0b70049
:1040200001e02f002e019000f01f20000000610031
:1040300000804000100798001e0090009000ba0019
:104040001e007800010878000080fa0000000600d9
:104050000800fa002007980031079800be00900081
:10406000010f780040002400003b88002e009000e3
:104070004200dd0020079800f00720000040780093
:1040800032e0b70001e02f002e019000f01f200069
:104090000000610000804000100798001e007800ba
:1040a000900078001e0090000108bb000500fc0095
:1040b00050052000303b8800a00a2000303b8800db
:1040c00061e7a80000000000000000000000000000
:1040d000013b800000002800008060000000e0003c
:1040e000fbff3a001e8fe8002e0090000080e800e1
:1040f00020079800f00720000040780032e0b70069
:1041000001e02f002e019000f01f20000000610050
:1041100000804000100798001e0078009000780092
:104120001e0090000108bb000500fc0050052000a7
:10413000303b8800a00a2000303b880061e7a800df
:10414000000000000000000000000000013b8000b3
:1041500000002800008060000000e000fbff3a0043
:104160000080fa00000006000000fa006000b800bd
:104170001040880021408800218020000000eb00d2
:10418000b3ff07002180200010002000b0ff0700cf
:104190002180200020002000adff070021802000aa
:1041a00030002000aaff07002180200040002000ee
:1041b000a7ff07002180200050002000a4ff070077
:1041c0002180200060002000a1ff07002180200046
:1041d000700020009eff070021802000800020004a
:1041e0009bff0700218020009000200098ff07001f
:1041f00021802000a000200095ff070021802000e2
:10420000b000200092ff070021802000c0002000a5
:104210008fff070021802000d00020008cff0700c6
:1042200021802000e000200089ff0700218020007d
:10423000f000200086ff0700218020000001200000
:1042400083ff0700218020001001200080ff07006d
:1042500021802000200120007dff07002180200018
:10426000300120007aff070021802000400120005b
:1042700077ff07000080fa00000006000200fa0045
:10428000000f7800500e2000600888000d003700f5
:104290000621ef0084e0a90011e1a8000000000061
:1042a0002104800000082000008060000000e00081
:1042b000fbff320011e1a9001e0078000000e900b8
:1042c000000f78001e0078000000e000f0ff3c00c6
:1042d0000080fa00000006003400f800881f780013
:1042e00008002000a80188004f0478000000fa00b0
:1042f0008bc0a9000080fa003400f90000400600dd
:104300000000fa00871f7800881f78000500fc0075
:1043100057052000373b8800a80a2000383b88005a
:1043200027a6a8004f047800cf03780000202200c1
:104330003031880023c6a90023e6a90027e6a8009b
:1043400027a6a900100680000080a0000090a10010
:1043500000a0a10010068800100680000080a000c8
:104360000090a10000a0a100100688008bc0a90049
:104370009bc0a8000080fa00000006000200fa00be
:10438000000f7800871f7800881f78000500fc0068
:1043900057052000373b8800a80a2000383b8800da
:1043a00027a6a8004f047800cf03780027e6a800ce
:1043b0001e007800004078006f4060000080fb0025
:1043c0006f0060004a00dd0012318000f13f2c00d8
:1043d0008100610001007000103188001031800000
:1043e0000080a1000090a000103188002026ef007e
:1043f0002026ef002026ef002266ef0023e6a8002b
:1044000027a6a9000040fe0000000000871f7800da
:10441000881f78000500fc0057052000373b880006
:10442000a80a2000383b880027a6a8004f0478007f
:10443000cf03780027e6a900303180000080a1007a
:104440000090a100303188002426ef0027a6a900a3
:104450000080fa00000006000000fa00013a800027
:1044600000002800008060000000e0000100320031
:1044700041e7a900013a80000000240000806000ac
:104480000000e0000100320041c7a900013a8000ad
:1044900000402000008060000000e00001003200c9
:1044a0004147a900013a8000000820000080600018
:1044b0000000e0000100320040e7a900013a80005e
:1044c00000042000008060000000e00001003200d5
:1044d00040c7a900003a8000700060000000e000c2
:1044e000010032004087a900003a800068006000a7
:1044f0000000e000010032004067a900003a80009f
:10450000640060000000e000010032004047a900a4
:10451000003a8000620060000000e000010032000c
:104520004027a900003a8000610060000000e00020
:10453000010032004007a9000080fa0000000600d8
:104540000000fa002005800000c0a10000d0a100fa
:1045500000e0a000200588000021ef0000002200fc
:1045600020088800200880000040a0000050a10022
:10457000200888008460a9009460a9000080fa00e7
:10458000000006000000fa000621ef0000002200f3
:104590008008880084e0a90094e0a9000080fa0067
:1045a000000006000000fa002222ef002062a800ae
:1045b000c00020004011880021e2a8002342a8008a
:1045c0000080fa00000006000000fa000080eb0006
:1045d000601988000080eb00001688000080eb0066
:1045e00040168800c8e2a900c042a900c242a80043
:1045f000c882a900ca82a900c082a900c282a900fb
:104600006100a8009660a800a1fc0700e5ff070074
:10461000cbff0700dbff070016c1b30065c0b30086
:1046200094c0b30053c0b300e2c0b300a1c0b30054
:104630000040eb004afd07000080fa000000060081
:104640000200fa0010002000000f78008013200004
:10465000600888000621ef0084e0a90011e1a800ad
:10466000080037002104800000082000008060005e
:104670000000e000030032000000eb00000f7800b3
:1046800084e0a90010168000620060000000e000d5
:10469000030032001e0078000000e000f1ff3a0045
:1046a0000621ef00080037002104800000082000e8
:1046b000008060000000e000030032000000eb001a
:1046c000000f780084e0a9001016800062006000ee
:1046d0000000e00003003a001e0078000000e00047
:1046e000f1ff3a000621ef000800370021048000a6
:1046f00000082000008060000000e000030032009d
:104700000000eb00000f780084e0a9001016800084
:10471000620060000000e000030032001e0078002c
:104720000000e000f1ff3a0011e1a9001e0078004e
:104730000080fa00000006003400f800881f7800ae
:1047400008002000a80188004f0478000000fa004b
:104750000080fa003400f90000400600809fbe008f
:104760003400f80000002000a00188000000fa00da
:1047700030048000680060000000e00007003200a4
:104780001116800000042000008060000000e0009e
:104790000200320010002000604088008660a900fe
:1047a0000080fa003400f9004f00be00004006000f
:1047b0001000fa0028ff0700203a80000080a100c6
:1047c0000090a10000a0a100203a88007eff070011
:1047d000e0bb29006bfd07000000eb00000f780034
:1047e0000000eb00100798008001200020079800cf
:1047f0000000eb00300798000628ef00c9e2a9008e
:104800008460a9000021ef0005e1a80090d02300fa
:10481000100888000100370000000000cbe2a9006a
:104820000000000020048000680060000000e0003c
:10483000fcff32008460a9000021ef00cbe2a80059
:104840003e0090000000e800300798003e00900015
:10485000e40f5000110034002e0090000000e90029
:104860002007980070bd290046fd07000000eb00fe
:10487000300798002e0090000000e00007003a008a
:10488000304080000000e8003040880080012000b7
:104890002007980090be29003afd070031408000b3
:1048a00040408000808f5000220034004040800053
:1048b00000004000400798000000eb0050079800ff
:1048c0001e009000800078004e00900084fd0700dc
:1048d0000000eb00100798001e0078008000eb003d
:1048e000afef070002002000030a240046ef070094
:1048f00002002000a3472400feef070084ef07001a
:10490000500798004e0090000000e8004007980013
:10491000de0090004e00900071fd07000000eb00eb
:10492000500798000000eb00000f78003040800036
:104930004040880042ff07000000e0000b0032000a
:104940001e0fe8001e007800e40f5000070036003c
:104950001e0090000000e800100798000000eb0027
:10496000000f780080bf290006fd07000ec8bf00b9
:104970000004e0001e003200111680000004200038
:10498000008060000000e0001700320080408000de
:104990000000e8008040880080408000e70f500061
:1049a00002003a00f0c02900f6fc070080408000b9
:1049b000ea0f50000e003400f0c12900f1fc07009e
:1049c0000000eb00000f78000000eb0010079800db
:1049d0001028ef000628ef0030408000404088009b
:1049e0000e68ef00020037001028ef000e68ef009d
:1049f000604080000000e00087ff32000000eb0014
:104a0000600798000c28ef00304080000000400054
:104a1000700798001e009000800078007e009000d3
:104a20002ffd07001e0078008000eb005cef070000
:104a300002002000030a2400f3ee07000200200019
:104a4000a3472400abef070031ef07006007980091
:104a50007e0090000000e80070079800ee009000d3
:104a60007e0090001efd0700e3fc070010c0b300ad
:084a70000ee8b70069ff3700f2
:020000040000fa
:104a78000c0800000600000000000000000800000c
:104a88000c0000000000000072090000ca000000cd
:104a98000200000030313200333435003637380038
:104aa800394142004344450046003000313233006a
:104ab8003435360037383900616263006465660052
:104ac80000286e00756c6c002900000001000000d1
:104ad8000000000000000a000000000000000000c4
:104ae800006400000000000000000000e80300006f
:104af8000000000000001000270000000000000077
:104b080000a08600010000000000000040420f00e5
:104b180000000000000080009698000000000000df
:104b28000000e100f50500000000000000ca9a003e
:104b38003b00000000000000e40b540002000000ed
:104b48000000e80076481700000000000010a500eb
:104b5800d4e8000000000000a0724e001809000010
:104b6800000040007a10f3005a0000000080c600e0
:104b7800a47e8d000300000000c16f00f2862300b0
:104b8800000000008a5d78004563010000006400b1
:104b9800a7b3b600e00d000000e889000423c700b1
:104ba8008a000000120800006001000002000000f6
:104bb8000000000000000000f03f000000000000be
:104bc80000002400400000000000000000594000e0
:104bd80000000000000040008f40000000000000be
:104be8000088c30040000000000000006af8400090
:104bf80000000000008084002e410000000000003a
:104c0800d01263004100000000008400d7974100e3
:104c1800000000000065cd00cd410000000020002c
:104c28005fa002004200000000801d00af15440094
:104c38000000000040593e00294600000000000026
:104c48000000f0007f0000000000000000f07f007e
:104c58000000000000000000f07f000000000000dd
:104c68000000f0007f0000000000000000f07f005e
:104c78000000000000000000f07f000000000000bd
:104c88000000f0007f0000000000000000f07f003e
:104c98000000000000000000f07f0000000000009d
:104ca8000000f0003f00000000a0990099b93f0003
:104cb8000000000040e17a00843f00000000e000ae
:104cc8004d6250003f00000000e0e200361a3f004d
:104cd8000000000080b5f800e43e00000000a000dd
:104ce800f7c6b0003e00000000a0f200d77a3e00f0
:104cf80000000000e08e7900453e00000000e00062
:104d08000b2e11003e00000000e0df007cdb3d00c0
:104d18000000000000a19c00c73b0000000000004c
:104d28004c48b40039000000000020006ca1370096
:104d3800000000000000000000000000000000006b
:104d4800000000000000000000000000000000005b
:104d5800000000000000000000000000000000004b
:104d6800000000000000000000000000000000003b
:104d7800000000000000000000000000000000002b
:104d880000000000000000003c0a000026000000af
:104d980002000000630a000000630a000900000026
:104da80000020000650a000000650a000e0201000a
:104db80000000000000000000000000006020200e1
:104dc800000000003c0a0000620a00000600000023
:104dd80000000000680a0000020000000200000055
:084de80001000000f826800024
:020000040000fa
:044df00000000000bf
:020000040000fa
:0200000400fffb
:04fc00000000000000
:020000040000fa
:0200000401f009
:04000000ffff0000fe
:020000040000fa
:0200000401f009
:04000800ffff0000f6
:020000040000fa
:0200000401f009
:04000c0006000000ea
:020000040000fa
:0200000401f009
:04001000bb00000031
:020000040000fa
:0200000401f009
:040014005f00000089
:020000040000fa
:0200000401f009
:04001800fb000000e9
:020000040000fa
:0200000401f009
:04001c00c30000001d
:020000040000fa
:0200000401f009
:04002000df000000fd
:00000001FF
