:020000040000fa
:080000000002040000000000f2
:020000040000fa
:10000800ae120000ae120000ae120000ae120000e8
:10001800ae120000ae120000ae120000ae120000d8
:10002800ae120000ae120000ae120000ae120000c8
:10003800ae120000ae120000ae120000ae120000b8
:10004800ae120000ae120000ae120000ae120000a8
:10005800ae120000ae120000ae120000ae12000098
:10006800ae120000ae120000ae120000c012000076
:10007800ae120000ae120000ae120000ae12000078
:10008800ae120000ae120000ae120000ae12000068
:10009800ae120000ae120000ae120000ae12000058
:1000a800ae120000ae120000ae120000ae12000048
:1000b800ae120000ae120000ae120000ae12000038
:1000c800ae120000ae120000ae120000ae12000028
:1000d800ae120000ae120000ae120000ae12000018
:1000e800ae120000ae120000ae120000ae12000008
:1000f800ae120000ae120000ae120000ae120000f8
:10010800ae120000ae120000ae120000ae120000e7
:10011800ae120000ae12000010150000ae12000072
:10012800ae120000ae120000ae120000ae120000c7
:10013800ae120000ae120000ae120000ae120000b7
:10014800ae120000ae120000ae120000ae120000a7
:10015800ae120000ae120000ae120000ae12000097
:10016800ae120000ae120000ae120000ae12000087
:10017800ae120000ae120000ae120000ae12000077
:10018800ae120000ae120000ae120000ae12000067
:10019800ae120000ae120000ae120000ae12000057
:1001a800ae120000ae120000ae120000ae12000047
:1001b800ae120000ae120000ae120000ae12000037
:1001c800ae120000ae120000ae120000ae12000027
:1001d800ae120000ae120000ae120000ae12000017
:1001e800ae120000ae120000ae120000ae12000007
:0801f800ae120000ae1200007f
:020000040000fa
:10020800ae120000ae120000ae120000ae120000e6
:10021800ae120000ae120000ae120000ae120000d6
:10022800ae120000ae120000ae120000ae120000c6
:10023800ae120000ae120000ae120000ae120000b6
:10024800ae120000ae120000ae120000ae120000a6
:10025800ae120000ae120000ae120000ae12000096
:10026800ae120000ae120000ae120000c012000074
:10027800ae120000ae120000ae120000ae12000076
:10028800ae120000ae120000ae120000ae12000066
:10029800ae120000ae120000ae120000ae12000056
:1002a800ae120000ae120000ae120000ae12000046
:1002b800ae120000ae120000ae120000ae12000036
:1002c800ae120000ae120000ae120000ae12000026
:1002d800ae120000ae120000ae120000ae12000016
:1002e800ae120000ae120000ae120000ae12000006
:1002f800ae120000ae120000ae120000ae120000f6
:10030800ae120000ae120000ae120000ae120000e5
:10031800ae120000ae12000010150000ae12000070
:10032800ae120000ae120000ae120000ae120000c5
:10033800ae120000ae120000ae120000ae120000b5
:10034800ae120000ae120000ae120000ae120000a5
:10035800ae120000ae120000ae120000ae12000095
:10036800ae120000ae120000ae120000ae12000085
:10037800ae120000ae120000ae120000ae12000075
:10038800ae120000ae120000ae120000ae12000065
:10039800ae120000ae120000ae120000ae12000055
:1003a800ae120000ae120000ae120000ae12000045
:1003b800ae120000ae120000ae120000ae12000035
:1003c800ae120000ae120000ae120000ae12000025
:1003d800ae120000ae120000ae120000ae12000015
:1003e800ae120000ae120000ae120000ae12000005
:0803f800ae120000ae1200007d
:020000040000fa
:100400000f9020000edf20000e0188000000000089
:1004100000012000200288000c0007000065210078
:100420000100200011000700000020000000e00093
:10043000020032000000020000000000ba130200b7
:10044000000000000040da000000fe004440a90067
:10045000c00520000000e000030032000000200082
:10046000a00188004440a800000006009101880017
:10047000800078000000eb0015003700e2804000ab
:1004800032a0b4009101ba00e280400032a0b40072
:100490009102ba00e280400032a0b4000002eb00fa
:1004a000472bde00f507b200602ce10004003a00a3
:1004b0000059eb008301e900fdff3e000400370016
:1004c0006128e100010032000082eb000400070017
:1004d0001101ba000200e000e8ff3a000000060047
:1004e0003159ba008301e9000c0032002159ba00e9
:1004f0008301e900080032000400e00003003a0034
:10050000e280400032a0b400f5ff370011d9ba00f4
:100510008301e900faff3a008100e800e180400031
:1005200032a0b4000000060003f0a200889fbe00c5
:100530008a9fbe008c1f7800fc0007000301330077
:100540006450e1004f0032006420e10052003200ac
:1005500003826c0007003b000905d0000306d000b1
:10056000820f54000c065d000200390002003200c8
:1005700089017800030678008582550004003d005b
:100580000003fd008103fd008502ea008b85420027
:10059000840f720002003b0060001000e080180031
:1005a0006011b8000005eb007a28e1000a0039006c
:1005b00006007800c75ddd00f707b2008780750090
:1005c0002d003700828171000a017800610560000a
:1005d0008180d1000080d3008502e900f9ff3b0053
:1005e000060440008784480002003b0060041400b9
:1005f000e0841c000988a300070032008a81710092
:1006000082817100610164008904d1000884d300f3
:100610008b05e800170037000978a30013003a00a3
:100620000b00e000130034008b05e90008044400cf
:1006300089844c000a4474000978a3000d003a0034
:100640000b00e000070034008b05e90008044400bb
:1006500089844c0001003a000b0020000978a300b7
:10066000f7ff32000001eb000200370082817100c9
:100670000a017800720007000cf0a70001f0a0004a
:10068000bb0037006420e10002003a00838f6c0059
:10069000bb0033000801be000200be00b4003700fa
:1006a000889fbe008a9fbe008c1f78009f000700b5
:1006b000a600330003866c006450e1002e00320077
:1006c0006420e100330032006150e1002f0032006d
:1006d0006120e1003100320085855500eb07b00054
:1006e0000900200008042000050037000804440029
:1006f00089844c000a0031000603430087834b00c5
:100700000001530081815b00f8ff33000203be004b
:100710000800a0000804440089844c00f6ff39005a
:10072000c639dd0083017300010032001300200090
:100730008904d1000884d3000998a3000500320081
:100740000800a7000300a0008904d1000884d3009a
:100750008b05e8008904d1000884d3000001eb0078
:100760000281d2003600070001f0a1000cf0a700c2
:1007700001f0a0007e0037006420e100800032001c
:100780000801be000200be00f7ff37006120e10053
:100790007b0032006000b800f3ff3700000020004b
:1007a00001f82700f0ff37000001be004a000700f3
:1007b0000470a70003f0a1006509b1001600320023
:1007c0000d0035006828e10006003500f0ff2f001d
:1007d000f1ff27000300e00013003b0001002800a8
:1007e0000000050000004000818048008502e9000b
:1007f000fcff3a0008003700f88f420002003c007e
:100800008000eb00000005008100d1000080d300d3
:100810008502e800fcff3a000300e00002003b0014
:1008200060001000e0801800000006004f89de0024
:1008300082017800890037006011b8009700370006
:1008400081002000618055000b003d000b0020005e
:1008500061fe2f000100e1001d0034008281710063
:10086000610164008904d1000884d3000000e8001d
:10087000faff3a007100200061006400030070007c
:10088000020060000900320061044400e0844c0072
:100890000988a500050032008b05e8006808e10022
:1008a00002003a008904d1000884d300f20f20002e
:1008b0000258e10005003d00c75ddd00f907b20008
:1008c0008980750008007800000006000bf82700fa
:1008d0008b00780000000500c70ade00f107b200b7
:1008e000f50fb20008003200e1cf420002003200f2
:1008f0000170a00024000500810f7000010032008b
:100900000408050044000500810f700002003a0051
:10091000140005008502e9000000400081c0480085
:10092000fcff3b000170a000240005000004be0095
:10093000e9ff07000003be000405be000200be0080
:10094000e5ff0700844f7500000006000200be00ae
:100950006450e100050036006420e100020036002a
:100960000968a30001003a000800be000160a00071
:100970004f0678004f05be004f04be000000060081
:10098000f0ff2f00f1ff2700f9ff3700889fbe001e
:100990008a9fbe008c1f7800e4ff0700ebff330046
:1009a00003866c006450e100240032006420e10002
:1009b000270032006150e100220032006120e10096
:1009c000210032008b854200eb07b1000134b800f2
:1009d000003ab8000804420089844a00013ab8008d
:1009e0000030b8008880400009014a00040033004c
:1009f0000000400081804800020149008b05e900a9
:100a0000c909dd00830170000100320013002000dd
:100a1000c814de004814dd004709de001200b200f1
:100a2000c808de000884700085ff070001f0a100ff
:100a30000cf0a70001f0a000cdff37006120e1001d
:100a4000cfff32000801be000200be00f7ff3700f2
:100a50006150e100fcff3a00c9ff3700881f7800b1
:100a6000030478000300e00007003d006000100070
:100a7000e080180060011900e081190002003b00cd
:100a800001f02d00030037000400070008f0a70064
:100a900001f0a0004f04780000000600889fbe000f
:100aa0008a9fbe00008270000402710004827100ff
:100ab000260032000004be000200be006011b80033
:100ac0006b092000950220000182cf000a00390046
:100ad0000541b1000082cf00070039000541b10097
:100ae0000982cf00040039000541b1000882cf001f
:100af000010039000541b1000542520012003200e8
:100b00000a003b0082817100610164008100d10014
:100b10000080d3008984d3000884d3008b05e800cb
:100b20000442e800f7ff3a000700370008044400d9
:100b300089844c0000004800818048008b05e90052
:100b40000442e900f9ff3a003dff07004f05be00ef
:100b50004f04be00000006000c00fa00889fbe0093
:100b600000047800f4ff2700d4bf9f008004eb004e
:100b700099bf9f0088bf9f00a8bf9f00240c200042
:100b8000b4bf9f0078815700cfb0970070805700a6
:100b9000070007000fba9700094a78000fba9700bc
:100ba000080052004f04be000080fa00000006005a
:100bb000ef03b000889fbe008a9fbe008c9fbe00de
:100bc0008e1f780080067800d1af9f00a2b79f00eb
:100bd0000007eb006a033700dfa897008100e800f8
:100be000d1af9f0054c2b300844f500006003a00ba
:100bf000010278000006eb0001c3b30000c2b3009d
:100c0000b7c2b3000e0037003d0290000404b200ea
:100c1000040032001d027800004a7800840ee800cb
:100c2000050037000000fb008d007800600307001e
:100c3000e10f4000520332000e07e8005003370076
:100c40008402780034437800d2c2b300824f53004c
:100c50000900320005003c00804f530008003200bc
:100c6000874f53000c003a0007003700814f5300b4
:100c700009003a00060037000c30a000f0ff3700f2
:100c80000c00a000eeff37000c10a000ecff3700b6
:100c90000c20a000eaff370062026600010032006b
:100ca0000c00a10068026600010032000c20a100c7
:100cb0000602fb000403b100e90f52000c003e00e5
:100cc000050378000002eb006a22b900b603fb00be
:100cd0000703b10004824300860278009603fb00fc
:100ce0000703b100e98f5300f7ff36000800370013
:100cf0000002eb00a7c2b300874f530004003a0084
:100d0000afb1970043027800a3b79f008502e800c7
:100d10000003eb0096b79f00e6c2b300954f1300a7
:100d20000c003a000ce0a00064435300d54f1300c0
:100d300003003200050378000000eb0009003700d3
:100d4000afb3970047047800a7b79f0098b79f00fc
:100d50008502e80005037800090037006a00b90041
:100d60000080430086027800b603fb000703b10051
:100d7000e98f5300f9ff360090b79f00f5ff370069
:100d8000b6427800d6af9f00cac6b3008acf5200e1
:100d9000250032000f003c0036c6b30086cf52005b
:100da0009c00320004003c00e0cf5200f902320007
:100db0006b4353000f00370046c6b30086cf520086
:100dc000170032006543430086cf5200af003a005f
:100dd0001300370036c7b30086cf52001f00320021
:100de00007003c006443530086cf520014003200d9
:100df0000643e80086cf5200a4003a0013003700f3
:100e000056c7b30086cf5200a700320063434300a9
:100e100086cf52009d003a00e5779f000d00370015
:100e2000e5779f00a2003700f0036600050120006f
:100e3000010032000500280005067600d0ff3700cb
:100e4000e5779f000c60a00099003700e5779f00d0
:100e50000c50a0000c70a00095003700e5779f00b3
:100e6000afb59700cb027800abb79f00b5b79f0036
:100e7000e08f520002003a00a18c2000b1b79f0021
:100e80003fb397008002eb00010037008502e800c5
:100e9000e6c37a00e0cf5300fcff3a00c5b79f00dd
:100ea0001fb19700e00f510005003200cfb197004d
:100eb000830f51000200310082027800c5b79f0005
:100ec000cfb297000004eb00850f520001003600fe
:100ed000050452006806660009c2b3000f00320024
:100ee000290037003d0290000404b20004003200e3
:100ef0001d027800094a7800840ee80005003700da
:100f00008d00780000022000a9020700e10f4000d8
:100f1000010032000e07e8000804e900e00f540069
:100f2000f0ff3a000084eb0017003700bd0290008c
:100f30000504b200090032009d03780088027800a1
:100f400035437800864b7800870ee800050478006a
:100f5000e04f53000a003a00100037008802780082
:100f60003500fb00050478008d00780084bf9f00e9
:100f70008f0207000fba9700e10f40000700320010
:100f80000e07e80005003700080278003fb497001c
:100f9000cfb497005fb59700efb59700890278004e
:100fa0008504e900e08f5200e0ff3a00b8b79f00e7
:100fb000c9b79f00dab79f00ebb79f000404780021
:100fc00009c2b300e00f56000f003a006c02370070
:100fd0003d0290000404b200040032001d027800bb
:100fe000094a7800840ee800050037008d0078007b
:100ff000000220006e020700e10f400001003200f5
:101000000e07e8000804e900e00f5400f0ff3a0082
:101010005b023700afb0970041047800a1b79f0092
:10102000cfc4de00090578008a0578000800be00fc
:101030000a01be004800de00c80add000080720020
:10104000e0779f007003660009003200e04f500017
:1010500007003200e14f400005003200f0779f00aa
:10106000887f9f0026002000c6b79f00030037003e
:10107000f8779f0017002000c7b79f0078fb2f006c
:1010800008844700b8b79f0085ff3700e5779f00c9
:1010900069fb2f0089844700b9b79f001a00200020
:1010a000cab79f007eff3700e5779f000c0cb300a6
:1010b0008c027800050cb2003b003a00e00f5600ad
:1010c00005003d00afb297004501be004500be00df
:1010d000a5b79f000f003700f00266001200320033
:1010e0002fb497004803be00a8b79f00f69f9f004b
:1010f00087a79f0098029000cfaade0095a79f00c7
:10110000a5a79f007f9897008fa097001fa1970029
:10111000afa19700b0b79f00c1b79f00d2b79f00a3
:10112000e3b79f000b003700afb09700c102780013
:10113000a1b79f0005047800cfc4de000905780040
:101140008a057800b8b79f00c9b79f00dab79f003b
:10115000ebb79f003fb09700cfb097005fb197000b
:10116000efb19700e00f5000e08f5800e00f5900fa
:10117000e08f590032003d003c00b3006000b80031
:101180006011b8003fb49700cfb497005fb59700e7
:10119000efb5970008045000898458000a055900eb
:1011a0008b85590022003700e00f560005003d00f6
:1011b000afb297004501be004500be00a5b79f0035
:1011c0000f003700f0026600120032002fb49700c3
:1011d0004803be00a8b79f0096af9f00a7af9f002f
:1011e0008004eb00b9af9f000005eb00caaf9f0081
:1011f0001fa89700afa897003fa99700cfa9970015
:10120000b0b79f00c1b79f00d2b79f00e3b79f0060
:101210000b003700afb09700c1027800a1b79f0064
:1012200005047800090020000a0020000b002000bf
:10123000b8b79f00c9b79f00dab79f00ebb79f0010
:101240009fb49700e08f54000d003a001a00200070
:101250009ab79f003fb09700cfb097005fb197005b
:10126000efb19700e00f5000e08f5800e00f5900f9
:10127000e08f5900020032008000eb0091b79f0020
:101280000c017800020cb20082b79f000504200018
:10129000850f51003400320003003c00e00f510084
:1012a0000800320048003700050820008fb1970081
:1012b000858f510014003200050c2000858f5100ed
:1012c00041003a000681200015c0b3003600be0080
:1012d0003601be003fb49700cfb497005fb59700ca
:1012e000efb597000040e10001c8e10002d0e10045
:1012f00003d8e100330039008542e800f4cf520002
:10130000f2ff3a002f00370015c0b30000012000a3
:10131000010020006011b8003fb49700cfb49700df
:101320005fb59700efb597000040e10001c8e1000c
:1013300002d0e10003d8e10022003900490020007a
:101340000000d0008180d2000281d2008381d200cf
:101350008904e900faff3a008542e800f0cf520024
:10136000edff3a001700370015c0b30080002000e1
:10137000010020006011b8003fb49700cfb497007f
:101380005fb59700efb597000040e10001c8e100ac
:1013900002d0e10003d8e1000a0039003900200042
:1013a0000000d0008180d2000281d2008381d2006f
:1013b0008904e900faff3a008542e800f5cf5200bf
:1013c000edff3a00e5779f006f7597008a02fb00fa
:1013d0009fb597008b8f520002003d00eb779f0076
:1013e000040037001fb09700850f500001003d003a
:1013f00095b79f00e00f520003003200e302660041
:10140000010032000402e9000500240085026600a4
:10141000060032009fb09700810f52000200340096
:1014200001025200010037000002eb006f719700cb
:101430008202fb008001eb00f3af9f00850f52009a
:101440000200340085025200f5af9f00640266007e
:101450003b003200e202660061026600e08f52004b
:1014600011003200bd0290000504b20008003200f5
:101470009d027800b6c2b300e00f520001003200b6
:1014800006c3e800864a7800850ee800150037009c
:10149000b0022000e00f5200010032000080e8009e
:1014a0008d0078000c003700e00f52000e00320073
:1014b0003d0290000404b200050032001d027800d5
:1014c00005c2b300054a7800840ee8000500370025
:1014d0008d0078000002200035010700e10f400078
:1014e000010032000e07e8007faa9700e00f5200cb
:1014f0004f00320008c3b300840478003d0290001e
:101500000404b200040032001d027800084a78008a
:10151000840ee800050037008d00780000032000ed
:1015200023010700e10f4000010032000e07e80030
:101530008904e900f1ff3a00f9af9f003c00370051
:10154000ffaa9700e08f5200140032006802660084
:1015500012003a0008c2b300850478003d029000f2
:101560000404b200040032001d027800084a78002a
:10157000840ee800050037008d007800000220008e
:101580000b010700e10f4000010032000e07e800e8
:101590008904e900f1ff3a00f9af9f00e20266001a
:1015a00061026600e08f520011003200bd0290001f
:1015b0000504b200080032009d027800b6c2b300f4
:1015c000e00f52000100320006c3e800864a7800ae
:1015d000850ee80015003700b0022000e00f520031
:1015e000010032000080e8008d0078000c00370018
:1015f000e00f52000e0032003d0290000404b200e1
:10160000050032001d02780005c2b300054a7800cb
:10161000840ee800050037008d00780000022000ed
:10162000e3000700e10f4000010032000e07e80070
:101630001fb397000602e900c223dd00c7a79f0081
:101640006323b90006047800b8a79f004322dd0099
:101650008580200085024200e5af9f00f00466000f
:10166000e99f9f000c0578000a02b200da9f9f00f4
:10167000aa0037009fb597008b05e9009bb79f0034
:101680000fb0970001042000810f50007a00320053
:1016900003003c00e00f50000800320085003700d6
:1016a000040820000fb19700840f51005d00320044
:1016b000040c2000840f51007e003a00e00f560019
:1016c0001f003d00efa997003304be002305be00b4
:1016d0000802be000a03be003fb09700cfb09700db
:1016e0005fb19700efb197002a020700e0779f00f3
:1016f0000000fb00cf80de0001017800820178004d
:101700000802be000a03be008b0207003fb297002a
:10171000cfb297005fb39700efb39700000252007b
:1017200081825a0002035b0083835b00b4b79f0091
:10173000c5b79f00d6b79f00e7b79f0035003700b9
:10174000ef9a9700e08f5200220032003fb29700dc
:10175000cfb297006fab97003604be002605be00df
:101760000801be000400be0084bf9f00f5b79f00c3
:1017700047010700e0779f000000fb00cf80de00fc
:101780000801be00520107000fba9700ffb2970090
:101790000004520081845a00d8a79f00e9a79f0047
:1017a0008004eb00f9a79f000005eb008aaf9f00c3
:1017b0005fa09700efa097007fa197008fa99700e7
:1017c000b0b79f00c1b79f00d2b79f00e3b79f009b
:1017d00010003700efa89700110278003fb1970082
:1017e00080027800811f7800110009000481d80070
:1017f0008002fd00cf007800a4002000809fbe0082
:10180000110009008482d800010278004f00be0058
:10181000e4779f00ef7197000343b000e3779f00e8
:1018200024003700948b2000df9a9700e08f52004d
:1018300001003200848a20003fb09700cfb09700ab
:101840005fb19700efb197004fa397000603e9003f
:10185000050033008301d1000281d3008180d300d1
:101860000080d300f9ff37006f006000644078000b
:10187000e0779f000f0037003fb29700cfb297008c
:101880005fb39700efb397003fa497000804e90007
:10189000050033008703d1000683d3008582d3007f
:1018a0000482d300f9ff3700674262000443b000ae
:1018b000e4779f003d0290000404b200070032006c
:1018c0009d0278006f729700844a7800850ee800c8
:1018d000e04f520007003a0007003700ef7497000e
:1018e0000900fb008d00780031000700e10f400087
:1018f000010032000e07e8004fa59700640555006f
:10190000caa79f00bfa59700e3855500bba79f000e
:101910006fa8970068005000e0af9f009fb097004d
:10192000e08f500053ff3a00680666001400320052
:101930007fa99700e00f51001100340008c2b300e6
:10194000820478003d0290000404b20004003200da
:101950001d027800084a7800840ee8000500370070
:101960008d0078000002200011000700e10f400008
:10197000010032000e07e8008904e900f1ff3a0097
:10198000dfa9970013407800e0779f00e04f5000f8
:1019900091fc3a000e0078004f0778004f06be0019
:1019a0004f05be004f04be00ef03b100000006006b
:1019b000889fbe000104780038029000e2026200b5
:1019c0008084eb003b003200040378000620b20064
:1019d0009802900002003a00e08f520035003a0071
:1019e0000490a0003404980080047800f90fb2003d
:1019f000e08f520002003a00a8029000050c780027
:101a0000ea8f540005003a000408b20003003a00cf
:101a100088007800d0002000e5ff07001802900041
:101a2000d8029000850f52000b0032000402e8003b
:101a30001404980018027800094a7800040ce800a1
:101a400015c0b300848f2000054a7800ea8f540047
:101a500018003a0005003700880078000940780037
:101a60001700070080047800120037003802900049
:101a70000410b2000f00320018019000a80090007e
:101a8000480090005200070018029000840f500098
:101a900004003200380290000403b30034049800bc
:101aa0008084eb000002eb001404980028029000f0
:101ab000040c7800090078004f04be000000060006
:101ac0000200fa00889fbe00a0ff9f00010478007a
:101ad00038029000840278000504b200020032004f
:101ae0000000fb0035003700e202620005003a000a
:101af0000403b30034049800150498000080eb0040
:101b00002e003700d8049000e08f540006003a0001
:101b100012002000e6805700480090002c000700cb
:101b20001904980023003700a8029000e08f5200ab
:101b300008003a00b58f200025049800050c7800b5
:101b40002500200055049800150498000430a000da
:101b50003404980018019000a800900048009000fc
:101b60001b000700280290008082eb0015049800fb
:101b7000affa9700054a7800040ce8002ffa9700a6
:101b8000ea4f52000b003a00380290000410b200f5
:101b90000800320018019000a80090004800900052
:101ba0000b0007000002eb0014049800a80290004c
:101bb000050c78002ffa97000400fb004f04be00cc
:101bc0000080fa000000060000c0da0000000600f5
:101bd0000a00fa00e20f500022003e00f4478000a5
:101be000e10f520006003200872320004623200028
:101bf0002423200005232000e08f530004003a0036
:101c000087222000462220002422200005222000d6
:101c1000000028001500600003003a00800b7800e7
:101c200007002800958a7300054020009482620016
:101c300001003a0014a0a0008202780006003700dc
:101c4000940378000710b200fdff3200b103fb00df
:101c5000070b78008502e900e08f5200f8ff3a0098
:101c60000800370034002000b4bf9f00c0bf9f00b1
:101c7000d1bf9f00e2bf9f006a805700d2ff0700dc
:101c80006fb99700020078000080fa00000006009b
:101c90006022b800060220000000d0008180d2003f
:101ca0000482d2008582d2000000a000020252000d
:101cb00083825a00030031000202420083824a00fc
:101cc0000000a1000603e900f3ff3a00000006004f
:101cd000020ab900001bb9000200b80081004200ee
:101ce0008100430000000600889fbe008a9fbe005e
:101cf0003004be002005be000404440085844c006e
:101d000006054d0087854d000898be000a90be006c
:101d10000440e10005c8e10006d0e10007d8e10079
:101d200002003100680040001008e8004f05be00c6
:101d30004f04be00000006001000fa00889fbe009d
:101d40008a9fbe000605be000404be003002be002d
:101d50002003be00c4b79f00d5b79f00e6b79f0021
:101d6000f7b79f000802520089825a000a035b00fd
:101d70008b835b0084bf9f0095bf9f00a6bf9f0021
:101d8000b7bf9f000498be000698be001100200057
:101d90004fb29700dfb297006fb39700ffb3970081
:101da0000820e10009a8e1000ab0e1000bb8e10059
:101db000010039008000eb00108810004f05be00c4
:101dc0004f04be000080fa00000006001400fa0074
:101dd000889fbe008a9fbe008c9fbe003f00070008
:101de0000605be000404be000006eb00ccb79f0051
:101df000bcb79f00acb79f009cb79f008cb79f00fb
:101e00000d0420004fb39700bfb297008603430034
:101e10002fb29700e00f530004003d003d00070083
:101e20000f004000b0ff0700030037003900070033
:101e30000f004000c0ff0700cfb2970095bf9f0082
:101e4000e08f5200090035002b000700140020002d
:101e5000050020006033b80000007200818072002d
:101e600002017300838173001c0007000c06e80068
:101e70008d0f5600e3ff3a001fba9700e00f5200a3
:101e800005003d000802be000a03be0000fe2f0050
:101e90000f00400094ff07004faa9700e00f520088
:101ea00008003a000fb497009fb497002fb5970031
:101eb000bfb59700d8b79f00e9b79f00fab79f005a
:101ec0008bbf9f000c0007004f06be004f05be00f1
:101ed0004f04be000080fa00000006000100070069
:101ee0000000060090b79f00a1b79f00b2b79f0007
:101ef000c3b79f00000006000100070000000600b5
:101f00001fb09700afb097003fb19700cfb19700d7
:101f1000000006004f2bde0087037300a7b79f0069
:101f20004f23de00858242008502730095b79f0033
:101f3000ffaa97004f2bde00040242000402730048
:101f400084b79f006faa97004f23de00858242006e
:101f500085027300f5af9f00e9ff07004f18de0010
:101f60000402420000027200e4af9f00e4ff070099
:101f7000000040008180480002014900838149003f
:101f8000d8ff07000802be000a03be0000fe2f00b3
:101f900000000600881f780018002000881f7800c5
:101fa0008aff07008f87e9004f04780000000600d1
:101fb000801feb0085ff07008f87e9000000060007
:101fc000889fbe008a9fbe00e00f5000e08f58003f
:101fd000e00f5900e08f59000c003d006044b8004c
:101fe0006055b8000000540081805c0002015d0073
:101ff00083815d00180020001500070008003d00e7
:10200000180007000004eb00050037000004eb0097
:102010000f00070002003d0012000700180020001a
:10202000dcff0700e00f5400060032006022b80019
:102030006033b8000000520081805a0002015b004a
:1020400083815b004f05be004f04be000000060008
:10205000e00f5200e08f5a00e00f5b00e08f5b0062
:10206000000006006044b8006055b8000402540047
:1020700085825c0006035d0087835d00000006002a
:10208000889fbe008a9fbe008c1f7800e00f500022
:10209000e08f5800e00f5900e08f59000d003d001f
:1020a0006044b8006055b8000000540081805c00b6
:1020b00002015d0083815d001c0020000820e1001a
:1020c00009a8e1000ab0e1000bb8e1000d003d00f5
:1020d000080037000006eb00e00f5200e08f5a00c6
:1020e000e00f5b00e08f5b0006003d006044b8003d
:1020f0006055b8000402540085825c0006035d0050
:1021000087835d00aaff0700e00f5600060032003b
:102110006022b8006033b8000000520081805a008d
:1021200002015b0083815b004f0678004f05be0013
:102130004f04be0000000600889fbe008a9fbe00bc
:102140008c1f78000006eb00e00f5000e08f580075
:10215000e00f5900e08f590007003d006044b800cf
:102160006055b8000000540081805c0002015d00f1
:1021700083815d001c002000e00f5200e08f5a00b8
:10218000e00f5b00e08f5b0007003d006044b8009b
:102190006055b8000402540085825c0006035d00af
:1021a00087835d000c00a2000c000700e00f5600c2
:1021b000060032006022b8006033b8000000520010
:1021c00081805a0002015b0083815b004f0678002a
:1021d0004f05be004f04be0000000600889fbe00f1
:1021e0008a9fbe008c9fbe000404b8000506b8009c
:1021f0008904460060854e000606b8000a054600c0
:10220000e0854e000706b8008b054600040eb800b6
:10221000890446000a854e00e0854d00050eb80091
:102220000a0546008b854e00060eb8008b05460059
:102230000416b8000a0546008b854e000516b80046
:102240008b054600041eb8008b0546000800be0042
:102250000a01be004f06be004f05be004f04be007f
:042260000000060074
:020000040000fa
:10226400140000003535000034340000333300001e
:10227400323200003131000030300000526500007d
:102284007365000074200000496e00002000000007
:10229400496e000069740000696100006c69000007
:1022a4007a610000746900006f6e00002043000032
:1022b4006f6d0000706c000065740000650d000017
:1022c4000a00000062750000747400006f6e000064
:1022d40020680000656c000064200000646f00004a
:1022e400776e00000d0a00000052000065730000c4
:1022f40065740000746900006e6700000d0a000038
:102304000025000064000000483a0000002e000090
:08231400000d00000a000000aa
:020000040000fa
:10231c000000fa000082eb00641988000082eb00d8
:10232c0004168800f4df2d00441688000421a9004f
:10233c00240880000440a0000450a0002408880059
:10234c0005e1a800c042a900c242a800c0c2a80072
:10235c006100a8009660a800400007000080fa0009
:10236c00000006000c00fa001416800062026200e5
:10237c00e00f52000600320000000000141680002e
:10238c0062026200e00f5200fcff3a0001003700cd
:10239c00000000001416800062026200e00f520080
:1023ac00fcff320004088000050020002407980080
:1023bc0035079800000000001416800062026200cd
:1023cc00e00f5200fcff3a000408800005002000da
:1023dc0044079800550798006022b800048fbe008f
:1023ec004e039000de0390002e029000be0290007f
:1023fc00840f5300858f5b00070039004e0390005b
:10240c00de0390002e029000be029000041f5300c9
:10241c0005975b00060037004e039000de0390002a
:10242c002e029000be029000041f530005975b0023
:10243c0094898400cfa2de0016002000be0f52004b
:10244c00ae8f5a00010031000003eb000602780049
:10245c00040078000080fa00000006000000fa007a
:10246c000002eb000419880021e3a9000419800084
:10247c000480a1000490a1000419880004198000b4
:10248c000450a1000460a1000470a100041988008c
:10249c00041980000450a0000460a0000470a00087
:1024ac00041988002043a9002023a9000002eb0096
:1024bc00141988002519800004f021000482720090
:1024cc00241988002519800004fc2f000482620066
:1024dc000410a0002419880028e3a9000002eb00d6
:1024ec00841988000080fa00000006000200fa003f
:1024fc00000f78001e027800e40f520008003a002a
:10250c00c842a800441980000400a1000410a100d6
:10251c000420a0000430a100441988000000000031
:10252c0021e3a8002023a80000000000041980006b
:10253c0061026200e00f5200fcff320021e3a900af
:10254c0004188000040078000080fa0000000600e7
:10255c003400f800881f780008002000a8018800cb
:10256c004f0478000000fa000080fa003400f900f3
:10257c0000400600849fbe003400f80004002000d8
:10258c00a40188000000fa00340480006802620094
:10259c00e00f5200070032001516800004042000e2
:1025ac0004826200e00f520002003200140020008e
:1025bc00044088008660a9000080fa003400f9000d
:1025cc004f02be00004006000800fa00889fbe00c3
:1025dc00008fbe002207980033079800120d2200ce
:1025ec00d3fc23001e00be00e5f807000002be006d
:1025fc00048fbe001e00be0068f807000002be007b
:10260c00840278002e029000050a78000200200057
:10261c00a34724001e00be00d9f807000002be002c
:10262c000404be002e02900094027800843e200028
:10263c0004aab90004027800cfa2de000400be0098
:10264c0077f807000002be000401be000800be00bf
:10265c00b2f707000002be000400be004ff80700ee
:10266c000002be00840278003e029000050a780049
:10267c004f04be000080fa00000006000000fa00c3
:10268c000002eb00344088000002eb00244088007c
:10269c000080fa00000006000000fa000002eb00c7
:1026ac001411880004002800041188002062a9007d
:1026bc0094012000441188002342a8000080fa00f5
:1026cc00000006000400fa00100798000002eb005e
:1026dc00040f7800010037001e0fe8001e0278007e
:1026ec009e0290000482420014427800e04f520097
:1026fc00f9ff3a001e027800040078000080fa000e
:10270c00000006000400fa00100798000002eb001d
:10271c00040f78000d003700000000001511800038
:10272c000420200004826200e00f5200fbff3a00fc
:10273c001e0278009e02900004824200144278002f
:10274c000402fb00241188001e0fe8001e009000fc
:10275c00dcff0700000278009e0f5200eeff3c00e9
:10276c000080fa00000006002e00fa000f0107009e
:10277c00e7fe0700c8ff0700b0000700a0142900ff
:10278c00e0ff07000002eb00040f78000002eb00f2
:10279c00140798000100370000000000401f2000c3
:1027ac0087000700effe070000027800e00f5200e0
:1027bc000a0032001e0fe800f4c121009e027800ce
:1027cc00848f5200050036001e0290000402e800bf
:1027dc00140798000002eb00040f780024802000fe
:1027ec0014427800e04f52001f0032001516800092
:1027fc000404200004826200e00f52001400320036
:10280c0040162900bfff0700244080000402e800a6
:10281c00244088002440800024408000ea0f5200ad
:10282c001100340070172900b6ff07000002eb00fe
:10283c00040f78000002eb00140798000042eb0034
:10284c000002fd0002e8b7000002fd0006003700a0
:10285c000002eb00244088000042eb000002fd0067
:10286c0002e8b7000002fd0004408000e00f5200b7
:10287c00c9ff32000002eb00044088001e029000e9
:10288c00240798009e02780004c221001100090060
:10289c008482d800000278008102780084027800db
:1028ac00843e2000110009008482d80000027800c8
:1028bc0081027800340798009e029000843e20002c
:1028cc0004aab900840278003e02900004824200ff
:1028dc00050020000400be00d4f707000002be0073
:1028ec00440798005507980002002000a3472400d5
:1028fc004e009000de00900066f707000002be005c
:10290c004407980055079800c50220008e824200ab
:10291c00a40220000e024200850178000401780018
:10292c004e009000de00900027ff0700de129000a2
:10293c00250798006e129000340798006c0247002f
:10294c00ae029000851f780035182900851f78008d
:10295c00040078007df80700e48757007b024700ed
:10296c00be029000851f780035182900851f78005d
:10297c000400780075f80700e487570060182900f8
:10298c0060ff07006c024700040078005dff070041
:10299c00901829005bff07007b02470004007800b9
:1029ac0058ff0700b018290056ff070014c0b300e9
:1029bc000002fd0002e8b7000002fd0077ff3700bf
:1029cc000400fa00100798000d0037000002eb001d
:1029dc00040f7800030037001e0278000402e800a0
:1029ec00040f78009e027800a4292000848f5200e6
:1029fc00f9ff34001e0290000402e900140798004d
:102a0c001e029000e00f5200f0ff3c000080fa0024
:102a1c00000006003400f800881f78000800200031
:102a2c00a80188004f0478000000fa008bc0a900b0
:102a3c000080fa003400f900004006000000fa00a3
:102a4c00871f7800881f78000500fc0057052000c0
:102a5c00373b8800a80a2000383b880027a6a8002e
:102a6c004f047800cf037800042022003431880012
:102a7c0023c6a90023e6a90027e6a80027a6a900db
:102a8c00140680000480a0000490a10004a0a10002
:102a9c0014068800140680000480a0000490a10095
:102aac0004a0a100140688008bc0a9009bc0a8003c
:102abc000080fa00000006000200fa00000f780007
:102acc00871f7800881f78000500fc005705200040
:102adc00373b8800a80a2000383b880027a6a800ae
:102aec004f047800cf03780027e6a8001e02780078
:102afc00044278006f4262000482fb006f026200a5
:102b0c004a22dd0016318000f53f2c00850263005f
:102b1c000482720014318800143180000480a100fa
:102b2c000490a000143188000002eb0004318800ee
:102b3c000002eb00043188000002eb000431880035
:102b4c000042eb000400780022e6b70023e6a80060
:102b5c0027a6a9000040fe0000000000871f780097
:102b6c00881f78000500fc0057052000373b8800c3
:102b7c00a80a2000383b880027a6a8004f0478003c
:102b8c00cf03780027e6a900343180000480a1002f
:102b9c000490a100343188000002eb00243188003d
:102bac0027a6a9000080fa00000006000000fa0029
:102bbc00053a80000400280004826200e00f5200f5
:102bcc000100320041e7a900053a8000040024000e
:102bdc0004826200e00f52000100320041c7a900dc
:102bec00053a80000440200004826200e00f52008d
:102bfc00010032004147a900053a8000040820007a
:102c0c0004826200e00f52000100320040e7a9008c
:102c1c00053a80000404200004826200e00f520098
:102c2c000100320040c7a900043a80007002620023
:102c3c00e00f5200010032004087a900043a8000e6
:102c4c0068026200e00f5200010032004067a900e8
:102c5c00043a800064026200e00f5200010032006e
:102c6c004047a900043a800062026200e00f520063
:102c7c00010032004027a900043a80006102620082
:102c8c00e00f5200010032004007a9000080fa005a
:042c9c00000006002e
:020000040000fa
:102ca000000800000800000000000000a808000064
:102cb0002a000000020000003031320033343500b9
:102cc0003637380039414200434445004600300061
:102cd00031323300343536003738390061626300f1
:102ce0006465660000286e00756c6c0029000000a9
:102cf00008080000a0000000020000000100000021
:102d00000000000000000a000000000000000000b9
:102d1000006400000000000000000000e803000064
:102d2000000000000000100027000000000000006c
:102d300000a08600010000000000000040420f00db
:102d400000000000000080009698000000000000d5
:102d50000000e100f50500000000000000ca9a0034
:102d60003b00000000000000e40b540002000000e3
:102d70000000e80076481700000000000010a500e1
:102d8000d4e8000000000000a0724e001809000006
:102d9000000040007a10f3005a0000000080c600d6
:102da000a47e8d000300000000c16f00f2862300a6
:102db000000000008a5d78004563010000006400a7
:102dc000a7b3b600e00d000000e889000423c700a7
:102dd0008a000000f8080000060000000000000063
:102de000d20800002600000002000000f9080000e0
:102df00000f908000900000000020000fb080000c4
:102e000000fb08000e0201000000000000000000ae
:102e1000000000000602020000000000d2080000ce
:102e2000fe08000002000000020000000100000097
:042e3000000000009e
:020000040000fa
:0200000401f009
:040000000f000000ed
:020000040000fa
:0200000401f009
:0400080003000000f1
:020000040000fa
:0200000401f009
:04000c0000000000f0
:020000040000fa
:0200000401f009
:04001000bf0000002d
:020000040000fa
:0200000401f009
:04001400df00000009
:020000040000fa
:0200000401f009
:04001800fb000000e9
:020000040000fa
:0200000401f009
:04001c00c20000001e
:020000040000fa
:0200000401f009
:04002000ff000000dd
:00000001FF
